{"abi":[{"type":"constructor","inputs":[{"name":"_merkleVerifier","type":"address","internalType":"address"},{"name":"_feeRecipient","type":"address","internalType":"address"}],"stateMutability":"nonpayable"},{"type":"function","name":"DISPUTE_WINDOW","inputs":[],"outputs":[{"name":"","type":"uint256","internalType":"uint256"}],"stateMutability":"view"},{"type":"function","name":"PAYMENT_WINDOW","inputs":[],"outputs":[{"name":"","type":"uint256","internalType":"uint256"}],"stateMutability":"view"},{"type":"function","name":"addSupportedToken","inputs":[{"name":"token","type":"address","internalType":"address"}],"outputs":[],"stateMutability":"nonpayable"},{"type":"function","name":"billPayments","inputs":[{"name":"","type":"bytes32","internalType":"bytes32"}],"outputs":[{"name":"billId","type":"bytes32","internalType":"bytes32"},{"name":"totalCollected","type":"uint256","internalType":"uint256"},{"name":"totalRequired","type":"uint256","internalType":"uint256"},{"name":"paymentToken","type":"address","internalType":"address"},{"name":"payee","type":"address","internalType":"address"},{"name":"paymentDeadline","type":"uint256","internalType":"uint256"},{"name":"fullyPaid","type":"bool","internalType":"bool"},{"name":"disputed","type":"bool","internalType":"bool"},{"name":"disputeDeadline","type":"uint256","internalType":"uint256"}],"stateMutability":"view"},{"type":"function","name":"disputes","inputs":[{"name":"","type":"bytes32","internalType":"bytes32"}],"outputs":[{"name":"challenger","type":"address","internalType":"address"},{"name":"timestamp","type":"uint256","internalType":"uint256"},{"name":"reason","type":"string","internalType":"string"},{"name":"resolved","type":"bool","internalType":"bool"},{"name":"approved","type":"bool","internalType":"bool"}],"stateMutability":"view"},{"type":"function","name":"emergencyWithdraw","inputs":[{"name":"token","type":"address","internalType":"address"},{"name":"amount","type":"uint256","internalType":"uint256"}],"outputs":[],"stateMutability":"nonpayable"},{"type":"function","name":"feeRecipient","inputs":[],"outputs":[{"name":"","type":"address","internalType":"address"}],"stateMutability":"view"},{"type":"function","name":"getBillSummary","inputs":[{"name":"billId","type":"bytes32","internalType":"bytes32"}],"outputs":[{"name":"totalCollected","type":"uint256","internalType":"uint256"},{"name":"totalRequired","type":"uint256","internalType":"uint256"},{"name":"fullyPaid","type":"bool","internalType":"bool"},{"name":"disputed","type":"bool","internalType":"bool"}],"stateMutability":"view"},{"type":"function","name":"getMemberPayment","inputs":[{"name":"billId","type":"bytes32","internalType":"bytes32"},{"name":"member","type":"address","internalType":"address"}],"outputs":[{"name":"payment","type":"tuple","internalType":"struct PaymentManager.Payment","components":[{"name":"payer","type":"address","internalType":"address"},{"name":"amount","type":"uint256","internalType":"uint256"},{"name":"token","type":"address","internalType":"address"},{"name":"timestamp","type":"uint256","internalType":"uint256"},{"name":"settled","type":"bool","internalType":"bool"},{"name":"refunded","type":"bool","internalType":"bool"}]}],"stateMutability":"view"},{"type":"function","name":"getSupportedTokens","inputs":[],"outputs":[{"name":"tokens","type":"address[]","internalType":"address[]"}],"stateMutability":"view"},{"type":"function","name":"initializeBillPayment","inputs":[{"name":"billId","type":"bytes32","internalType":"bytes32"},{"name":"totalRequired","type":"uint256","internalType":"uint256"},{"name":"paymentToken","type":"address","internalType":"address"},{"name":"payee","type":"address","internalType":"address"}],"outputs":[],"stateMutability":"nonpayable"},{"type":"function","name":"makePayment","inputs":[{"name":"billId","type":"bytes32","internalType":"bytes32"},{"name":"amount","type":"uint256","internalType":"uint256"}],"outputs":[],"stateMutability":"payable"},{"type":"function","name":"merkleVerifier","inputs":[],"outputs":[{"name":"","type":"address","internalType":"contract MerkleVerifier"}],"stateMutability":"view"},{"type":"function","name":"owner","inputs":[],"outputs":[{"name":"","type":"address","internalType":"address"}],"stateMutability":"view"},{"type":"function","name":"pause","inputs":[],"outputs":[],"stateMutability":"nonpayable"},{"type":"function","name":"paused","inputs":[],"outputs":[{"name":"","type":"bool","internalType":"bool"}],"stateMutability":"view"},{"type":"function","name":"protocolFeeBps","inputs":[],"outputs":[{"name":"","type":"uint256","internalType":"uint256"}],"stateMutability":"view"},{"type":"function","name":"raiseDispute","inputs":[{"name":"billId","type":"bytes32","internalType":"bytes32"},{"name":"reason","type":"string","internalType":"string"}],"outputs":[],"stateMutability":"nonpayable"},{"type":"function","name":"removeSupportedToken","inputs":[{"name":"token","type":"address","internalType":"address"}],"outputs":[],"stateMutability":"nonpayable"},{"type":"function","name":"renounceOwnership","inputs":[],"outputs":[],"stateMutability":"nonpayable"},{"type":"function","name":"resolveDispute","inputs":[{"name":"billId","type":"bytes32","internalType":"bytes32"},{"name":"approved","type":"bool","internalType":"bool"}],"outputs":[],"stateMutability":"nonpayable"},{"type":"function","name":"settlePayments","inputs":[{"name":"billId","type":"bytes32","internalType":"bytes32"}],"outputs":[],"stateMutability":"nonpayable"},{"type":"function","name":"supportedTokenList","inputs":[{"name":"","type":"uint256","internalType":"uint256"}],"outputs":[{"name":"","type":"address","internalType":"address"}],"stateMutability":"view"},{"type":"function","name":"supportedTokens","inputs":[{"name":"","type":"address","internalType":"address"}],"outputs":[{"name":"","type":"bool","internalType":"bool"}],"stateMutability":"view"},{"type":"function","name":"tokenPrices","inputs":[{"name":"","type":"address","internalType":"address"}],"outputs":[{"name":"","type":"uint256","internalType":"uint256"}],"stateMutability":"view"},{"type":"function","name":"transferOwnership","inputs":[{"name":"newOwner","type":"address","internalType":"address"}],"outputs":[],"stateMutability":"nonpayable"},{"type":"function","name":"unpause","inputs":[],"outputs":[],"stateMutability":"nonpayable"},{"type":"function","name":"updateFeeRecipient","inputs":[{"name":"newRecipient","type":"address","internalType":"address"}],"outputs":[],"stateMutability":"nonpayable"},{"type":"function","name":"updateProtocolFee","inputs":[{"name":"newFeeBps","type":"uint256","internalType":"uint256"}],"outputs":[],"stateMutability":"nonpayable"},{"type":"event","name":"DisputeRaised","inputs":[{"name":"billId","type":"bytes32","indexed":true,"internalType":"bytes32"},{"name":"challenger","type":"address","indexed":true,"internalType":"address"}],"anonymous":false},{"type":"event","name":"DisputeResolved","inputs":[{"name":"billId","type":"bytes32","indexed":true,"internalType":"bytes32"},{"name":"approved","type":"bool","indexed":false,"internalType":"bool"}],"anonymous":false},{"type":"event","name":"EscrowReleased","inputs":[{"name":"billId","type":"bytes32","indexed":true,"internalType":"bytes32"},{"name":"totalAmount","type":"uint256","indexed":false,"internalType":"uint256"}],"anonymous":false},{"type":"event","name":"OwnershipTransferred","inputs":[{"name":"previousOwner","type":"address","indexed":true,"internalType":"address"},{"name":"newOwner","type":"address","indexed":true,"internalType":"address"}],"anonymous":false},{"type":"event","name":"Paused","inputs":[{"name":"account","type":"address","indexed":false,"internalType":"address"}],"anonymous":false},{"type":"event","name":"PaymentMade","inputs":[{"name":"billId","type":"bytes32","indexed":true,"internalType":"bytes32"},{"name":"payer","type":"address","indexed":true,"internalType":"address"},{"name":"amount","type":"uint256","indexed":false,"internalType":"uint256"},{"name":"token","type":"address","indexed":false,"internalType":"address"}],"anonymous":false},{"type":"event","name":"PaymentSettled","inputs":[{"name":"billId","type":"bytes32","indexed":true,"internalType":"bytes32"},{"name":"recipient","type":"address","indexed":true,"internalType":"address"},{"name":"amount","type":"uint256","indexed":false,"internalType":"uint256"}],"anonymous":false},{"type":"event","name":"RefundIssued","inputs":[{"name":"billId","type":"bytes32","indexed":true,"internalType":"bytes32"},{"name":"recipient","type":"address","indexed":true,"internalType":"address"},{"name":"amount","type":"uint256","indexed":false,"internalType":"uint256"}],"anonymous":false},{"type":"event","name":"Unpaused","inputs":[{"name":"account","type":"address","indexed":false,"internalType":"address"}],"anonymous":false},{"type":"error","name":"BillNotVerified","inputs":[]},{"type":"error","name":"DisputeActive","inputs":[]},{"type":"error","name":"EnforcedPause","inputs":[]},{"type":"error","name":"ExpectedPause","inputs":[]},{"type":"error","name":"InsufficientPayment","inputs":[]},{"type":"error","name":"InvalidBillId","inputs":[]},{"type":"error","name":"InvalidToken","inputs":[]},{"type":"error","name":"OwnableInvalidOwner","inputs":[{"name":"owner","type":"address","internalType":"address"}]},{"type":"error","name":"OwnableUnauthorizedAccount","inputs":[{"name":"account","type":"address","internalType":"address"}]},{"type":"error","name":"PaymentAlreadyMade","inputs":[]},{"type":"error","name":"PaymentWindowClosed","inputs":[]},{"type":"error","name":"PriceFeedError","inputs":[]},{"type":"error","name":"ReentrancyGuardReentrantCall","inputs":[]},{"type":"error","name":"SafeERC20FailedOperation","inputs":[{"name":"token","type":"address","internalType":"address"}]},{"type":"error","name":"UnauthorizedAccess","inputs":[]}],"bytecode":{"object":"0x60a06040526032600755348015610014575f5ffd5b50604051613ab5380380613ab58339818101604052810190610036919061030d565b335f73ffffffffffffffffffffffffffffffffffffffff168173ffffffffffffffffffffffffffffffffffffffff16036100a7575f6040517f1e4fbdf700000000000000000000000000000000000000000000000000000000815260040161009e919061035a565b60405180910390fd5b6100b6816101ee60201b60201c565b50600180819055508173ffffffffffffffffffffffffffffffffffffffff1660808173ffffffffffffffffffffffffffffffffffffffff16815250508060085f6101000a81548173ffffffffffffffffffffffffffffffffffffffff021916908373ffffffffffffffffffffffffffffffffffffffff160217905550600160035f5f73ffffffffffffffffffffffffffffffffffffffff1673ffffffffffffffffffffffffffffffffffffffff1681526020019081526020015f205f6101000a81548160ff02191690831515021790555060045f908060018154018082558091505060019003905f5260205f20015f9091909190916101000a81548173ffffffffffffffffffffffffffffffffffffffff021916908373ffffffffffffffffffffffffffffffffffffffff1602179055505050610373565b5f5f5f9054906101000a900473ffffffffffffffffffffffffffffffffffffffff169050815f5f6101000a81548173ffffffffffffffffffffffffffffffffffffffff021916908373ffffffffffffffffffffffffffffffffffffffff1602179055508173ffffffffffffffffffffffffffffffffffffffff168173ffffffffffffffffffffffffffffffffffffffff167f8be0079c531659141344cd1fd0a4f28419497f9722a3daafe3b4186f6b6457e060405160405180910390a35050565b5f5ffd5b5f73ffffffffffffffffffffffffffffffffffffffff82169050919050565b5f6102dc826102b3565b9050919050565b6102ec816102d2565b81146102f6575f5ffd5b50565b5f81519050610307816102e3565b92915050565b5f5f60408385031215610323576103226102af565b5b5f610330858286016102f9565b9250506020610341858286016102f9565b9150509250929050565b610354816102d2565b82525050565b5f60208201905061036d5f83018461034b565b92915050565b6080516137236103925f395f8181610853015261115c01526137235ff3fe6080604052600436106101c1575f3560e01c806368c4ac26116100f65780638fff905b11610094578063d3c7c2c711610063578063d3c7c2c714610612578063f160d3691461063c578063f2fde38b14610664578063f585dc571461068c576101c1565b80638fff905b1461055457806395ccea6714610598578063be7b8a77146105c0578063c6c48962146105e8576101c1565b806376319190116100d057806376319190146104c45780638456cb59146104ec57806386607cb7146105025780638da5cb5b1461052a576101c1565b806368c4ac261461044a5780636d69fcaf14610486578063715018a6146104ae576101c1565b80633f4ba83a11610163578063469048401161013d57806346904840146103925780634a8e2969146103bc5780635c975abb146103f857806365c2066014610422576101c1565b80633f4ba83a1461032c5780634256dd781461034257806343a0e3e61461036a576101c1565b80632b60c8221161019f5780632b60c8221461028057806335659fb8146102bc57806339505737146102e65780633d1b418d14610310576101c1565b806311be1997146101c5578063204120bc1461020557806328d90e6e14610241575b5f5ffd5b3480156101d0575f5ffd5b506101eb60048036038101906101e69190612952565b6106b6565b6040516101fc959493929190612a5e565b60405180910390f35b348015610210575f5ffd5b5061022b60048036038101906102269190612ae0565b6107a6565b6040516102389190612b0b565b60405180910390f35b34801561024c575f5ffd5b5061026760048036038101906102629190612952565b6107bb565b6040516102779493929190612b24565b60405180910390f35b34801561028b575f5ffd5b506102a660048036038101906102a19190612b91565b610810565b6040516102b39190612bbc565b60405180910390f35b3480156102c7575f5ffd5b506102d061084b565b6040516102dd9190612b0b565b60405180910390f35b3480156102f1575f5ffd5b506102fa610851565b6040516103079190612c30565b60405180910390f35b61032a60048036038101906103259190612c49565b610875565b005b348015610337575f5ffd5b50610340610dae565b005b34801561034d575f5ffd5b5061036860048036038101906103639190612b91565b610dc0565b005b348015610375575f5ffd5b50610390600480360381019061038b9190612cb1565b610e17565b005b34801561039d575f5ffd5b506103a6610f79565b6040516103b39190612bbc565b60405180910390f35b3480156103c7575f5ffd5b506103e260048036038101906103dd9190612cef565b610f9e565b6040516103ef9190612dd3565b60405180910390f35b348015610403575f5ffd5b5061040c6110fa565b6040516104199190612dec565b60405180910390f35b34801561042d575f5ffd5b5061044860048036038101906104439190612e05565b61110f565b005b348015610455575f5ffd5b50610470600480360381019061046b9190612ae0565b611416565b60405161047d9190612dec565b60405180910390f35b348015610491575f5ffd5b506104ac60048036038101906104a79190612ae0565b611433565b005b3480156104b9575f5ffd5b506104c2611542565b005b3480156104cf575f5ffd5b506104ea60048036038101906104e59190612ae0565b611555565b005b3480156104f7575f5ffd5b50610500611731565b005b34801561050d575f5ffd5b5061052860048036038101906105239190612952565b611743565b005b348015610535575f5ffd5b5061053e611b89565b60405161054b9190612bbc565b60405180910390f35b34801561055f575f5ffd5b5061057a60048036038101906105759190612952565b611bb0565b60405161058f99989796959493929190612e78565b60405180910390f35b3480156105a3575f5ffd5b506105be60048036038101906105b99190612f03565b611c51565b005b3480156105cb575f5ffd5b506105e660048036038101906105e19190612fa2565b611d13565b005b3480156105f3575f5ffd5b506105fc612034565b6040516106099190612b0b565b60405180910390f35b34801561061d575f5ffd5b5061062661203b565b60405161063391906130a7565b60405180910390f35b348015610647575f5ffd5b50610662600480360381019061065d9190612ae0565b6120c6565b005b34801561066f575f5ffd5b5061068a60048036038101906106859190612ae0565b61217f565b005b348015610697575f5ffd5b506106a0612203565b6040516106ad9190612b0b565b60405180910390f35b6006602052805f5260405f205f91509050805f015f9054906101000a900473ffffffffffffffffffffffffffffffffffffffff1690806001015490806002018054610700906130f4565b80601f016020809104026020016040519081016040528092919081815260200182805461072c906130f4565b80156107775780601f1061074e57610100808354040283529160200191610777565b820191905f5260205f20905b81548152906001019060200180831161075a57829003601f168201915b505050505090806003015f9054906101000a900460ff16908060030160019054906101000a900460ff16905085565b6009602052805f5260405f205f915090505481565b5f5f5f5f5f60055f8781526020019081526020015f20905080600101548160020154826006015f9054906101000a900460ff168360060160019054906101000a900460ff169450945094509450509193509193565b6004818154811061081f575f80fd5b905f5260205f20015f915054906101000a900473ffffffffffffffffffffffffffffffffffffffff1681565b60075481565b7f000000000000000000000000000000000000000000000000000000000000000081565b61087d61220a565b610885612250565b5f60055f8481526020019081526020015f2090505f5f1b815f0154036108d7576040517f1b2c5e8900000000000000000000000000000000000000000000000000000000815260040160405180910390fd5b8060050154421115610915576040517f5d9f446000000000000000000000000000000000000000000000000000000000815260040160405180910390fd5b8060060160019054906101000a900460ff161561095e576040517f7c9d2ba700000000000000000000000000000000000000000000000000000000815260040160405180910390fd5b5f73ffffffffffffffffffffffffffffffffffffffff16816008015f3373ffffffffffffffffffffffffffffffffffffffff1673ffffffffffffffffffffffffffffffffffffffff1681526020019081526020015f205f015f9054906101000a900473ffffffffffffffffffffffffffffffffffffffff1673ffffffffffffffffffffffffffffffffffffffff1614610a23576040517f91601d9b00000000000000000000000000000000000000000000000000000000815260040160405180910390fd5b5f816003015f9054906101000a900473ffffffffffffffffffffffffffffffffffffffff1690505f5f73ffffffffffffffffffffffffffffffffffffffff168273ffffffffffffffffffffffffffffffffffffffff1603610abf57349050838114610aba576040517fcd1c886700000000000000000000000000000000000000000000000000000000815260040160405180910390fd5b610b2a565b5f341115610af9576040517fcd1c886700000000000000000000000000000000000000000000000000000000815260040160405180910390fd5b839050610b293330838573ffffffffffffffffffffffffffffffffffffffff16612291909392919063ffffffff16565b5b6040518060c001604052803373ffffffffffffffffffffffffffffffffffffffff1681526020018281526020018373ffffffffffffffffffffffffffffffffffffffff1681526020014281526020015f151581526020015f1515815250836008015f3373ffffffffffffffffffffffffffffffffffffffff1673ffffffffffffffffffffffffffffffffffffffff1681526020019081526020015f205f820151815f015f6101000a81548173ffffffffffffffffffffffffffffffffffffffff021916908373ffffffffffffffffffffffffffffffffffffffff160217905550602082015181600101556040820151816002015f6101000a81548173ffffffffffffffffffffffffffffffffffffffff021916908373ffffffffffffffffffffffffffffffffffffffff160217905550606082015181600301556080820151816004015f6101000a81548160ff02191690831515021790555060a08201518160040160016101000a81548160ff0219169083151502179055509050508260090133908060018154018082558091505060019003905f5260205f20015f9091909190916101000a81548173ffffffffffffffffffffffffffffffffffffffff021916908373ffffffffffffffffffffffffffffffffffffffff16021790555080836001015f828254610d1b9190613151565b925050819055508260020154836001015410610d4e576001836006015f6101000a81548160ff0219169083151502179055505b3373ffffffffffffffffffffffffffffffffffffffff16857fcee8afe1025da91123ee4e2c3f3f3f9a82c68fdc580e05cca3b7db2732de821e8385604051610d97929190613184565b60405180910390a3505050610daa612313565b5050565b610db661231c565b610dbe6123a3565b565b610dc861231c565b6103e8811115610e0d576040517f08c379a0000000000000000000000000000000000000000000000000000000008152600401610e04906131f5565b60405180910390fd5b8060078190555050565b610e1f61231c565b5f60055f8481526020019081526020015f2090505f60065f8581526020019081526020015f2090508160060160019054906101000a900460ff16610e8f576040517f7c9d2ba700000000000000000000000000000000000000000000000000000000815260040160405180910390fd5b806003015f9054906101000a900460ff1615610ed7576040517f7c9d2ba700000000000000000000000000000000000000000000000000000000815260040160405180910390fd5b6001816003015f6101000a81548160ff021916908315150217905550828160030160016101000a81548160ff0219169083151502179055505f8260060160016101000a81548160ff0219169083151502179055508215610f3b57610f3a84612404565b5b837f6309d9f2499864a4f9d4ddb22f2b493afde8c215a1cd2e178647596cffe2efa484604051610f6b9190612dec565b60405180910390a250505050565b60085f9054906101000a900473ffffffffffffffffffffffffffffffffffffffff1681565b610fa66128b7565b60055f8481526020019081526020015f206008015f8373ffffffffffffffffffffffffffffffffffffffff1673ffffffffffffffffffffffffffffffffffffffff1681526020019081526020015f206040518060c00160405290815f82015f9054906101000a900473ffffffffffffffffffffffffffffffffffffffff1673ffffffffffffffffffffffffffffffffffffffff1673ffffffffffffffffffffffffffffffffffffffff16815260200160018201548152602001600282015f9054906101000a900473ffffffffffffffffffffffffffffffffffffffff1673ffffffffffffffffffffffffffffffffffffffff1673ffffffffffffffffffffffffffffffffffffffff16815260200160038201548152602001600482015f9054906101000a900460ff161515151581526020016004820160019054906101000a900460ff161515151581525050905092915050565b5f60025f9054906101000a900460ff16905090565b61111761220a565b61111f612250565b5f5f1b840361115a576040517f1b2c5e8900000000000000000000000000000000000000000000000000000000815260040160405180910390fd5b7f000000000000000000000000000000000000000000000000000000000000000073ffffffffffffffffffffffffffffffffffffffff1663d10f57e2856040518263ffffffff1660e01b81526004016111b39190613213565b602060405180830381865afa1580156111ce573d5f5f3e3d5ffd5b505050506040513d601f19601f820116820180604052508101906111f29190613240565b611228576040517f692dee5500000000000000000000000000000000000000000000000000000000815260040160405180910390fd5b60035f8373ffffffffffffffffffffffffffffffffffffffff1673ffffffffffffffffffffffffffffffffffffffff1681526020019081526020015f205f9054906101000a900460ff166112a8576040517fc1ab6dc100000000000000000000000000000000000000000000000000000000815260040160405180910390fd5b5f5f1b60055f8681526020019081526020015f205f0154146112f6576040517f91601d9b00000000000000000000000000000000000000000000000000000000815260040160405180910390fd5b5f60055f8681526020019081526020015f20905084815f018190555083816002018190555082816003015f6101000a81548173ffffffffffffffffffffffffffffffffffffffff021916908373ffffffffffffffffffffffffffffffffffffffff16021790555081816004015f6101000a81548173ffffffffffffffffffffffffffffffffffffffff021916908373ffffffffffffffffffffffffffffffffffffffff16021790555062093a80426113ae9190613151565b81600501819055508173ffffffffffffffffffffffffffffffffffffffff16857fcee8afe1025da91123ee4e2c3f3f3f9a82c68fdc580e05cca3b7db2732de821e86866040516113ff929190613184565b60405180910390a350611410612313565b50505050565b6003602052805f5260405f205f915054906101000a900460ff1681565b61143b61231c565b60035f8273ffffffffffffffffffffffffffffffffffffffff1673ffffffffffffffffffffffffffffffffffffffff1681526020019081526020015f205f9054906101000a900460ff1661153f57600160035f8373ffffffffffffffffffffffffffffffffffffffff1673ffffffffffffffffffffffffffffffffffffffff1681526020019081526020015f205f6101000a81548160ff021916908315150217905550600481908060018154018082558091505060019003905f5260205f20015f9091909190916101000a81548173ffffffffffffffffffffffffffffffffffffffff021916908373ffffffffffffffffffffffffffffffffffffffff1602179055505b50565b61154a61231c565b6115535f612633565b565b61155d61231c565b5f60035f8373ffffffffffffffffffffffffffffffffffffffff1673ffffffffffffffffffffffffffffffffffffffff1681526020019081526020015f205f6101000a81548160ff0219169083151502179055505f5f90505b60048054905081101561172d578173ffffffffffffffffffffffffffffffffffffffff16600482815481106115ee576115ed61326b565b5b905f5260205f20015f9054906101000a900473ffffffffffffffffffffffffffffffffffffffff1673ffffffffffffffffffffffffffffffffffffffff160361172057600460016004805490506116459190613298565b815481106116565761165561326b565b5b905f5260205f20015f9054906101000a900473ffffffffffffffffffffffffffffffffffffffff16600482815481106116925761169161326b565b5b905f5260205f20015f6101000a81548173ffffffffffffffffffffffffffffffffffffffff021916908373ffffffffffffffffffffffffffffffffffffffff16021790555060048054806116e9576116e86132cb565b5b600190038181905f5260205f20015f6101000a81549073ffffffffffffffffffffffffffffffffffffffff0219169055905561172d565b80806001019150506115b6565b5050565b61173961231c565b6117416126f4565b565b61174b61220a565b611753612250565b5f60055f8381526020019081526020015f2090505f5f1b815f0154036117a5576040517f1b2c5e8900000000000000000000000000000000000000000000000000000000815260040160405180910390fd5b806006015f9054906101000a900460ff166117ec576040517fcd1c886700000000000000000000000000000000000000000000000000000000815260040160405180910390fd5b8060060160019054906101000a900460ff16801561180e575080600701544211155b15611845576040517f7c9d2ba700000000000000000000000000000000000000000000000000000000815260040160405180910390fd5b5f816001015490505f826003015f9054906101000a900473ffffffffffffffffffffffffffffffffffffffff1690505f836004015f9054906101000a900473ffffffffffffffffffffffffffffffffffffffff1690505f612710600754856118ad91906132f8565b6118b79190613366565b90505f81856118c69190613298565b90505f73ffffffffffffffffffffffffffffffffffffffff168473ffffffffffffffffffffffffffffffffffffffff16036119b2578273ffffffffffffffffffffffffffffffffffffffff166108fc8290811502906040515f60405180830381858888f1935050505015801561193e573d5f5f3e3d5ffd5b505f8211156119ad5760085f9054906101000a900473ffffffffffffffffffffffffffffffffffffffff1673ffffffffffffffffffffffffffffffffffffffff166108fc8390811502906040515f60405180830381858888f193505050501580156119ab573d5f5f3e3d5ffd5b505b611a33565b6119dd83828673ffffffffffffffffffffffffffffffffffffffff166127569092919063ffffffff16565b5f821115611a3257611a3160085f9054906101000a900473ffffffffffffffffffffffffffffffffffffffff16838673ffffffffffffffffffffffffffffffffffffffff166127569092919063ffffffff16565b5b5b5f5f90505b8660090180549050811015611af0575f876009018281548110611a5e57611a5d61326b565b5b905f5260205f20015f9054906101000a900473ffffffffffffffffffffffffffffffffffffffff1690506001886008015f8373ffffffffffffffffffffffffffffffffffffffff1673ffffffffffffffffffffffffffffffffffffffff1681526020019081526020015f206004015f6101000a81548160ff021916908315150217905550508080600101915050611a38565b508273ffffffffffffffffffffffffffffffffffffffff16877f845efd98250c08a998e4600579be509838a033945b74ec80268f560bc71a28fb83604051611b389190612b0b565b60405180910390a3867f9410e7c5b50451e4b5bd5ce113fd48abebd7070eb9d080df08b115b7cdc4165086604051611b709190612b0b565b60405180910390a2505050505050611b86612313565b50565b5f5f5f9054906101000a900473ffffffffffffffffffffffffffffffffffffffff16905090565b6005602052805f5260405f205f91509050805f015490806001015490806002015490806003015f9054906101000a900473ffffffffffffffffffffffffffffffffffffffff1690806004015f9054906101000a900473ffffffffffffffffffffffffffffffffffffffff1690806005015490806006015f9054906101000a900460ff16908060060160019054906101000a900460ff16908060070154905089565b611c5961231c565b5f73ffffffffffffffffffffffffffffffffffffffff168273ffffffffffffffffffffffffffffffffffffffff1603611cdc57611c94611b89565b73ffffffffffffffffffffffffffffffffffffffff166108fc8290811502906040515f60405180830381858888f19350505050158015611cd6573d5f5f3e3d5ffd5b50611d0f565b611d0e611ce7611b89565b828473ffffffffffffffffffffffffffffffffffffffff166127569092919063ffffffff16565b5b5050565b611d1b612250565b5f60055f8581526020019081526020015f2090505f5f1b815f015403611d6d576040517f1b2c5e8900000000000000000000000000000000000000000000000000000000815260040160405180910390fd5b5f73ffffffffffffffffffffffffffffffffffffffff16816008015f3373ffffffffffffffffffffffffffffffffffffffff1673ffffffffffffffffffffffffffffffffffffffff1681526020019081526020015f205f015f9054906101000a900473ffffffffffffffffffffffffffffffffffffffff1673ffffffffffffffffffffffffffffffffffffffff1603611e32576040517f344fd58600000000000000000000000000000000000000000000000000000000815260040160405180910390fd5b8060060160019054906101000a900460ff1615611e7b576040517f7c9d2ba700000000000000000000000000000000000000000000000000000000815260040160405180910390fd5b60018160060160016101000a81548160ff0219169083151502179055506203f48042611ea79190613151565b81600701819055506040518060a001604052803373ffffffffffffffffffffffffffffffffffffffff16815260200142815260200184848080601f0160208091040260200160405190810160405280939291908181526020018383808284375f81840152601f19601f8201169050808301925050505050505081526020015f151581526020015f151581525060065f8681526020019081526020015f205f820151815f015f6101000a81548173ffffffffffffffffffffffffffffffffffffffff021916908373ffffffffffffffffffffffffffffffffffffffff160217905550602082015181600101556040820151816002019081611fa7919061355a565b506060820151816003015f6101000a81548160ff02191690831515021790555060808201518160030160016101000a81548160ff0219169083151502179055509050503373ffffffffffffffffffffffffffffffffffffffff16847fa71ec46ab116e07f9703467558af33f82718419b32e2acafa86c65587891e3cc60405160405180910390a350505050565b62093a8081565b606060048054806020026020016040519081016040528092919081815260200182805480156120bc57602002820191905f5260205f20905b815f9054906101000a900473ffffffffffffffffffffffffffffffffffffffff1673ffffffffffffffffffffffffffffffffffffffff1681526020019060010190808311612073575b5050505050905090565b6120ce61231c565b5f73ffffffffffffffffffffffffffffffffffffffff168173ffffffffffffffffffffffffffffffffffffffff160361213c576040517f08c379a000000000000000000000000000000000000000000000000000000000815260040161213390613673565b60405180910390fd5b8060085f6101000a81548173ffffffffffffffffffffffffffffffffffffffff021916908373ffffffffffffffffffffffffffffffffffffffff16021790555050565b61218761231c565b5f73ffffffffffffffffffffffffffffffffffffffff168173ffffffffffffffffffffffffffffffffffffffff16036121f7575f6040517f1e4fbdf70000000000000000000000000000000000000000000000000000000081526004016121ee9190612bbc565b60405180910390fd5b61220081612633565b50565b6203f48081565b600260015403612246576040517f3ee5aeb500000000000000000000000000000000000000000000000000000000815260040160405180910390fd5b6002600181905550565b6122586110fa565b1561228f576040517fd93c066500000000000000000000000000000000000000000000000000000000815260040160405180910390fd5b565b61230d848573ffffffffffffffffffffffffffffffffffffffff166323b872dd8686866040516024016122c693929190613691565b604051602081830303815290604052915060e01b6020820180517bffffffffffffffffffffffffffffffffffffffffffffffffffffffff83818316178352505050506127d5565b50505050565b60018081905550565b612324612870565b73ffffffffffffffffffffffffffffffffffffffff16612342611b89565b73ffffffffffffffffffffffffffffffffffffffff16146123a157612365612870565b6040517f118cdaa70000000000000000000000000000000000000000000000000000000081526004016123989190612bbc565b60405180910390fd5b565b6123ab612877565b5f60025f6101000a81548160ff0219169083151502179055507f5db9ee0a495bf2e6ff9c91a7834c1ba4fdd244a5e8aa4e537bd38aeae4b073aa6123ed612870565b6040516123fa9190612bbc565b60405180910390a1565b5f60055f8381526020019081526020015f2090505f816003015f9054906101000a900473ffffffffffffffffffffffffffffffffffffffff1690505f5f90505b826009018054905081101561262d575f83600901828154811061246a5761246961326b565b5b905f5260205f20015f9054906101000a900473ffffffffffffffffffffffffffffffffffffffff1690505f846008015f8373ffffffffffffffffffffffffffffffffffffffff1673ffffffffffffffffffffffffffffffffffffffff1681526020019081526020015f2090508060040160019054906101000a900460ff161580156124f857505f8160010154115b1561261e5760018160040160016101000a81548160ff0219169083151502179055505f73ffffffffffffffffffffffffffffffffffffffff168473ffffffffffffffffffffffffffffffffffffffff160361259a578173ffffffffffffffffffffffffffffffffffffffff166108fc826001015490811502906040515f60405180830381858888f19350505050158015612594573d5f5f3e3d5ffd5b506125ca565b6125c98282600101548673ffffffffffffffffffffffffffffffffffffffff166127569092919063ffffffff16565b5b8173ffffffffffffffffffffffffffffffffffffffff16867ff8590cd6b8c44be7a2bc57131f10e203ec5f7d7f2f761e1508a8cc964ecb9eb783600101546040516126159190612b0b565b60405180910390a35b50508080600101915050612444565b50505050565b5f5f5f9054906101000a900473ffffffffffffffffffffffffffffffffffffffff169050815f5f6101000a81548173ffffffffffffffffffffffffffffffffffffffff021916908373ffffffffffffffffffffffffffffffffffffffff1602179055508173ffffffffffffffffffffffffffffffffffffffff168173ffffffffffffffffffffffffffffffffffffffff167f8be0079c531659141344cd1fd0a4f28419497f9722a3daafe3b4186f6b6457e060405160405180910390a35050565b6126fc612250565b600160025f6101000a81548160ff0219169083151502179055507f62e78cea01bee320cd4e420270b5ea74000d11b0c9f74754ebdbfc544b05a25861273f612870565b60405161274c9190612bbc565b60405180910390a1565b6127d0838473ffffffffffffffffffffffffffffffffffffffff1663a9059cbb85856040516024016127899291906136c6565b604051602081830303815290604052915060e01b6020820180517bffffffffffffffffffffffffffffffffffffffffffffffffffffffff83818316178352505050506127d5565b505050565b5f5f60205f8451602086015f885af1806127f4576040513d5f823e3d81fd5b3d92505f519150505f821461280d576001811415612828565b5f8473ffffffffffffffffffffffffffffffffffffffff163b145b1561286a57836040517f5274afe70000000000000000000000000000000000000000000000000000000081526004016128619190612bbc565b60405180910390fd5b50505050565b5f33905090565b61287f6110fa565b6128b5576040517f8dfc202b00000000000000000000000000000000000000000000000000000000815260040160405180910390fd5b565b6040518060c001604052805f73ffffffffffffffffffffffffffffffffffffffff1681526020015f81526020015f73ffffffffffffffffffffffffffffffffffffffff1681526020015f81526020015f151581526020015f151581525090565b5f5ffd5b5f5ffd5b5f819050919050565b6129318161291f565b811461293b575f5ffd5b50565b5f8135905061294c81612928565b92915050565b5f6020828403121561296757612966612917565b5b5f6129748482850161293e565b91505092915050565b5f73ffffffffffffffffffffffffffffffffffffffff82169050919050565b5f6129a68261297d565b9050919050565b6129b68161299c565b82525050565b5f819050919050565b6129ce816129bc565b82525050565b5f81519050919050565b5f82825260208201905092915050565b8281835e5f83830152505050565b5f601f19601f8301169050919050565b5f612a16826129d4565b612a2081856129de565b9350612a308185602086016129ee565b612a39816129fc565b840191505092915050565b5f8115159050919050565b612a5881612a44565b82525050565b5f60a082019050612a715f8301886129ad565b612a7e60208301876129c5565b8181036040830152612a908186612a0c565b9050612a9f6060830185612a4f565b612aac6080830184612a4f565b9695505050505050565b612abf8161299c565b8114612ac9575f5ffd5b50565b5f81359050612ada81612ab6565b92915050565b5f60208284031215612af557612af4612917565b5b5f612b0284828501612acc565b91505092915050565b5f602082019050612b1e5f8301846129c5565b92915050565b5f608082019050612b375f8301876129c5565b612b4460208301866129c5565b612b516040830185612a4f565b612b5e6060830184612a4f565b95945050505050565b612b70816129bc565b8114612b7a575f5ffd5b50565b5f81359050612b8b81612b67565b92915050565b5f60208284031215612ba657612ba5612917565b5b5f612bb384828501612b7d565b91505092915050565b5f602082019050612bcf5f8301846129ad565b92915050565b5f819050919050565b5f612bf8612bf3612bee8461297d565b612bd5565b61297d565b9050919050565b5f612c0982612bde565b9050919050565b5f612c1a82612bff565b9050919050565b612c2a81612c10565b82525050565b5f602082019050612c435f830184612c21565b92915050565b5f5f60408385031215612c5f57612c5e612917565b5b5f612c6c8582860161293e565b9250506020612c7d85828601612b7d565b9150509250929050565b612c9081612a44565b8114612c9a575f5ffd5b50565b5f81359050612cab81612c87565b92915050565b5f5f60408385031215612cc757612cc6612917565b5b5f612cd48582860161293e565b9250506020612ce585828601612c9d565b9150509250929050565b5f5f60408385031215612d0557612d04612917565b5b5f612d128582860161293e565b9250506020612d2385828601612acc565b9150509250929050565b612d368161299c565b82525050565b612d45816129bc565b82525050565b612d5481612a44565b82525050565b60c082015f820151612d6e5f850182612d2d565b506020820151612d816020850182612d3c565b506040820151612d946040850182612d2d565b506060820151612da76060850182612d3c565b506080820151612dba6080850182612d4b565b5060a0820151612dcd60a0850182612d4b565b50505050565b5f60c082019050612de65f830184612d5a565b92915050565b5f602082019050612dff5f830184612a4f565b92915050565b5f5f5f5f60808587031215612e1d57612e1c612917565b5b5f612e2a8782880161293e565b9450506020612e3b87828801612b7d565b9350506040612e4c87828801612acc565b9250506060612e5d87828801612acc565b91505092959194509250565b612e728161291f565b82525050565b5f61012082019050612e8c5f83018c612e69565b612e99602083018b6129c5565b612ea6604083018a6129c5565b612eb360608301896129ad565b612ec060808301886129ad565b612ecd60a08301876129c5565b612eda60c0830186612a4f565b612ee760e0830185612a4f565b612ef56101008301846129c5565b9a9950505050505050505050565b5f5f60408385031215612f1957612f18612917565b5b5f612f2685828601612acc565b9250506020612f3785828601612b7d565b9150509250929050565b5f5ffd5b5f5ffd5b5f5ffd5b5f5f83601f840112612f6257612f61612f41565b5b8235905067ffffffffffffffff811115612f7f57612f7e612f45565b5b602083019150836001820283011115612f9b57612f9a612f49565b5b9250929050565b5f5f5f60408486031215612fb957612fb8612917565b5b5f612fc68682870161293e565b935050602084013567ffffffffffffffff811115612fe757612fe661291b565b5b612ff386828701612f4d565b92509250509250925092565b5f81519050919050565b5f82825260208201905092915050565b5f819050602082019050919050565b5f6130338383612d2d565b60208301905092915050565b5f602082019050919050565b5f61305582612fff565b61305f8185613009565b935061306a83613019565b805f5b8381101561309a5781516130818882613028565b975061308c8361303f565b92505060018101905061306d565b5085935050505092915050565b5f6020820190508181035f8301526130bf818461304b565b905092915050565b7f4e487b71000000000000000000000000000000000000000000000000000000005f52602260045260245ffd5b5f600282049050600182168061310b57607f821691505b60208210810361311e5761311d6130c7565b5b50919050565b7f4e487b71000000000000000000000000000000000000000000000000000000005f52601160045260245ffd5b5f61315b826129bc565b9150613166836129bc565b925082820190508082111561317e5761317d613124565b5b92915050565b5f6040820190506131975f8301856129c5565b6131a460208301846129ad565b9392505050565b7f46656520746f6f206869676800000000000000000000000000000000000000005f82015250565b5f6131df600c836129de565b91506131ea826131ab565b602082019050919050565b5f6020820190508181035f83015261320c816131d3565b9050919050565b5f6020820190506132265f830184612e69565b92915050565b5f8151905061323a81612c87565b92915050565b5f6020828403121561325557613254612917565b5b5f6132628482850161322c565b91505092915050565b7f4e487b71000000000000000000000000000000000000000000000000000000005f52603260045260245ffd5b5f6132a2826129bc565b91506132ad836129bc565b92508282039050818111156132c5576132c4613124565b5b92915050565b7f4e487b71000000000000000000000000000000000000000000000000000000005f52603160045260245ffd5b5f613302826129bc565b915061330d836129bc565b925082820261331b816129bc565b9150828204841483151761333257613331613124565b5b5092915050565b7f4e487b71000000000000000000000000000000000000000000000000000000005f52601260045260245ffd5b5f613370826129bc565b915061337b836129bc565b92508261338b5761338a613339565b5b828204905092915050565b7f4e487b71000000000000000000000000000000000000000000000000000000005f52604160045260245ffd5b5f819050815f5260205f209050919050565b5f6020601f8301049050919050565b5f82821b905092915050565b5f6008830261341f7fffffffffffffffffffffffffffffffffffffffffffffffffffffffffffffffff826133e4565b61342986836133e4565b95508019841693508086168417925050509392505050565b5f61345b613456613451846129bc565b612bd5565b6129bc565b9050919050565b5f819050919050565b61347483613441565b61348861348082613462565b8484546133f0565b825550505050565b5f5f905090565b61349f613490565b6134aa81848461346b565b505050565b5b818110156134cd576134c25f82613497565b6001810190506134b0565b5050565b601f821115613512576134e3816133c3565b6134ec846133d5565b810160208510156134fb578190505b61350f613507856133d5565b8301826134af565b50505b505050565b5f82821c905092915050565b5f6135325f1984600802613517565b1980831691505092915050565b5f61354a8383613523565b9150826002028217905092915050565b613563826129d4565b67ffffffffffffffff81111561357c5761357b613396565b5b61358682546130f4565b6135918282856134d1565b5f60209050601f8311600181146135c2575f84156135b0578287015190505b6135ba858261353f565b865550613621565b601f1984166135d0866133c3565b5f5b828110156135f7578489015182556001820191506020850194506020810190506135d2565b868310156136145784890151613610601f891682613523565b8355505b6001600288020188555050505b505050505050565b7f496e76616c6964206164647265737300000000000000000000000000000000005f82015250565b5f61365d600f836129de565b915061366882613629565b602082019050919050565b5f6020820190508181035f83015261368a81613651565b9050919050565b5f6060820190506136a45f8301866129ad565b6136b160208301856129ad565b6136be60408301846129c5565b949350505050565b5f6040820190506136d95f8301856129ad565b6136e660208301846129c5565b939250505056fea26469706673582212204c488b3013e0ee5733260a88b7b9319def06713586adde223035a3ead7d5197a64736f6c634300081d0033","linkReferences":{}},"methodIdentifiers":{"DISPUTE_WINDOW()":"f585dc57","PAYMENT_WINDOW()":"c6c48962","addSupportedToken(address)":"6d69fcaf","billPayments(bytes32)":"8fff905b","disputes(bytes32)":"11be1997","emergencyWithdraw(address,uint256)":"95ccea67","feeRecipient()":"46904840","getBillSummary(bytes32)":"28d90e6e","getMemberPayment(bytes32,address)":"4a8e2969","getSupportedTokens()":"d3c7c2c7","initializeBillPayment(bytes32,uint256,address,address)":"65c20660","makePayment(bytes32,uint256)":"3d1b418d","merkleVerifier()":"39505737","owner()":"8da5cb5b","pause()":"8456cb59","paused()":"5c975abb","protocolFeeBps()":"35659fb8","raiseDispute(bytes32,string)":"be7b8a77","removeSupportedToken(address)":"76319190","renounceOwnership()":"715018a6","resolveDispute(bytes32,bool)":"43a0e3e6","settlePayments(bytes32)":"86607cb7","supportedTokenList(uint256)":"2b60c822","supportedTokens(address)":"68c4ac26","tokenPrices(address)":"204120bc","transferOwnership(address)":"f2fde38b","unpause()":"3f4ba83a","updateFeeRecipient(address)":"f160d369","updateProtocolFee(uint256)":"4256dd78"},"id":54}