{"abi":[{"type":"constructor","inputs":[{"name":"_gateway","type":"address","internalType":"address"},{"name":"_gasService","type":"address","internalType":"address"}],"stateMutability":"nonpayable"},{"type":"function","name":"BILL_SYNCHRONIZATION","inputs":[],"outputs":[{"name":"","type":"bytes32","internalType":"bytes32"}],"stateMutability":"view"},{"type":"function","name":"CROSS_CHAIN_PAYMENT","inputs":[],"outputs":[{"name":"","type":"bytes32","internalType":"bytes32"}],"stateMutability":"view"},{"type":"function","name":"SETTLEMENT_CONFIRMATION","inputs":[],"outputs":[{"name":"","type":"bytes32","internalType":"bytes32"}],"stateMutability":"view"},{"type":"function","name":"addSupportedChain","inputs":[{"name":"chainName","type":"string","internalType":"string"}],"outputs":[],"stateMutability":"nonpayable"},{"type":"function","name":"createCrossChainBill","inputs":[{"name":"billId","type":"bytes32","internalType":"bytes32"},{"name":"totalAmount","type":"uint256","internalType":"uint256"},{"name":"symbol","type":"string","internalType":"string"},{"name":"participatingChains","type":"string[]","internalType":"string[]"},{"name":"chainAmounts","type":"uint256[]","internalType":"uint256[]"}],"outputs":[],"stateMutability":"nonpayable"},{"type":"function","name":"crossChainBills","inputs":[{"name":"","type":"bytes32","internalType":"bytes32"}],"outputs":[{"name":"billId","type":"bytes32","internalType":"bytes32"},{"name":"creator","type":"address","internalType":"address"},{"name":"totalAmount","type":"uint256","internalType":"uint256"},{"name":"symbol","type":"string","internalType":"string"},{"name":"fullySettled","type":"bool","internalType":"bool"},{"name":"createdAt","type":"uint256","internalType":"uint256"}],"stateMutability":"view"},{"type":"function","name":"execute","inputs":[{"name":"commandId","type":"bytes32","internalType":"bytes32"},{"name":"sourceChain","type":"string","internalType":"string"},{"name":"sourceAddress","type":"string","internalType":"string"},{"name":"payload","type":"bytes","internalType":"bytes"}],"outputs":[],"stateMutability":"nonpayable"},{"type":"function","name":"executeWithToken","inputs":[{"name":"commandId","type":"bytes32","internalType":"bytes32"},{"name":"sourceChain","type":"string","internalType":"string"},{"name":"sourceAddress","type":"string","internalType":"string"},{"name":"payload","type":"bytes","internalType":"bytes"},{"name":"tokenSymbol","type":"string","internalType":"string"},{"name":"amount","type":"uint256","internalType":"uint256"}],"outputs":[],"stateMutability":"nonpayable"},{"type":"function","name":"gasService","inputs":[],"outputs":[{"name":"","type":"address","internalType":"contract IAxelarGasService"}],"stateMutability":"view"},{"type":"function","name":"gateway","inputs":[],"outputs":[{"name":"","type":"address","internalType":"contract IAxelarGateway"}],"stateMutability":"view"},{"type":"function","name":"getPendingPayments","inputs":[{"name":"billId","type":"bytes32","internalType":"bytes32"}],"outputs":[{"name":"payments","type":"tuple[]","internalType":"struct CrossChainBridge.PendingPayment[]","components":[{"name":"billId","type":"bytes32","internalType":"bytes32"},{"name":"payer","type":"address","internalType":"address"},{"name":"amount","type":"uint256","internalType":"uint256"},{"name":"symbol","type":"string","internalType":"string"},{"name":"sourceChain","type":"string","internalType":"string"},{"name":"timestamp","type":"uint256","internalType":"uint256"},{"name":"processed","type":"bool","internalType":"bool"}]}],"stateMutability":"view"},{"type":"function","name":"getSupportedChains","inputs":[],"outputs":[{"name":"chains","type":"string[]","internalType":"string[]"}],"stateMutability":"view"},{"type":"function","name":"makeCrossChainPayment","inputs":[{"name":"billId","type":"bytes32","internalType":"bytes32"},{"name":"destinationChain","type":"string","internalType":"string"},{"name":"destinationAddress","type":"address","internalType":"address"},{"name":"amount","type":"uint256","internalType":"uint256"},{"name":"symbol","type":"string","internalType":"string"}],"outputs":[],"stateMutability":"payable"},{"type":"function","name":"owner","inputs":[],"outputs":[{"name":"","type":"address","internalType":"address"}],"stateMutability":"view"},{"type":"function","name":"pause","inputs":[],"outputs":[],"stateMutability":"nonpayable"},{"type":"function","name":"paused","inputs":[],"outputs":[{"name":"","type":"bool","internalType":"bool"}],"stateMutability":"view"},{"type":"function","name":"pendingPayments","inputs":[{"name":"","type":"bytes32","internalType":"bytes32"},{"name":"","type":"uint256","internalType":"uint256"}],"outputs":[{"name":"billId","type":"bytes32","internalType":"bytes32"},{"name":"payer","type":"address","internalType":"address"},{"name":"amount","type":"uint256","internalType":"uint256"},{"name":"symbol","type":"string","internalType":"string"},{"name":"sourceChain","type":"string","internalType":"string"},{"name":"timestamp","type":"uint256","internalType":"uint256"},{"name":"processed","type":"bool","internalType":"bool"}],"stateMutability":"view"},{"type":"function","name":"renounceOwnership","inputs":[],"outputs":[],"stateMutability":"nonpayable"},{"type":"function","name":"sendTokenCrossChain","inputs":[{"name":"billId","type":"bytes32","internalType":"bytes32"},{"name":"destinationChain","type":"string","internalType":"string"},{"name":"destinationAddress","type":"address","internalType":"address"},{"name":"amount","type":"uint256","internalType":"uint256"},{"name":"symbol","type":"string","internalType":"string"}],"outputs":[],"stateMutability":"payable"},{"type":"function","name":"setTrustedRemote","inputs":[{"name":"chainName","type":"string","internalType":"string"},{"name":"remoteAddress","type":"address","internalType":"address"}],"outputs":[],"stateMutability":"nonpayable"},{"type":"function","name":"supportedChains","inputs":[{"name":"","type":"string","internalType":"string"}],"outputs":[{"name":"","type":"bool","internalType":"bool"}],"stateMutability":"view"},{"type":"function","name":"supportedChainsList","inputs":[{"name":"","type":"uint256","internalType":"uint256"}],"outputs":[{"name":"","type":"string","internalType":"string"}],"stateMutability":"view"},{"type":"function","name":"transferOwnership","inputs":[{"name":"newOwner","type":"address","internalType":"address"}],"outputs":[],"stateMutability":"nonpayable"},{"type":"function","name":"trustedRemotes","inputs":[{"name":"","type":"string","internalType":"string"}],"outputs":[{"name":"","type":"address","internalType":"address"}],"stateMutability":"view"},{"type":"function","name":"unpause","inputs":[],"outputs":[],"stateMutability":"nonpayable"},{"type":"event","name":"BillSynchronized","inputs":[{"name":"billId","type":"bytes32","indexed":true,"internalType":"bytes32"},{"name":"chains","type":"string[]","indexed":false,"internalType":"string[]"}],"anonymous":false},{"type":"event","name":"CrossChainPaymentInitiated","inputs":[{"name":"billId","type":"bytes32","indexed":true,"internalType":"bytes32"},{"name":"destinationChain","type":"string","indexed":false,"internalType":"string"},{"name":"destinationAddress","type":"address","indexed":false,"internalType":"address"},{"name":"amount","type":"uint256","indexed":false,"internalType":"uint256"},{"name":"symbol","type":"string","indexed":false,"internalType":"string"}],"anonymous":false},{"type":"event","name":"CrossChainPaymentReceived","inputs":[{"name":"billId","type":"bytes32","indexed":true,"internalType":"bytes32"},{"name":"sourceChain","type":"string","indexed":false,"internalType":"string"},{"name":"sender","type":"address","indexed":false,"internalType":"address"},{"name":"amount","type":"uint256","indexed":false,"internalType":"uint256"},{"name":"symbol","type":"string","indexed":false,"internalType":"string"}],"anonymous":false},{"type":"event","name":"CrossChainRefundIssued","inputs":[{"name":"billId","type":"bytes32","indexed":true,"internalType":"bytes32"},{"name":"recipient","type":"address","indexed":false,"internalType":"address"},{"name":"amount","type":"uint256","indexed":false,"internalType":"uint256"}],"anonymous":false},{"type":"event","name":"OwnershipTransferred","inputs":[{"name":"previousOwner","type":"address","indexed":true,"internalType":"address"},{"name":"newOwner","type":"address","indexed":true,"internalType":"address"}],"anonymous":false},{"type":"event","name":"Paused","inputs":[{"name":"account","type":"address","indexed":false,"internalType":"address"}],"anonymous":false},{"type":"event","name":"Unpaused","inputs":[{"name":"account","type":"address","indexed":false,"internalType":"address"}],"anonymous":false},{"type":"error","name":"BillNotFound","inputs":[]},{"type":"error","name":"CrossChainOperationFailed","inputs":[]},{"type":"error","name":"EnforcedPause","inputs":[]},{"type":"error","name":"ExpectedPause","inputs":[]},{"type":"error","name":"InsufficientGasFee","inputs":[]},{"type":"error","name":"InvalidAddress","inputs":[]},{"type":"error","name":"InvalidAmount","inputs":[]},{"type":"error","name":"InvalidBillId","inputs":[]},{"type":"error","name":"InvalidChain","inputs":[]},{"type":"error","name":"NotApprovedByGateway","inputs":[]},{"type":"error","name":"OwnableInvalidOwner","inputs":[{"name":"owner","type":"address","internalType":"address"}]},{"type":"error","name":"OwnableUnauthorizedAccount","inputs":[{"name":"account","type":"address","internalType":"address"}]},{"type":"error","name":"ReentrancyGuardReentrantCall","inputs":[]},{"type":"error","name":"SafeERC20FailedOperation","inputs":[{"name":"token","type":"address","internalType":"address"}]},{"type":"error","name":"UnauthorizedSender","inputs":[]}],"bytecode":{"object":"0x60c060405234801561000f575f5ffd5b5060405161631e38038061631e83398181016040528101906100319190610417565b3382805f73ffffffffffffffffffffffffffffffffffffffff168173ffffffffffffffffffffffffffffffffffffffff1603610099576040517fe6c4247b00000000000000000000000000000000000000000000000000000000815260040160405180910390fd5b8073ffffffffffffffffffffffffffffffffffffffff1660808173ffffffffffffffffffffffffffffffffffffffff168152505050505f73ffffffffffffffffffffffffffffffffffffffff168173ffffffffffffffffffffffffffffffffffffffff160361013f575f6040517f1e4fbdf70000000000000000000000000000000000000000000000000000000081526004016101369190610464565b60405180910390fd5b61014e8161025d60201b60201c565b50600180819055508073ffffffffffffffffffffffffffffffffffffffff1660a08173ffffffffffffffffffffffffffffffffffffffff16815250506101ce6040518060400160405280601081526020017f657468657265756d2d7365706f6c69610000000000000000000000000000000081525061031e60201b60201c565b6102126040518060400160405280600e81526020017f706f6c79676f6e2d6d756d62616900000000000000000000000000000000000081525061031e60201b60201c565b6102566040518060400160405280600f81526020017f617262697472756d2d676f65726c69000000000000000000000000000000000081525061031e60201b60201c565b50506107e7565b5f5f5f9054906101000a900473ffffffffffffffffffffffffffffffffffffffff169050815f5f6101000a81548173ffffffffffffffffffffffffffffffffffffffff021916908373ffffffffffffffffffffffffffffffffffffffff1602179055508173ffffffffffffffffffffffffffffffffffffffff168173ffffffffffffffffffffffffffffffffffffffff167f8be0079c531659141344cd1fd0a4f28419497f9722a3daafe3b4186f6b6457e060405160405180910390a35050565b60058160405161032e91906104cf565b90815260200160405180910390205f9054906101000a900460ff166103b657600160058260405161035f91906104cf565b90815260200160405180910390205f6101000a81548160ff021916908315150217905550600781908060018154018082558091505060019003905f5260205f20015f9091909190915090816103b49190610718565b505b50565b5f5ffd5b5f73ffffffffffffffffffffffffffffffffffffffff82169050919050565b5f6103e6826103bd565b9050919050565b6103f6816103dc565b8114610400575f5ffd5b50565b5f81519050610411816103ed565b92915050565b5f5f6040838503121561042d5761042c6103b9565b5b5f61043a85828601610403565b925050602061044b85828601610403565b9150509250929050565b61045e816103dc565b82525050565b5f6020820190506104775f830184610455565b92915050565b5f81519050919050565b5f81905092915050565b8281835e5f83830152505050565b5f6104a98261047d565b6104b38185610487565b93506104c3818560208601610491565b80840191505092915050565b5f6104da828461049f565b915081905092915050565b7f4e487b71000000000000000000000000000000000000000000000000000000005f52604160045260245ffd5b7f4e487b71000000000000000000000000000000000000000000000000000000005f52602260045260245ffd5b5f600282049050600182168061055657607f821691505b60208210810361056957610568610512565b5b50919050565b5f819050815f5260205f209050919050565b5f6020601f8301049050919050565b5f82821b905092915050565b5f600883026105cb7fffffffffffffffffffffffffffffffffffffffffffffffffffffffffffffffff82610590565b6105d58683610590565b95508019841693508086168417925050509392505050565b5f819050919050565b5f819050919050565b5f61061961061461060f846105ed565b6105f6565b6105ed565b9050919050565b5f819050919050565b610632836105ff565b61064661063e82610620565b84845461059c565b825550505050565b5f5f905090565b61065d61064e565b610668818484610629565b505050565b5b8181101561068b576106805f82610655565b60018101905061066e565b5050565b601f8211156106d0576106a18161056f565b6106aa84610581565b810160208510156106b9578190505b6106cd6106c585610581565b83018261066d565b50505b505050565b5f82821c905092915050565b5f6106f05f19846008026106d5565b1980831691505092915050565b5f61070883836106e1565b9150826002028217905092915050565b6107218261047d565b67ffffffffffffffff81111561073a576107396104e5565b5b610744825461053f565b61074f82828561068f565b5f60209050601f831160018114610780575f841561076e578287015190505b61077885826106fd565b8655506107df565b601f19841661078e8661056f565b5f5b828110156107b557848901518255600182019150602085019450602081019050610790565b868310156107d257848901516107ce601f8916826106e1565b8355505b6001600288020188555050505b505050505050565b60805160a051615b0161081d5f395f8181610c9301528181610fef015261155401525f81816105990152611d1c0152615b015ff3fe608060405260043610610165575f3560e01c80638456cb59116100d0578063c336ff8011610089578063ee99f60b11610063578063ee99f60b146104b5578063f2fde38b146104f1578063f959c4fd14610519578063fceb814f1461055557610165565b8063c336ff8014610447578063c4bffe2b14610463578063e5eb8a891461048d57610165565b80638456cb59146103555780638da5cb5b1461036b578063960f92c814610395578063ad914932146103b1578063b2bbf680146103f3578063ba44ea961461041d57610165565b80634e90b9c0116101225780634e90b9c01461024b578063514654a5146102875780635c975abb146102af5780636a22d8cc146102d95780636c30aaa214610303578063715018a61461033f57610165565b8063116191b61461016957806311a2759b1461019357806319c0f12e146101bd5780631a98b2e0146101e55780633f4ba83a1461020d5780634916065814610223575b5f5ffd5b348015610174575f5ffd5b5061017d610596565b60405161018a91906136eb565b60405180910390f35b34801561019e575f5ffd5b506101a76105bd565b6040516101b4919061371c565b60405180910390f35b3480156101c8575f5ffd5b506101e360048036038101906101de91906137e2565b6105e1565b005b3480156101f0575f5ffd5b5061020b600480360381019061020691906138f1565b61064c565b005b348015610218575f5ffd5b5061022161074c565b005b34801561022e575f5ffd5b50610249600480360381019061024491906139fb565b61075e565b005b348015610256575f5ffd5b50610271600480360381019061026c9190613bf7565b610852565b60405161027e9190613c4d565b60405180910390f35b348015610292575f5ffd5b506102ad60048036038101906102a89190613d10565b61089a565b005b3480156102ba575f5ffd5b506102c3610c7c565b6040516102d09190613e01565b60405180910390f35b3480156102e4575f5ffd5b506102ed610c91565b6040516102fa9190613e3a565b60405180910390f35b34801561030e575f5ffd5b5061032960048036038101906103249190613bf7565b610cb5565b6040516103369190613e01565b60405180910390f35b34801561034a575f5ffd5b50610353610cea565b005b348015610360575f5ffd5b50610369610cfd565b005b348015610376575f5ffd5b5061037f610d0f565b60405161038c9190613c4d565b60405180910390f35b6103af60048036038101906103aa9190613e53565b610d36565b005b3480156103bc575f5ffd5b506103d760048036038101906103d29190613f0a565b611164565b6040516103ea9796959493929190613fb7565b60405180910390f35b3480156103fe575f5ffd5b506104076112f3565b604051610414919061371c565b60405180910390f35b348015610428575f5ffd5b50610431611317565b60405161043e919061371c565b60405180910390f35b610461600480360381019061045c9190613e53565b61133b565b005b34801561046e575f5ffd5b5061047761173a565b6040516104849190614135565b60405180910390f35b348015610498575f5ffd5b506104b360048036038101906104ae9190614155565b61180e565b005b3480156104c0575f5ffd5b506104db60048036038101906104d691906141a0565b611866565b6040516104e891906141cb565b60405180910390f35b3480156104fc575f5ffd5b50610517600480360381019061051291906141eb565b61190c565b005b348015610524575f5ffd5b5061053f600480360381019061053a9190614216565b611990565b60405161054c91906143d8565b60405180910390f35b348015610560575f5ffd5b5061057b60048036038101906105769190614216565b611ba9565b60405161058d969594939291906143f8565b60405180910390f35b5f7f0000000000000000000000000000000000000000000000000000000000000000905090565b7f989c58dbefc5e303f03b212ac148679fd6dd696bfdb9b046014186e6d66b28cf81565b6105e9611c92565b80600684846040516105fc92919061448c565b90815260200160405180910390205f6101000a81548173ffffffffffffffffffffffffffffffffffffffff021916908373ffffffffffffffffffffffffffffffffffffffff160217905550505050565b5f858560405161065d9291906144d2565b6040518091039020905061066f611d19565b73ffffffffffffffffffffffffffffffffffffffff16631876eed98c8c8c8c8c878b8b8b6040518a63ffffffff1660e01b81526004016106b799989796959493929190614516565b6020604051808303815f875af11580156106d3573d5f5f3e3d5ffd5b505050506040513d601f19601f820116820180604052508101906106f791906145ba565b61072d576040517f500c44b400000000000000000000000000000000000000000000000000000000815260040160405180910390fd5b61073f8b8b8b8b8b8b8b8b8b8b611d40565b5050505050505050505050565b610754611c92565b61075c6120de565b565b5f828260405161076f9291906144d2565b60405180910390209050610781610596565b73ffffffffffffffffffffffffffffffffffffffff16635f6970c38989898989876040518763ffffffff1660e01b81526004016107c3969594939291906145e5565b6020604051808303815f875af11580156107df573d5f5f3e3d5ffd5b505050506040513d601f19601f8201168201806040525081019061080391906145ba565b610839576040517f500c44b400000000000000000000000000000000000000000000000000000000815260040160405180910390fd5b6108488888888888888861213f565b5050505050505050565b6006818051602081018201805184825260208301602085012081835280955050505050505f915054906101000a900473ffffffffffffffffffffffffffffffffffffffff1681565b6108a2612353565b6108aa612399565b5f5f1b88036108e5576040517f1b2c5e8900000000000000000000000000000000000000000000000000000000815260040160405180910390fd5b5f870361091e576040517f2c5211c600000000000000000000000000000000000000000000000000000000815260040160405180910390fd5b81819050848490501461095d576040517f2c5211c600000000000000000000000000000000000000000000000000000000815260040160405180910390fd5b5f5f1b60035f8a81526020019081526020015f205f0154146109ab576040517f1b2c5e8900000000000000000000000000000000000000000000000000000000815260040160405180910390fd5b5f5f90505f5f90505b85859050811015610a795760058686838181106109d4576109d361463a565b5b90506020028101906109e69190614673565b6040516109f492919061448c565b90815260200160405180910390205f9054906101000a900460ff16610a45576040517fafe7f4e000000000000000000000000000000000000000000000000000000000815260040160405180910390fd5b838382818110610a5857610a5761463a565b5b9050602002013582610a6a9190614702565b915080806001019150506109b4565b50878114610ab3576040517f2c5211c600000000000000000000000000000000000000000000000000000000815260040160405180910390fd5b5f60035f8b81526020019081526020015f20905089815f018190555033816001015f6101000a81548173ffffffffffffffffffffffffffffffffffffffff021916908373ffffffffffffffffffffffffffffffffffffffff1602179055508881600201819055508787826003019182610b2d929190614933565b504281600801819055505f5f90505b86869050811015610c175781600401878783818110610b5e57610b5d61463a565b5b9050602002810190610b709190614673565b90918060018154018082558091505060019003905f5260205f20015f909192909192909192909192509182610ba6929190614933565b50848482818110610bba57610bb961463a565b5b9050602002013582600501888884818110610bd857610bd761463a565b5b9050602002810190610bea9190614673565b604051610bf892919061448c565b9081526020016040518091039020819055508080600101915050610b3c565b50610c2e8a878790610c299190614ab1565b6123da565b897fe08651d2890c3635cbeb2afe2228e5f18f25b345b079e7d583e32a61e0d4da798787604051610c60929190614bfd565b60405180910390a25050610c72612693565b5050505050505050565b5f60025f9054906101000a900460ff16905090565b7f000000000000000000000000000000000000000000000000000000000000000081565b6005818051602081018201805184825260208301602085012081835280955050505050505f915054906101000a900460ff1681565b610cf2611c92565b610cfb5f61269c565b565b610d05611c92565b610d0d61275d565b565b5f5f5f9054906101000a900473ffffffffffffffffffffffffffffffffffffffff16905090565b610d3e612353565b610d46612399565b5f5f1b8703610d81576040517f1b2c5e8900000000000000000000000000000000000000000000000000000000815260040160405180910390fd5b60058686604051610d9392919061448c565b90815260200160405180910390205f9054906101000a900460ff16610de4576040517fafe7f4e000000000000000000000000000000000000000000000000000000000815260040160405180910390fd5b5f8303610e1d576040517f2c5211c600000000000000000000000000000000000000000000000000000000815260040160405180910390fd5b5f610e26611d19565b73ffffffffffffffffffffffffffffffffffffffff1663935b13f684846040518363ffffffff1660e01b8152600401610e60929190614c1f565b602060405180830381865afa158015610e7b573d5f5f3e3d5ffd5b505050506040513d601f19601f82011682018060405250810190610e9f9190614c55565b90505f73ffffffffffffffffffffffffffffffffffffffff168173ffffffffffffffffffffffffffffffffffffffff1603610f06576040517f2c5211c600000000000000000000000000000000000000000000000000000000815260040160405180910390fd5b610f333330868473ffffffffffffffffffffffffffffffffffffffff166127bf909392919063ffffffff16565b610f65610f3e611d19565b858373ffffffffffffffffffffffffffffffffffffffff166128419092919063ffffffff16565b5f7f989c58dbefc5e303f03b212ac148679fd6dd696bfdb9b046014186e6d66b28cf89338742604051602001610f9f959493929190614c80565b60405160208183030381529060405290505f3490505f8103610fed576040517fe6b6589300000000000000000000000000000000000000000000000000000000815260040160405180910390fd5b7f000000000000000000000000000000000000000000000000000000000000000073ffffffffffffffffffffffffffffffffffffffff1663c62c200282308c8c6110368d61294e565b888c8c8f336040518b63ffffffff1660e01b815260040161105f99989796959493929190614d23565b5f604051808303818588803b158015611076575f5ffd5b505af1158015611088573d5f5f3e3d5ffd5b5050505050611095611d19565b73ffffffffffffffffffffffffffffffffffffffff1663b54170848a8a6110bb8b61294e565b868a8a8d6040518863ffffffff1660e01b81526004016110e19796959493929190614db0565b5f604051808303815f87803b1580156110f8575f5ffd5b505af115801561110a573d5f5f3e3d5ffd5b50505050897f037316700ad34ce89fd368e365354186ee196d3e4cf3a3cc85d7edfefdd199108a8a8a8a8a8a60405161114896959493929190614e21565b60405180910390a250505061115b612693565b50505050505050565b6004602052815f5260405f20818154811061117d575f80fd5b905f5260205f2090600702015f9150915050805f015490806001015f9054906101000a900473ffffffffffffffffffffffffffffffffffffffff16908060020154908060030180546111ce9061476c565b80601f01602080910402602001604051908101604052809291908181526020018280546111fa9061476c565b80156112455780601f1061121c57610100808354040283529160200191611245565b820191905f5260205f20905b81548152906001019060200180831161122857829003601f168201915b50505050509080600401805461125a9061476c565b80601f01602080910402602001604051908101604052809291908181526020018280546112869061476c565b80156112d15780601f106112a8576101008083540402835291602001916112d1565b820191905f5260205f20905b8154815290600101906020018083116112b457829003601f168201915b505050505090806005015490806006015f9054906101000a900460ff16905087565b7ff2164d99f31b78be1c93671bdae14ed336609188e192fb6552fec937f19b279181565b7f8cf46e850170a4746b73dece894b18a2b4ebad3e0b8bbc624cd6e3712fa9500e81565b611343612353565b61134b612399565b5f5f1b8703611386576040517f1b2c5e8900000000000000000000000000000000000000000000000000000000815260040160405180910390fd5b6005868660405161139892919061448c565b90815260200160405180910390205f9054906101000a900460ff166113e9576040517fafe7f4e000000000000000000000000000000000000000000000000000000000815260040160405180910390fd5b5f8303611422576040517f2c5211c600000000000000000000000000000000000000000000000000000000815260040160405180910390fd5b5f73ffffffffffffffffffffffffffffffffffffffff166006878760405161144b92919061448c565b90815260200160405180910390205f9054906101000a900473ffffffffffffffffffffffffffffffffffffffff1673ffffffffffffffffffffffffffffffffffffffff16036114c6576040517fafe7f4e000000000000000000000000000000000000000000000000000000000815260040160405180910390fd5b5f7f989c58dbefc5e303f03b212ac148679fd6dd696bfdb9b046014186e6d66b28cf8833868686426040516020016115049796959493929190614e76565b60405160208183030381529060405290505f3490505f8103611552576040517fe6b6589300000000000000000000000000000000000000000000000000000000815260040160405180910390fd5b7f000000000000000000000000000000000000000000000000000000000000000073ffffffffffffffffffffffffffffffffffffffff16630c93e3bb82308b8b6115da60068f8f6040516115a792919061448c565b90815260200160405180910390205f9054906101000a900473ffffffffffffffffffffffffffffffffffffffff1661294e565b88336040518863ffffffff1660e01b81526004016115fd96959493929190614ede565b5f604051808303818588803b158015611614575f5ffd5b505af1158015611626573d5f5f3e3d5ffd5b5050505050611633610596565b73ffffffffffffffffffffffffffffffffffffffff16631c92115f898961169860068d8d60405161166592919061448c565b90815260200160405180910390205f9054906101000a900473ffffffffffffffffffffffffffffffffffffffff1661294e565b866040518563ffffffff1660e01b81526004016116b89493929190614f46565b5f604051808303815f87803b1580156116cf575f5ffd5b505af11580156116e1573d5f5f3e3d5ffd5b50505050887f037316700ad34ce89fd368e365354186ee196d3e4cf3a3cc85d7edfefdd1991089898989898960405161171f96959493929190614e21565b60405180910390a25050611731612693565b50505050505050565b60606007805480602002602001604051908101604052809291908181526020015f905b82821015611805578382905f5260205f2001805461177a9061476c565b80601f01602080910402602001604051908101604052809291908181526020018280546117a69061476c565b80156117f15780601f106117c8576101008083540402835291602001916117f1565b820191905f5260205f20905b8154815290600101906020018083116117d457829003601f168201915b50505050508152602001906001019061175d565b50505050905090565b611816611c92565b61186282828080601f0160208091040260200160405190810160405280939291908181526020018383808284375f81840152601f19601f82011690508083019250505050505050612978565b5050565b60078181548110611875575f80fd5b905f5260205f20015f91509050805461188d9061476c565b80601f01602080910402602001604051908101604052809291908181526020018280546118b99061476c565b80156119045780601f106118db57610100808354040283529160200191611904565b820191905f5260205f20905b8154815290600101906020018083116118e757829003601f168201915b505050505081565b611914611c92565b5f73ffffffffffffffffffffffffffffffffffffffff168173ffffffffffffffffffffffffffffffffffffffff1603611984575f6040517f1e4fbdf700000000000000000000000000000000000000000000000000000000815260040161197b9190613c4d565b60405180910390fd5b61198d8161269c565b50565b606060045f8381526020019081526020015f20805480602002602001604051908101604052809291908181526020015f905b82821015611b9e578382905f5260205f2090600702016040518060e00160405290815f8201548152602001600182015f9054906101000a900473ffffffffffffffffffffffffffffffffffffffff1673ffffffffffffffffffffffffffffffffffffffff1673ffffffffffffffffffffffffffffffffffffffff16815260200160028201548152602001600382018054611a5b9061476c565b80601f0160208091040260200160405190810160405280929190818152602001828054611a879061476c565b8015611ad25780601f10611aa957610100808354040283529160200191611ad2565b820191905f5260205f20905b815481529060010190602001808311611ab557829003601f168201915b50505050508152602001600482018054611aeb9061476c565b80601f0160208091040260200160405190810160405280929190818152602001828054611b179061476c565b8015611b625780601f10611b3957610100808354040283529160200191611b62565b820191905f5260205f20905b815481529060010190602001808311611b4557829003601f168201915b5050505050815260200160058201548152602001600682015f9054906101000a900460ff161515151581525050815260200190600101906119c2565b505050509050919050565b6003602052805f5260405f205f91509050805f015490806001015f9054906101000a900473ffffffffffffffffffffffffffffffffffffffff1690806002015490806003018054611bf99061476c565b80601f0160208091040260200160405190810160405280929190818152602001828054611c259061476c565b8015611c705780601f10611c4757610100808354040283529160200191611c70565b820191905f5260205f20905b815481529060010190602001808311611c5357829003601f168201915b505050505090806007015f9054906101000a900460ff16908060080154905086565b611c9a612a13565b73ffffffffffffffffffffffffffffffffffffffff16611cb8610d0f565b73ffffffffffffffffffffffffffffffffffffffff1614611d1757611cdb612a13565b6040517f118cdaa7000000000000000000000000000000000000000000000000000000008152600401611d0e9190613c4d565b60405180910390fd5b565b5f7f0000000000000000000000000000000000000000000000000000000000000000905090565b60058989604051611d5292919061448c565b90815260200160405180910390205f9054906101000a900460ff16611da3576040517fafe7f4e000000000000000000000000000000000000000000000000000000000815260040160405180910390fd5b611def87878080601f0160208091040260200160405190810160405280939291908181526020018383808284375f81840152601f19601f82011690508083019250505050505050612a1a565b73ffffffffffffffffffffffffffffffffffffffff1660068a8a604051611e1792919061448c565b90815260200160405180910390205f9054906101000a900473ffffffffffffffffffffffffffffffffffffffff1673ffffffffffffffffffffffffffffffffffffffff1614611e92576040517f0809490800000000000000000000000000000000000000000000000000000000815260040160405180910390fd5b5f5f5f5f8888810190611ea59190614fcd565b93509350935093507f989c58dbefc5e303f03b212ac148679fd6dd696bfdb9b046014186e6d66b28cf84036120ce5760045f8481526020019081526020015f206040518060e001604052808581526020018473ffffffffffffffffffffffffffffffffffffffff16815260200187815260200189898080601f0160208091040260200160405190810160405280939291908181526020018383808284375f81840152601f19601f8201169050808301925050505050505081526020018f8f8080601f0160208091040260200160405190810160405280939291908181526020018383808284375f81840152601f19601f8201169050808301925050505050505081526020018381526020015f1515815250908060018154018082558091505060019003905f5260205f2090600702015f909190919091505f820151815f01556020820151816001015f6101000a81548173ffffffffffffffffffffffffffffffffffffffff021916908373ffffffffffffffffffffffffffffffffffffffff1602179055506040820151816002015560608201518160030190816120499190615031565b50608082015181600401908161205f9190615031565b5060a0820151816005015560c0820151816006015f6101000a81548160ff0219169083151502179055505050827f57456db22eca97ed41d53c285c88c2aa1e9b6623c5bf95b9e8288c6566e01b138e8e85898c8c6040516120c596959493929190614e21565b60405180910390a25b5050505050505050505050505050565b6120e6612bc2565b5f60025f6101000a81548160ff0219169083151502179055507f5db9ee0a495bf2e6ff9c91a7834c1ba4fdd244a5e8aa4e537bd38aeae4b073aa612128612a13565b6040516121359190613c4d565b60405180910390a1565b6005868660405161215192919061448c565b90815260200160405180910390205f9054906101000a900460ff166121a2576040517fafe7f4e000000000000000000000000000000000000000000000000000000000815260040160405180910390fd5b6121ee84848080601f0160208091040260200160405190810160405280939291908181526020018383808284375f81840152601f19601f82011690508083019250505050505050612a1a565b73ffffffffffffffffffffffffffffffffffffffff166006878760405161221692919061448c565b90815260200160405180910390205f9054906101000a900473ffffffffffffffffffffffffffffffffffffffff1673ffffffffffffffffffffffffffffffffffffffff1614612291576040517f0809490800000000000000000000000000000000000000000000000000000000815260040160405180910390fd5b5f82828101906122a19190614216565b90507f989c58dbefc5e303f03b212ac148679fd6dd696bfdb9b046014186e6d66b28cf81036122db576122d687878585612c02565b612349565b7ff2164d99f31b78be1c93671bdae14ed336609188e192fb6552fec937f19b279181036123135761230e87878585612de0565b612348565b7f8cf46e850170a4746b73dece894b18a2b4ebad3e0b8bbc624cd6e3712fa9500e81036123475761234687878585612f2c565b5b5b5b5050505050505050565b60026001540361238f576040517f3ee5aeb500000000000000000000000000000000000000000000000000000000815260040160405180910390fd5b6002600181905550565b6123a1610c7c565b156123d8576040517fd93c066500000000000000000000000000000000000000000000000000000000815260040160405180910390fd5b565b5f60035f8481526020019081526020015f2090505f825167ffffffffffffffff81111561240a57612409613ad3565b5b6040519080825280602002602001820160405280156124385781602001602082028036833780820191505090505b5090505f5f90505b83518110156124b057826005018482815181106124605761245f61463a565b5b60200260200101516040516124759190615130565b9081526020016040518091039020548282815181106124975761249661463a565b5b6020026020010181815250508080600101915050612440565b505f7ff2164d99f31b78be1c93671bdae14ed336609188e192fb6552fec937f19b279185846001015f9054906101000a900473ffffffffffffffffffffffffffffffffffffffff168560020154866003018887604051602001612519979695949392919061526f565b60405160208183030381529060405290505f5f90505b845181101561268b575f85828151811061254c5761254b61463a565b5b602002602001015190505f73ffffffffffffffffffffffffffffffffffffffff1660068260405161257d9190615130565b90815260200160405180910390205f9054906101000a900473ffffffffffffffffffffffffffffffffffffffff1673ffffffffffffffffffffffffffffffffffffffff161461267d576125ce610596565b73ffffffffffffffffffffffffffffffffffffffff16631c92115f826126306006856040516125fd9190615130565b90815260200160405180910390205f9054906101000a900473ffffffffffffffffffffffffffffffffffffffff1661294e565b866040518463ffffffff1660e01b815260040161264f939291906152f1565b5f604051808303815f87803b158015612666575f5ffd5b505af1158015612678573d5f5f3e3d5ffd5b505050505b50808060010191505061252f565b505050505050565b60018081905550565b5f5f5f9054906101000a900473ffffffffffffffffffffffffffffffffffffffff169050815f5f6101000a81548173ffffffffffffffffffffffffffffffffffffffff021916908373ffffffffffffffffffffffffffffffffffffffff1602179055508173ffffffffffffffffffffffffffffffffffffffff168173ffffffffffffffffffffffffffffffffffffffff167f8be0079c531659141344cd1fd0a4f28419497f9722a3daafe3b4186f6b6457e060405160405180910390a35050565b612765612399565b600160025f6101000a81548160ff0219169083151502179055507f62e78cea01bee320cd4e420270b5ea74000d11b0c9f74754ebdbfc544b05a2586127a8612a13565b6040516127b59190613c4d565b60405180910390a1565b61283b848573ffffffffffffffffffffffffffffffffffffffff166323b872dd8686866040516024016127f49392919061533b565b604051602081830303815290604052915060e01b6020820180517bffffffffffffffffffffffffffffffffffffffffffffffffffffffff8381831617835250505050613046565b50505050565b5f8373ffffffffffffffffffffffffffffffffffffffff1663095ea7b38484604051602401612871929190615370565b604051602081830303815290604052915060e01b6020820180517bffffffffffffffffffffffffffffffffffffffffffffffffffffffff838183161783525050505090506128bf84826130e1565b6129485761293d848573ffffffffffffffffffffffffffffffffffffffff1663095ea7b3865f6040516024016128f69291906153d0565b604051602081830303815290604052915060e01b6020820180517bffffffffffffffffffffffffffffffffffffffffffffffffffffffff8381831617835250505050613046565b6129478482613046565b5b50505050565b60606129718273ffffffffffffffffffffffffffffffffffffffff16601461313a565b9050919050565b6005816040516129889190615130565b90815260200160405180910390205f9054906101000a900460ff16612a105760016005826040516129b99190615130565b90815260200160405180910390205f6101000a81548160ff021916908315150217905550600781908060018154018082558091505060019003905f5260205f20015f909190919091509081612a0e9190615031565b505b50565b5f33905090565b5f5f829050602a815114612a63576040517f08c379a0000000000000000000000000000000000000000000000000000000008152600401612a5a90615441565b60405180910390fd5b5f601467ffffffffffffffff811115612a7f57612a7e613ad3565b5b6040519080825280601f01601f191660200182016040528015612ab15781602001600182028036833780820191505090505b5090505f5f90505b6014811015612bab57612b0383600283612ad3919061545f565b6003612adf9190614702565b81518110612af057612aef61463a565b5b602001015160f81c60f81b60f81c61336f565b6010612b4685600285612b16919061545f565b6002612b229190614702565b81518110612b3357612b3261463a565b5b602001015160f81c60f81b60f81c61336f565b612b5091906154ac565b612b5a91906154e8565b60f81b828281518110612b7057612b6f61463a565b5b60200101907effffffffffffffffffffffffffffffffffffffffffffffffffffffffffffff191690815f1a9053508080600101915050612ab9565b5080612bb69061556a565b60601c92505050919050565b612bca610c7c565b612c00576040517f8dfc202b00000000000000000000000000000000000000000000000000000000815260040160405180910390fd5b565b5f5f5f5f5f8686810190612c1691906155d0565b955095509550955095505060045f8681526020019081526020015f206040518060e001604052808781526020018673ffffffffffffffffffffffffffffffffffffffff1681526020018581526020018481526020018b8b8080601f0160208091040260200160405190810160405280939291908181526020018383808284375f81840152601f19601f8201169050808301925050505050505081526020018381526020015f1515815250908060018154018082558091505060019003905f5260205f2090600702015f909190919091505f820151815f01556020820151816001015f6101000a81548173ffffffffffffffffffffffffffffffffffffffff021916908373ffffffffffffffffffffffffffffffffffffffff160217905550604082015181600201556060820151816003019081612d539190615031565b506080820151816004019081612d699190615031565b5060a0820151816005015560c0820151816006015f6101000a81548160ff0219169083151502179055505050847f57456db22eca97ed41d53c285c88c2aa1e9b6623c5bf95b9e8288c6566e01b138a8a878787604051612dcd959493929190615675565b60405180910390a2505050505050505050565b5f5f5f5f5f5f8787810190612df591906157b5565b965096509650965096509650505f60035f8881526020019081526020015f2090505f5f1b815f015403612f1f5786815f018190555085816001015f6101000a81548173ffffffffffffffffffffffffffffffffffffffff021916908373ffffffffffffffffffffffffffffffffffffffff16021790555084816002018190555083816003019081612e869190615031565b5082816004019080519060200190612e9f92919061359f565b504281600801819055505f5f90505b8351811015612f1d57828181518110612eca57612ec961463a565b5b602002602001015182600501858381518110612ee957612ee861463a565b5b6020026020010151604051612efe9190615130565b9081526020016040518091039020819055508080600101915050612eae565b505b5050505050505050505050565b5f5f8383810190612f3d91906158ba565b92509250505f60035f8481526020019081526020015f2090505f5f1b815f01541461303d5781816006018888604051612f7792919061448c565b90815260200160405180910390205f6101000a81548160ff0219169083151502179055505f600190505f5f90505b82600401805490508110156130175782600601836004018281548110612fce57612fcd61463a565b5b905f5260205f2001604051612fe3919061598a565b90815260200160405180910390205f9054906101000a900460ff1661300a575f9150613017565b8080600101915050612fa5565b50801561303b576001826007015f6101000a81548160ff0219169083151502179055505b505b50505050505050565b5f5f60205f8451602086015f885af180613065576040513d5f823e3d81fd5b3d92505f519150505f821461307e576001811415613099565b5f8473ffffffffffffffffffffffffffffffffffffffff163b145b156130db57836040517f5274afe70000000000000000000000000000000000000000000000000000000081526004016130d29190613c4d565b60405180910390fd5b50505050565b5f5f5f5f60205f8651602088015f8a5af192503d91505f51905082801561312f57505f8214613113576001811461312e565b5f8673ffffffffffffffffffffffffffffffffffffffff163b115b5b935050505092915050565b60605f600283600261314c919061545f565b6131569190614702565b67ffffffffffffffff81111561316f5761316e613ad3565b5b6040519080825280601f01601f1916602001820160405280156131a15781602001600182028036833780820191505090505b5090507f3000000000000000000000000000000000000000000000000000000000000000815f815181106131d8576131d761463a565b5b60200101907effffffffffffffffffffffffffffffffffffffffffffffffffffffffffffff191690815f1a9053507f78000000000000000000000000000000000000000000000000000000000000008160018151811061323b5761323a61463a565b5b60200101907effffffffffffffffffffffffffffffffffffffffffffffffffffffffffffff191690815f1a9053505f6001846002613279919061545f565b6132839190614702565b90505b6001811115613322577f3031323334353637383961626364656600000000000000000000000000000000600f8616601081106132c5576132c461463a565b5b1a60f81b8282815181106132dc576132db61463a565b5b60200101907effffffffffffffffffffffffffffffffffffffffffffffffffffffffffffff191690815f1a905350600485901c94508061331b906159a0565b9050613286565b505f8414613365576040517f08c379a000000000000000000000000000000000000000000000000000000000815260040161335c90615a11565b60405180910390fd5b8091505092915050565b5f7f300000000000000000000000000000000000000000000000000000000000000060f81c60ff168260ff16101580156133d257507f390000000000000000000000000000000000000000000000000000000000000060f81c60ff168260ff1611155b1561340d577f300000000000000000000000000000000000000000000000000000000000000060f81c826134069190615a2f565b905061359a565b7f610000000000000000000000000000000000000000000000000000000000000060f81c60ff168260ff161015801561346f57507f660000000000000000000000000000000000000000000000000000000000000060f81c60ff168260ff1611155b156134b6577f610000000000000000000000000000000000000000000000000000000000000060f81c82600a6134a591906154e8565b6134af9190615a2f565b905061359a565b7f410000000000000000000000000000000000000000000000000000000000000060f81c60ff168260ff161015801561351857507f460000000000000000000000000000000000000000000000000000000000000060f81c60ff168260ff1611155b1561355f577f410000000000000000000000000000000000000000000000000000000000000060f81c82600a61354e91906154e8565b6135589190615a2f565b905061359a565b6040517f08c379a000000000000000000000000000000000000000000000000000000000815260040161359190615aad565b60405180910390fd5b919050565b828054828255905f5260205f209081019282156135e5579160200282015b828111156135e45782518290816135d49190615031565b50916020019190600101906135bd565b5b5090506135f291906135f6565b5090565b5b80821115613615575f818161360c9190613619565b506001016135f7565b5090565b5080546136259061476c565b5f825580601f106136365750613653565b601f0160209004905f5260205f20908101906136529190613656565b5b50565b5b8082111561366d575f815f905550600101613657565b5090565b5f73ffffffffffffffffffffffffffffffffffffffff82169050919050565b5f819050919050565b5f6136b36136ae6136a984613671565b613690565b613671565b9050919050565b5f6136c482613699565b9050919050565b5f6136d5826136ba565b9050919050565b6136e5816136cb565b82525050565b5f6020820190506136fe5f8301846136dc565b92915050565b5f819050919050565b61371681613704565b82525050565b5f60208201905061372f5f83018461370d565b92915050565b5f604051905090565b5f5ffd5b5f5ffd5b5f5ffd5b5f5ffd5b5f5ffd5b5f5f83601f84011261376757613766613746565b5b8235905067ffffffffffffffff8111156137845761378361374a565b5b6020830191508360018202830111156137a05761379f61374e565b5b9250929050565b5f6137b182613671565b9050919050565b6137c1816137a7565b81146137cb575f5ffd5b50565b5f813590506137dc816137b8565b92915050565b5f5f5f604084860312156137f9576137f861373e565b5b5f84013567ffffffffffffffff81111561381657613815613742565b5b61382286828701613752565b93509350506020613835868287016137ce565b9150509250925092565b61384881613704565b8114613852575f5ffd5b50565b5f813590506138638161383f565b92915050565b5f5f83601f84011261387e5761387d613746565b5b8235905067ffffffffffffffff81111561389b5761389a61374a565b5b6020830191508360018202830111156138b7576138b661374e565b5b9250929050565b5f819050919050565b6138d0816138be565b81146138da575f5ffd5b50565b5f813590506138eb816138c7565b92915050565b5f5f5f5f5f5f5f5f5f5f60c08b8d03121561390f5761390e61373e565b5b5f61391c8d828e01613855565b9a505060208b013567ffffffffffffffff81111561393d5761393c613742565b5b6139498d828e01613752565b995099505060408b013567ffffffffffffffff81111561396c5761396b613742565b5b6139788d828e01613752565b975097505060608b013567ffffffffffffffff81111561399b5761399a613742565b5b6139a78d828e01613869565b955095505060808b013567ffffffffffffffff8111156139ca576139c9613742565b5b6139d68d828e01613752565b935093505060a06139e98d828e016138dd565b9150509295989b9194979a5092959850565b5f5f5f5f5f5f5f6080888a031215613a1657613a1561373e565b5b5f613a238a828b01613855565b975050602088013567ffffffffffffffff811115613a4457613a43613742565b5b613a508a828b01613752565b9650965050604088013567ffffffffffffffff811115613a7357613a72613742565b5b613a7f8a828b01613752565b9450945050606088013567ffffffffffffffff811115613aa257613aa1613742565b5b613aae8a828b01613869565b925092505092959891949750929550565b5f5ffd5b5f601f19601f8301169050919050565b7f4e487b71000000000000000000000000000000000000000000000000000000005f52604160045260245ffd5b613b0982613ac3565b810181811067ffffffffffffffff82111715613b2857613b27613ad3565b5b80604052505050565b5f613b3a613735565b9050613b468282613b00565b919050565b5f67ffffffffffffffff821115613b6557613b64613ad3565b5b613b6e82613ac3565b9050602081019050919050565b828183375f83830152505050565b5f613b9b613b9684613b4b565b613b31565b905082815260208101848484011115613bb757613bb6613abf565b5b613bc2848285613b7b565b509392505050565b5f82601f830112613bde57613bdd613746565b5b8135613bee848260208601613b89565b91505092915050565b5f60208284031215613c0c57613c0b61373e565b5b5f82013567ffffffffffffffff811115613c2957613c28613742565b5b613c3584828501613bca565b91505092915050565b613c47816137a7565b82525050565b5f602082019050613c605f830184613c3e565b92915050565b5f5f83601f840112613c7b57613c7a613746565b5b8235905067ffffffffffffffff811115613c9857613c9761374a565b5b602083019150836020820283011115613cb457613cb361374e565b5b9250929050565b5f5f83601f840112613cd057613ccf613746565b5b8235905067ffffffffffffffff811115613ced57613cec61374a565b5b602083019150836020820283011115613d0957613d0861374e565b5b9250929050565b5f5f5f5f5f5f5f5f60a0898b031215613d2c57613d2b61373e565b5b5f613d398b828c01613855565b9850506020613d4a8b828c016138dd565b975050604089013567ffffffffffffffff811115613d6b57613d6a613742565b5b613d778b828c01613752565b9650965050606089013567ffffffffffffffff811115613d9a57613d99613742565b5b613da68b828c01613c66565b9450945050608089013567ffffffffffffffff811115613dc957613dc8613742565b5b613dd58b828c01613cbb565b92509250509295985092959890939650565b5f8115159050919050565b613dfb81613de7565b82525050565b5f602082019050613e145f830184613df2565b92915050565b5f613e24826136ba565b9050919050565b613e3481613e1a565b82525050565b5f602082019050613e4d5f830184613e2b565b92915050565b5f5f5f5f5f5f5f60a0888a031215613e6e57613e6d61373e565b5b5f613e7b8a828b01613855565b975050602088013567ffffffffffffffff811115613e9c57613e9b613742565b5b613ea88a828b01613752565b96509650506040613ebb8a828b016137ce565b9450506060613ecc8a828b016138dd565b935050608088013567ffffffffffffffff811115613eed57613eec613742565b5b613ef98a828b01613752565b925092505092959891949750929550565b5f5f60408385031215613f2057613f1f61373e565b5b5f613f2d85828601613855565b9250506020613f3e858286016138dd565b9150509250929050565b613f51816138be565b82525050565b5f81519050919050565b5f82825260208201905092915050565b8281835e5f83830152505050565b5f613f8982613f57565b613f938185613f61565b9350613fa3818560208601613f71565b613fac81613ac3565b840191505092915050565b5f60e082019050613fca5f83018a61370d565b613fd76020830189613c3e565b613fe46040830188613f48565b8181036060830152613ff68187613f7f565b9050818103608083015261400a8186613f7f565b905061401960a0830185613f48565b61402660c0830184613df2565b98975050505050505050565b5f81519050919050565b5f82825260208201905092915050565b5f819050602082019050919050565b5f82825260208201905092915050565b5f61407582613f57565b61407f818561405b565b935061408f818560208601613f71565b61409881613ac3565b840191505092915050565b5f6140ae838361406b565b905092915050565b5f602082019050919050565b5f6140cc82614032565b6140d6818561403c565b9350836020820285016140e88561404c565b805f5b85811015614123578484038952815161410485826140a3565b945061410f836140b6565b925060208a019950506001810190506140eb565b50829750879550505050505092915050565b5f6020820190508181035f83015261414d81846140c2565b905092915050565b5f5f6020838503121561416b5761416a61373e565b5b5f83013567ffffffffffffffff81111561418857614187613742565b5b61419485828601613752565b92509250509250929050565b5f602082840312156141b5576141b461373e565b5b5f6141c2848285016138dd565b91505092915050565b5f6020820190508181035f8301526141e38184613f7f565b905092915050565b5f60208284031215614200576141ff61373e565b5b5f61420d848285016137ce565b91505092915050565b5f6020828403121561422b5761422a61373e565b5b5f61423884828501613855565b91505092915050565b5f81519050919050565b5f82825260208201905092915050565b5f819050602082019050919050565b61427381613704565b82525050565b614282816137a7565b82525050565b614291816138be565b82525050565b6142a081613de7565b82525050565b5f60e083015f8301516142bb5f86018261426a565b5060208301516142ce6020860182614279565b5060408301516142e16040860182614288565b50606083015184820360608601526142f9828261406b565b91505060808301518482036080860152614313828261406b565b91505060a083015161432860a0860182614288565b5060c083015161433b60c0860182614297565b508091505092915050565b5f61435183836142a6565b905092915050565b5f602082019050919050565b5f61436f82614241565b614379818561424b565b93508360208202850161438b8561425b565b805f5b858110156143c657848403895281516143a78582614346565b94506143b283614359565b925060208a0199505060018101905061438e565b50829750879550505050505092915050565b5f6020820190508181035f8301526143f08184614365565b905092915050565b5f60c08201905061440b5f83018961370d565b6144186020830188613c3e565b6144256040830187613f48565b81810360608301526144378186613f7f565b90506144466080830185613df2565b61445360a0830184613f48565b979650505050505050565b5f81905092915050565b5f614473838561445e565b9350614480838584613b7b565b82840190509392505050565b5f614498828486614468565b91508190509392505050565b5f81905092915050565b5f6144b983856144a4565b93506144c6838584613b7b565b82840190509392505050565b5f6144de8284866144ae565b91508190509392505050565b5f6144f58385613f61565b9350614502838584613b7b565b61450b83613ac3565b840190509392505050565b5f60c0820190506145295f83018c61370d565b818103602083015261453c818a8c6144ea565b9050818103604083015261455181888a6144ea565b9050614560606083018761370d565b81810360808301526145738185876144ea565b905061458260a0830184613f48565b9a9950505050505050505050565b61459981613de7565b81146145a3575f5ffd5b50565b5f815190506145b481614590565b92915050565b5f602082840312156145cf576145ce61373e565b5b5f6145dc848285016145a6565b91505092915050565b5f6080820190506145f85f83018961370d565b818103602083015261460b8187896144ea565b905081810360408301526146208185876144ea565b905061462f606083018461370d565b979650505050505050565b7f4e487b71000000000000000000000000000000000000000000000000000000005f52603260045260245ffd5b5f5ffd5b5f5ffd5b5f5ffd5b5f5f8335600160200384360303811261468f5761468e614667565b5b80840192508235915067ffffffffffffffff8211156146b1576146b061466b565b5b6020830192506001820236038313156146cd576146cc61466f565b5b509250929050565b7f4e487b71000000000000000000000000000000000000000000000000000000005f52601160045260245ffd5b5f61470c826138be565b9150614717836138be565b925082820190508082111561472f5761472e6146d5565b5b92915050565b5f82905092915050565b7f4e487b71000000000000000000000000000000000000000000000000000000005f52602260045260245ffd5b5f600282049050600182168061478357607f821691505b6020821081036147965761479561473f565b5b50919050565b5f819050815f5260205f209050919050565b5f6020601f8301049050919050565b5f82821b905092915050565b5f600883026147f87fffffffffffffffffffffffffffffffffffffffffffffffffffffffffffffffff826147bd565b61480286836147bd565b95508019841693508086168417925050509392505050565b5f61483461482f61482a846138be565b613690565b6138be565b9050919050565b5f819050919050565b61484d8361481a565b6148616148598261483b565b8484546147c9565b825550505050565b5f5f905090565b614878614869565b614883818484614844565b505050565b5b818110156148a65761489b5f82614870565b600181019050614889565b5050565b601f8211156148eb576148bc8161479c565b6148c5846147ae565b810160208510156148d4578190505b6148e86148e0856147ae565b830182614888565b50505b505050565b5f82821c905092915050565b5f61490b5f19846008026148f0565b1980831691505092915050565b5f61492383836148fc565b9150826002028217905092915050565b61493d8383614735565b67ffffffffffffffff81111561495657614955613ad3565b5b614960825461476c565b61496b8282856148aa565b5f601f831160018114614998575f8415614986578287013590505b6149908582614918565b8655506149f7565b601f1984166149a68661479c565b5f5b828110156149cd578489013582556001820191506020850194506020810190506149a8565b868310156149ea57848901356149e6601f8916826148fc565b8355505b6001600288020188555050505b50505050505050565b5f67ffffffffffffffff821115614a1a57614a19613ad3565b5b602082029050602081019050919050565b5f614a3d614a3884614a00565b613b31565b90508083825260208201905060208402830185811115614a6057614a5f61374e565b5b835b81811015614aa757803567ffffffffffffffff811115614a8557614a84613746565b5b808601614a928982613bca565b85526020850194505050602081019050614a62565b5050509392505050565b5f614abd368484614a2b565b905092915050565b5f819050919050565b5f614ad9838561405b565b9350614ae6838584613b7b565b614aef83613ac3565b840190509392505050565b5f614b06848484614ace565b90509392505050565b5f5ffd5b5f5ffd5b5f5ffd5b5f5f83356001602003843603038112614b3757614b36614b17565b5b83810192508235915060208301925067ffffffffffffffff821115614b5f57614b5e614b0f565b5b600182023603831315614b7557614b74614b13565b5b509250929050565b5f602082019050919050565b5f614b94838561403c565b935083602084028501614ba684614ac5565b805f5b87811015614beb578484038952614bc08284614b1b565b614bcb868284614afa565b9550614bd684614b7d565b935060208b019a505050600181019050614ba9565b50829750879450505050509392505050565b5f6020820190508181035f830152614c16818486614b89565b90509392505050565b5f6020820190508181035f830152614c388184866144ea565b90509392505050565b5f81519050614c4f816137b8565b92915050565b5f60208284031215614c6a57614c6961373e565b5b5f614c7784828501614c41565b91505092915050565b5f60a082019050614c935f83018861370d565b614ca0602083018761370d565b614cad6040830186613c3e565b614cba6060830185613f48565b614cc76080830184613f48565b9695505050505050565b5f81519050919050565b5f82825260208201905092915050565b5f614cf582614cd1565b614cff8185614cdb565b9350614d0f818560208601613f71565b614d1881613ac3565b840191505092915050565b5f60e082019050614d365f83018c613c3e565b8181036020830152614d49818a8c6144ea565b90508181036040830152614d5d8189613f7f565b90508181036060830152614d718188614ceb565b90508181036080830152614d868186886144ea565b9050614d9560a0830185613f48565b614da260c0830184613c3e565b9a9950505050505050505050565b5f60a0820190508181035f830152614dc981898b6144ea565b90508181036020830152614ddd8188613f7f565b90508181036040830152614df18187614ceb565b90508181036060830152614e068185876144ea565b9050614e156080830184613f48565b98975050505050505050565b5f6080820190508181035f830152614e3a81888a6144ea565b9050614e496020830187613c3e565b614e566040830186613f48565b8181036060830152614e698184866144ea565b9050979650505050505050565b5f60c082019050614e895f83018a61370d565b614e96602083018961370d565b614ea36040830188613c3e565b614eb06060830187613f48565b8181036080830152614ec38185876144ea565b9050614ed260a0830184613f48565b98975050505050505050565b5f60a082019050614ef15f830189613c3e565b8181036020830152614f048187896144ea565b90508181036040830152614f188186613f7f565b90508181036060830152614f2c8185614ceb565b9050614f3b6080830184613c3e565b979650505050505050565b5f6060820190508181035f830152614f5f8186886144ea565b90508181036020830152614f738185613f7f565b90508181036040830152614f878184614ceb565b905095945050505050565b5f614f9c82613671565b9050919050565b614fac81614f92565b8114614fb6575f5ffd5b50565b5f81359050614fc781614fa3565b92915050565b5f5f5f5f60808587031215614fe557614fe461373e565b5b5f614ff287828801613855565b945050602061500387828801613855565b935050604061501487828801614fb9565b9250506060615025878288016138dd565b91505092959194509250565b61503a82613f57565b67ffffffffffffffff81111561505357615052613ad3565b5b61505d825461476c565b6150688282856148aa565b5f60209050601f831160018114615099575f8415615087578287015190505b6150918582614918565b8655506150f8565b601f1984166150a78661479c565b5f5b828110156150ce578489015182556001820191506020850194506020810190506150a9565b868310156150eb57848901516150e7601f8916826148fc565b8355505b6001600288020188555050505b505050505050565b5f61510a82613f57565b615114818561445e565b9350615124818560208601613f71565b80840191505092915050565b5f61513b8284615100565b915081905092915050565b5f81546151528161476c565b61515c8186613f61565b9450600182165f8114615176576001811461518c576151be565b60ff1983168652811515602002860193506151be565b6151958561479c565b5f5b838110156151b657815481890152600182019150602081019050615197565b808801955050505b50505092915050565b5f81519050919050565b5f82825260208201905092915050565b5f819050602082019050919050565b5f6151fb8383614288565b60208301905092915050565b5f602082019050919050565b5f61521d826151c7565b61522781856151d1565b9350615232836151e1565b805f5b8381101561526257815161524988826151f0565b975061525483615207565b925050600181019050615235565b5085935050505092915050565b5f60e0820190506152825f83018a61370d565b61528f602083018961370d565b61529c6040830188613c3e565b6152a96060830187613f48565b81810360808301526152bb8186615146565b905081810360a08301526152cf81856140c2565b905081810360c08301526152e38184615213565b905098975050505050505050565b5f6060820190508181035f8301526153098186613f7f565b9050818103602083015261531d8185613f7f565b905081810360408301526153318184614ceb565b9050949350505050565b5f60608201905061534e5f830186613c3e565b61535b6020830185613c3e565b6153686040830184613f48565b949350505050565b5f6040820190506153835f830185613c3e565b6153906020830184613f48565b9392505050565b5f819050919050565b5f6153ba6153b56153b084615397565b613690565b6138be565b9050919050565b6153ca816153a0565b82525050565b5f6040820190506153e35f830185613c3e565b6153f060208301846153c1565b9392505050565b7f496e76616c6964206164647265737320737472696e67000000000000000000005f82015250565b5f61542b601683613f61565b9150615436826153f7565b602082019050919050565b5f6020820190508181035f8301526154588161541f565b9050919050565b5f615469826138be565b9150615474836138be565b9250828202615482816138be565b91508282048414831517615499576154986146d5565b5b5092915050565b5f60ff82169050919050565b5f6154b6826154a0565b91506154c1836154a0565b92508282026154cf816154a0565b91508082146154e1576154e06146d5565b5b5092915050565b5f6154f2826154a0565b91506154fd836154a0565b9250828201905060ff811115615516576155156146d5565b5b92915050565b5f819050602082019050919050565b5f7fffffffffffffffffffffffffffffffffffffffff00000000000000000000000082169050919050565b5f615561825161552b565b80915050919050565b5f61557482614cd1565b8261557e8461551c565b905061558981615556565b925060148210156155c9576155c47fffffffffffffffffffffffffffffffffffffffff000000000000000000000000836014036008026147bd565b831692505b5050919050565b5f5f5f5f5f5f60c087890312156155ea576155e961373e565b5b5f6155f789828a01613855565b965050602061560889828a01613855565b955050604061561989828a01614fb9565b945050606061562a89828a016138dd565b935050608087013567ffffffffffffffff81111561564b5761564a613742565b5b61565789828a01613bca565b92505060a061566889828a016138dd565b9150509295509295509295565b5f6080820190508181035f83015261568e8187896144ea565b905061569d6020830186613c3e565b6156aa6040830185613f48565b81810360608301526156bc8184613f7f565b90509695505050505050565b5f82601f8301126156dc576156db613746565b5b81356156ec848260208601614a2b565b91505092915050565b5f67ffffffffffffffff82111561570f5761570e613ad3565b5b602082029050602081019050919050565b5f61573261572d846156f5565b613b31565b905080838252602082019050602084028301858111156157555761575461374e565b5b835b8181101561577e578061576a88826138dd565b845260208401935050602081019050615757565b5050509392505050565b5f82601f83011261579c5761579b613746565b5b81356157ac848260208601615720565b91505092915050565b5f5f5f5f5f5f5f60e0888a0312156157d0576157cf61373e565b5b5f6157dd8a828b01613855565b97505060206157ee8a828b01613855565b96505060406157ff8a828b01614fb9565b95505060606158108a828b016138dd565b945050608088013567ffffffffffffffff81111561583157615830613742565b5b61583d8a828b01613bca565b93505060a088013567ffffffffffffffff81111561585e5761585d613742565b5b61586a8a828b016156c8565b92505060c088013567ffffffffffffffff81111561588b5761588a613742565b5b6158978a828b01615788565b91505092959891949750929550565b5f813590506158b481614590565b92915050565b5f5f5f606084860312156158d1576158d061373e565b5b5f6158de86828701613855565b93505060206158ef86828701613855565b9250506040615900868287016158a6565b9150509250925092565b5f81546159168161476c565b615920818661445e565b9450600182165f811461593a576001811461594f57615981565b60ff1983168652811515820286019350615981565b6159588561479c565b5f5b838110156159795781548189015260018201915060208101905061595a565b838801955050505b50505092915050565b5f615995828461590a565b915081905092915050565b5f6159aa826138be565b91505f82036159bc576159bb6146d5565b5b600182039050919050565b7f537472696e67733a20686578206c656e67746820696e73756666696369656e745f82015250565b5f6159fb602083613f61565b9150615a06826159c7565b602082019050919050565b5f6020820190508181035f830152615a28816159ef565b9050919050565b5f615a39826154a0565b9150615a44836154a0565b9250828203905060ff811115615a5d57615a5c6146d5565b5b92915050565b7f496e76616c6964206865782063686172616374657200000000000000000000005f82015250565b5f615a97601583613f61565b9150615aa282615a63565b602082019050919050565b5f6020820190508181035f830152615ac481615a8b565b905091905056fea2646970667358221220fdc7493dcb6ff6947493336d09c42db6337e80e1aac4c38cfb2b43c60a4fdfa664736f6c634300081e0033","linkReferences":{}},"methodIdentifiers":{"BILL_SYNCHRONIZATION()":"b2bbf680","CROSS_CHAIN_PAYMENT()":"11a2759b","SETTLEMENT_CONFIRMATION()":"ba44ea96","addSupportedChain(string)":"e5eb8a89","createCrossChainBill(bytes32,uint256,string,string[],uint256[])":"514654a5","crossChainBills(bytes32)":"fceb814f","execute(bytes32,string,string,bytes)":"49160658","executeWithToken(bytes32,string,string,bytes,string,uint256)":"1a98b2e0","gasService()":"6a22d8cc","gateway()":"116191b6","getPendingPayments(bytes32)":"f959c4fd","getSupportedChains()":"c4bffe2b","makeCrossChainPayment(bytes32,string,address,uint256,string)":"c336ff80","owner()":"8da5cb5b","pause()":"8456cb59","paused()":"5c975abb","pendingPayments(bytes32,uint256)":"ad914932","renounceOwnership()":"715018a6","sendTokenCrossChain(bytes32,string,address,uint256,string)":"960f92c8","setTrustedRemote(string,address)":"19c0f12e","supportedChains(string)":"6c30aaa2","supportedChainsList(uint256)":"ee99f60b","transferOwnership(address)":"f2fde38b","trustedRemotes(string)":"4e90b9c0","unpause()":"3f4ba83a"},"id":52}