{"abi":[{"type":"constructor","inputs":[{"name":"_merkleVerifier","type":"address","internalType":"address"},{"name":"_paymentManager","type":"address","internalType":"address"},{"name":"_crossChainBridge","type":"address","internalType":"address"}],"stateMutability":"nonpayable"},{"type":"function","name":"BILL_CREATOR_ROLE","inputs":[],"outputs":[{"name":"","type":"bytes32","internalType":"bytes32"}],"stateMutability":"view"},{"type":"function","name":"DEFAULT_ADMIN_ROLE","inputs":[],"outputs":[{"name":"","type":"bytes32","internalType":"bytes32"}],"stateMutability":"view"},{"type":"function","name":"DISPUTE_RESOLVER_ROLE","inputs":[],"outputs":[{"name":"","type":"bytes32","internalType":"bytes32"}],"stateMutability":"view"},{"type":"function","name":"GROUP_ADMIN_ROLE","inputs":[],"outputs":[{"name":"","type":"bytes32","internalType":"bytes32"}],"stateMutability":"view"},{"type":"function","name":"MAX_BILL_DURATION","inputs":[],"outputs":[{"name":"","type":"uint256","internalType":"uint256"}],"stateMutability":"view"},{"type":"function","name":"MAX_GROUP_SIZE","inputs":[],"outputs":[{"name":"","type":"uint256","internalType":"uint256"}],"stateMutability":"view"},{"type":"function","name":"addMember","inputs":[{"name":"groupId","type":"bytes32","internalType":"bytes32"},{"name":"member","type":"address","internalType":"address"}],"outputs":[],"stateMutability":"nonpayable"},{"type":"function","name":"allBills","inputs":[{"name":"","type":"uint256","internalType":"uint256"}],"outputs":[{"name":"","type":"bytes32","internalType":"bytes32"}],"stateMutability":"view"},{"type":"function","name":"allGroups","inputs":[{"name":"","type":"uint256","internalType":"uint256"}],"outputs":[{"name":"","type":"bytes32","internalType":"bytes32"}],"stateMutability":"view"},{"type":"function","name":"bills","inputs":[{"name":"","type":"bytes32","internalType":"bytes32"}],"outputs":[{"name":"billId","type":"bytes32","internalType":"bytes32"},{"name":"groupId","type":"bytes32","internalType":"bytes32"},{"name":"creator","type":"address","internalType":"address"},{"name":"description","type":"string","internalType":"string"},{"name":"totalAmount","type":"uint256","internalType":"uint256"},{"name":"paymentToken","type":"address","internalType":"address"},{"name":"splitType","type":"uint8","internalType":"enum MerkleVerifier.SplitType"},{"name":"createdAt","type":"uint256","internalType":"uint256"},{"name":"dueDate","type":"uint256","internalType":"uint256"},{"name":"crossChain","type":"bool","internalType":"bool"},{"name":"settled","type":"bool","internalType":"bool"},{"name":"disputed","type":"bool","internalType":"bool"}],"stateMutability":"view"},{"type":"function","name":"canUserCreateBills","inputs":[{"name":"groupId","type":"bytes32","internalType":"bytes32"},{"name":"user","type":"address","internalType":"address"}],"outputs":[{"name":"canCreate","type":"bool","internalType":"bool"}],"stateMutability":"view"},{"type":"function","name":"createBill","inputs":[{"name":"groupId","type":"bytes32","internalType":"bytes32"},{"name":"description","type":"string","internalType":"string"},{"name":"totalAmount","type":"uint256","internalType":"uint256"},{"name":"paymentToken","type":"address","internalType":"address"},{"name":"splitType","type":"uint8","internalType":"enum MerkleVerifier.SplitType"},{"name":"memberAmounts","type":"uint256[]","internalType":"uint256[]"},{"name":"dueDate","type":"uint256","internalType":"uint256"}],"outputs":[{"name":"billId","type":"bytes32","internalType":"bytes32"}],"stateMutability":"nonpayable"},{"type":"function","name":"createCrossChainBill","inputs":[{"name":"groupId","type":"bytes32","internalType":"bytes32"},{"name":"description","type":"string","internalType":"string"},{"name":"totalAmount","type":"uint256","internalType":"uint256"},{"name":"symbol","type":"string","internalType":"string"},{"name":"participatingChains","type":"string[]","internalType":"string[]"},{"name":"chainAmounts","type":"uint256[]","internalType":"uint256[]"},{"name":"dueDate","type":"uint256","internalType":"uint256"}],"outputs":[{"name":"billId","type":"bytes32","internalType":"bytes32"}],"stateMutability":"nonpayable"},{"type":"function","name":"createGroup","inputs":[{"name":"name","type":"string","internalType":"string"},{"name":"description","type":"string","internalType":"string"},{"name":"initialMembers","type":"address[]","internalType":"address[]"}],"outputs":[{"name":"groupId","type":"bytes32","internalType":"bytes32"}],"stateMutability":"nonpayable"},{"type":"function","name":"crossChainBridge","inputs":[],"outputs":[{"name":"","type":"address","internalType":"contract CrossChainBridge"}],"stateMutability":"view"},{"type":"function","name":"emergencyStop","inputs":[{"name":"reason","type":"string","internalType":"string"}],"outputs":[],"stateMutability":"nonpayable"},{"type":"function","name":"getAllGroups","inputs":[{"name":"offset","type":"uint256","internalType":"uint256"},{"name":"limit","type":"uint256","internalType":"uint256"}],"outputs":[{"name":"groupIds","type":"bytes32[]","internalType":"bytes32[]"}],"stateMutability":"view"},{"type":"function","name":"getBill","inputs":[{"name":"billId","type":"bytes32","internalType":"bytes32"}],"outputs":[{"name":"groupId","type":"bytes32","internalType":"bytes32"},{"name":"creator","type":"address","internalType":"address"},{"name":"description","type":"string","internalType":"string"},{"name":"totalAmount","type":"uint256","internalType":"uint256"},{"name":"paymentToken","type":"address","internalType":"address"},{"name":"members","type":"address[]","internalType":"address[]"},{"name":"memberAmounts","type":"uint256[]","internalType":"uint256[]"},{"name":"dueDate","type":"uint256","internalType":"uint256"},{"name":"settled","type":"bool","internalType":"bool"},{"name":"crossChain","type":"bool","internalType":"bool"}],"stateMutability":"view"},{"type":"function","name":"getGroup","inputs":[{"name":"groupId","type":"bytes32","internalType":"bytes32"}],"outputs":[{"name":"name","type":"string","internalType":"string"},{"name":"description","type":"string","internalType":"string"},{"name":"creator","type":"address","internalType":"address"},{"name":"members","type":"address[]","internalType":"address[]"},{"name":"groupTotalBills","type":"uint256","internalType":"uint256"},{"name":"groupTotalSettled","type":"uint256","internalType":"uint256"},{"name":"active","type":"bool","internalType":"bool"}],"stateMutability":"view"},{"type":"function","name":"getGroupBills","inputs":[{"name":"groupId","type":"bytes32","internalType":"bytes32"}],"outputs":[{"name":"billIds","type":"bytes32[]","internalType":"bytes32[]"}],"stateMutability":"view"},{"type":"function","name":"getRoleAdmin","inputs":[{"name":"role","type":"bytes32","internalType":"bytes32"}],"outputs":[{"name":"","type":"bytes32","internalType":"bytes32"}],"stateMutability":"view"},{"type":"function","name":"getStats","inputs":[],"outputs":[{"name":"","type":"uint256","internalType":"uint256"},{"name":"","type":"uint256","internalType":"uint256"}],"stateMutability":"view"},{"type":"function","name":"getUserBills","inputs":[{"name":"user","type":"address","internalType":"address"}],"outputs":[{"name":"billIds","type":"bytes32[]","internalType":"bytes32[]"}],"stateMutability":"view"},{"type":"function","name":"getUserGroups","inputs":[{"name":"user","type":"address","internalType":"address"}],"outputs":[{"name":"groupIds","type":"bytes32[]","internalType":"bytes32[]"}],"stateMutability":"view"},{"type":"function","name":"grantRole","inputs":[{"name":"role","type":"bytes32","internalType":"bytes32"},{"name":"account","type":"address","internalType":"address"}],"outputs":[],"stateMutability":"nonpayable"},{"type":"function","name":"groupBills","inputs":[{"name":"","type":"bytes32","internalType":"bytes32"},{"name":"","type":"uint256","internalType":"uint256"}],"outputs":[{"name":"","type":"bytes32","internalType":"bytes32"}],"stateMutability":"view"},{"type":"function","name":"groups","inputs":[{"name":"","type":"bytes32","internalType":"bytes32"}],"outputs":[{"name":"groupId","type":"bytes32","internalType":"bytes32"},{"name":"name","type":"string","internalType":"string"},{"name":"description","type":"string","internalType":"string"},{"name":"creator","type":"address","internalType":"address"},{"name":"createdAt","type":"uint256","internalType":"uint256"},{"name":"totalBills","type":"uint256","internalType":"uint256"},{"name":"totalSettled","type":"uint256","internalType":"uint256"},{"name":"active","type":"bool","internalType":"bool"}],"stateMutability":"view"},{"type":"function","name":"hasRole","inputs":[{"name":"role","type":"bytes32","internalType":"bytes32"},{"name":"account","type":"address","internalType":"address"}],"outputs":[{"name":"","type":"bool","internalType":"bool"}],"stateMutability":"view"},{"type":"function","name":"isGroupMember","inputs":[{"name":"groupId","type":"bytes32","internalType":"bytes32"},{"name":"user","type":"address","internalType":"address"}],"outputs":[{"name":"isMember","type":"bool","internalType":"bool"}],"stateMutability":"view"},{"type":"function","name":"merkleVerifier","inputs":[],"outputs":[{"name":"","type":"address","internalType":"contract MerkleVerifier"}],"stateMutability":"view"},{"type":"function","name":"paused","inputs":[],"outputs":[{"name":"","type":"bool","internalType":"bool"}],"stateMutability":"view"},{"type":"function","name":"paymentManager","inputs":[],"outputs":[{"name":"","type":"address","internalType":"contract PaymentManager"}],"stateMutability":"view"},{"type":"function","name":"removeMember","inputs":[{"name":"groupId","type":"bytes32","internalType":"bytes32"},{"name":"member","type":"address","internalType":"address"}],"outputs":[],"stateMutability":"nonpayable"},{"type":"function","name":"renounceRole","inputs":[{"name":"role","type":"bytes32","internalType":"bytes32"},{"name":"callerConfirmation","type":"address","internalType":"address"}],"outputs":[],"stateMutability":"nonpayable"},{"type":"function","name":"resume","inputs":[],"outputs":[],"stateMutability":"nonpayable"},{"type":"function","name":"revokeRole","inputs":[{"name":"role","type":"bytes32","internalType":"bytes32"},{"name":"account","type":"address","internalType":"address"}],"outputs":[],"stateMutability":"nonpayable"},{"type":"function","name":"settleBill","inputs":[{"name":"billId","type":"bytes32","internalType":"bytes32"}],"outputs":[],"stateMutability":"nonpayable"},{"type":"function","name":"supportsInterface","inputs":[{"name":"interfaceId","type":"bytes4","internalType":"bytes4"}],"outputs":[{"name":"","type":"bool","internalType":"bool"}],"stateMutability":"view"},{"type":"function","name":"totalBills","inputs":[],"outputs":[{"name":"","type":"uint256","internalType":"uint256"}],"stateMutability":"view"},{"type":"function","name":"totalGroups","inputs":[],"outputs":[{"name":"","type":"uint256","internalType":"uint256"}],"stateMutability":"view"},{"type":"function","name":"updateMemberPermissions","inputs":[{"name":"groupId","type":"bytes32","internalType":"bytes32"},{"name":"member","type":"address","internalType":"address"},{"name":"canCreateBills","type":"bool","internalType":"bool"}],"outputs":[],"stateMutability":"nonpayable"},{"type":"function","name":"userBills","inputs":[{"name":"","type":"address","internalType":"address"},{"name":"","type":"uint256","internalType":"uint256"}],"outputs":[{"name":"","type":"bytes32","internalType":"bytes32"}],"stateMutability":"view"},{"type":"function","name":"userGroups","inputs":[{"name":"","type":"address","internalType":"address"},{"name":"","type":"uint256","internalType":"uint256"}],"outputs":[{"name":"","type":"bytes32","internalType":"bytes32"}],"stateMutability":"view"},{"type":"event","name":"BillCreated","inputs":[{"name":"billId","type":"bytes32","indexed":true,"internalType":"bytes32"},{"name":"groupId","type":"bytes32","indexed":true,"internalType":"bytes32"},{"name":"creator","type":"address","indexed":true,"internalType":"address"},{"name":"amount","type":"uint256","indexed":false,"internalType":"uint256"}],"anonymous":false},{"type":"event","name":"BillSettled","inputs":[{"name":"billId","type":"bytes32","indexed":true,"internalType":"bytes32"},{"name":"totalSettled","type":"uint256","indexed":false,"internalType":"uint256"}],"anonymous":false},{"type":"event","name":"CrossChainBillCreated","inputs":[{"name":"billId","type":"bytes32","indexed":true,"internalType":"bytes32"},{"name":"chains","type":"string[]","indexed":false,"internalType":"string[]"},{"name":"amounts","type":"uint256[]","indexed":false,"internalType":"uint256[]"}],"anonymous":false},{"type":"event","name":"EmergencyStop","inputs":[{"name":"admin","type":"address","indexed":true,"internalType":"address"},{"name":"reason","type":"string","indexed":false,"internalType":"string"}],"anonymous":false},{"type":"event","name":"GroupCreated","inputs":[{"name":"groupId","type":"bytes32","indexed":true,"internalType":"bytes32"},{"name":"creator","type":"address","indexed":true,"internalType":"address"},{"name":"name","type":"string","indexed":false,"internalType":"string"}],"anonymous":false},{"type":"event","name":"GroupPermissionUpdated","inputs":[{"name":"groupId","type":"bytes32","indexed":true,"internalType":"bytes32"},{"name":"member","type":"address","indexed":true,"internalType":"address"},{"name":"canCreateBills","type":"bool","indexed":false,"internalType":"bool"}],"anonymous":false},{"type":"event","name":"MemberAdded","inputs":[{"name":"groupId","type":"bytes32","indexed":true,"internalType":"bytes32"},{"name":"member","type":"address","indexed":true,"internalType":"address"},{"name":"addedBy","type":"address","indexed":true,"internalType":"address"}],"anonymous":false},{"type":"event","name":"MemberRemoved","inputs":[{"name":"groupId","type":"bytes32","indexed":true,"internalType":"bytes32"},{"name":"member","type":"address","indexed":true,"internalType":"address"},{"name":"removedBy","type":"address","indexed":true,"internalType":"address"}],"anonymous":false},{"type":"event","name":"Paused","inputs":[{"name":"account","type":"address","indexed":false,"internalType":"address"}],"anonymous":false},{"type":"event","name":"RoleAdminChanged","inputs":[{"name":"role","type":"bytes32","indexed":true,"internalType":"bytes32"},{"name":"previousAdminRole","type":"bytes32","indexed":true,"internalType":"bytes32"},{"name":"newAdminRole","type":"bytes32","indexed":true,"internalType":"bytes32"}],"anonymous":false},{"type":"event","name":"RoleGranted","inputs":[{"name":"role","type":"bytes32","indexed":true,"internalType":"bytes32"},{"name":"account","type":"address","indexed":true,"internalType":"address"},{"name":"sender","type":"address","indexed":true,"internalType":"address"}],"anonymous":false},{"type":"event","name":"RoleRevoked","inputs":[{"name":"role","type":"bytes32","indexed":true,"internalType":"bytes32"},{"name":"account","type":"address","indexed":true,"internalType":"address"},{"name":"sender","type":"address","indexed":true,"internalType":"address"}],"anonymous":false},{"type":"event","name":"Unpaused","inputs":[{"name":"account","type":"address","indexed":false,"internalType":"address"}],"anonymous":false},{"type":"error","name":"AccessControlBadConfirmation","inputs":[]},{"type":"error","name":"AccessControlUnauthorizedAccount","inputs":[{"name":"account","type":"address","internalType":"address"},{"name":"neededRole","type":"bytes32","internalType":"bytes32"}]},{"type":"error","name":"BillAlreadySettled","inputs":[]},{"type":"error","name":"BillNotFound","inputs":[]},{"type":"error","name":"EnforcedPause","inputs":[]},{"type":"error","name":"ExpectedPause","inputs":[]},{"type":"error","name":"GroupNotFound","inputs":[]},{"type":"error","name":"GroupSizeLimitExceeded","inputs":[]},{"type":"error","name":"InsufficientPermissions","inputs":[]},{"type":"error","name":"InvalidBillAmount","inputs":[]},{"type":"error","name":"InvalidGroupConfiguration","inputs":[]},{"type":"error","name":"MemberAlreadyExists","inputs":[]},{"type":"error","name":"MemberNotFound","inputs":[]},{"type":"error","name":"ReentrancyGuardReentrantCall","inputs":[]},{"type":"error","name":"UnauthorizedAccess","inputs":[]}],"bytecode":{"object":"0x60e060405234801561000f575f5ffd5b50604051615bd7380380615bd7833981810160405281019061003191906102dd565b600180819055508273ffffffffffffffffffffffffffffffffffffffff1660808173ffffffffffffffffffffffffffffffffffffffff16815250508173ffffffffffffffffffffffffffffffffffffffff1660a08173ffffffffffffffffffffffffffffffffffffffff16815250508073ffffffffffffffffffffffffffffffffffffffff1660c08173ffffffffffffffffffffffffffffffffffffffff16815250506100e65f5f1b3361012060201b60201c565b506101177f7b8bb8356a3f32f5c111ff23f050d97f08988e0883529ea7bff3b918887a6e0e3361012060201b60201c565b5050505061032d565b5f610131838361021560201b60201c565b61020b5760015f5f8581526020019081526020015f205f015f8473ffffffffffffffffffffffffffffffffffffffff1673ffffffffffffffffffffffffffffffffffffffff1681526020019081526020015f205f6101000a81548160ff0219169083151502179055506101a861027860201b60201c565b73ffffffffffffffffffffffffffffffffffffffff168273ffffffffffffffffffffffffffffffffffffffff16847f2f8788117e7eff1d82e926ec794901d17c78024a50270940304540a733656f0d60405160405180910390a46001905061020f565b5f90505b92915050565b5f5f5f8481526020019081526020015f205f015f8373ffffffffffffffffffffffffffffffffffffffff1673ffffffffffffffffffffffffffffffffffffffff1681526020019081526020015f205f9054906101000a900460ff16905092915050565b5f33905090565b5f5ffd5b5f73ffffffffffffffffffffffffffffffffffffffff82169050919050565b5f6102ac82610283565b9050919050565b6102bc816102a2565b81146102c6575f5ffd5b50565b5f815190506102d7816102b3565b92915050565b5f5f5f606084860312156102f4576102f361027f565b5b5f610301868287016102c9565b9350506020610312868287016102c9565b9250506040610323868287016102c9565b9150509250925092565b60805160a05160c05161585d61037a5f395f8181611be201526134e601525f8181610a480152818161327a015261345901525f8181610ec101528181612eeb0152613068015261585d5ff3fe608060405234801561000f575f5ffd5b5060043610610266575f3560e01c8063682ab7431161014f578063b3e26566116100c1578063cb3022ff11610085578063cb3022ff146107d9578063d547741f14610809578063e65ef7f514610825578063ef161bcb14610855578063f4373e221461088c578063fd16c1d3146108bc57610266565b8063b3e265661461072a578063b567d4ba14610748578063bfe42a371461077e578063c59d48471461079c578063c75f2893146107bb57610266565b8063a449718211610113578063a449718214610625578063a6bfb1b014610660578063a766489914610690578063ae599be7146106c0578063aee1fe49146106f0578063b1e3268b1461070e57610266565b8063682ab7431461055b57806391d148541461058b57806392bef1af146105bb5780639a737486146105eb578063a217fddf1461060757610266565b806336568abe116101e85780634092e2c2116101ac5780634092e2c2146104875780634ca1ab6b146104a35780635c366550146104c15780635c975abb146104dd57806360a9e097146104fb57806363ca23f01461052b57610266565b806336568abe146103e15780633779748f146103fd578063381b54af1461041b57806339505737146104395780633da04e4a1461045757610266565b806317754cd51161022f57806317754cd51461030e578063248a9ca31461032c57806325ade5ff1461035c5780632f2ff15d1461038c578063342c196c146103a857610266565b806249f41a1461026a57806301ffc9a71461029a578063046f7da2146102ca57806307cd7f7f146102d45780630cec8e7a146102f0575b5f5ffd5b610284600480360381019061027f9190613eec565b6108ec565b6040516102919190613f2f565b60405180910390f35b6102b460048036038101906102af9190613f9d565b61090c565b6040516102c19190613fe2565b60405180910390f35b6102d2610985565b005b6102ee60048036038101906102e99190614025565b61099c565b005b6102f8610b62565b6040516103059190613f2f565b60405180910390f35b610316610b86565b604051610323919061405f565b60405180910390f35b61034660048036038101906103419190614025565b610b8b565b6040516103539190613f2f565b60405180910390f35b61037660048036038101906103719190614078565b610ba7565b6040516103839190613f2f565b60405180910390f35b6103a660048036038101906103a19190614110565b610bd2565b005b6103c260048036038101906103bd9190614025565b610bf4565b6040516103d89a9998979695949392919061433b565b60405180910390f35b6103fb60048036038101906103f69190614110565b610e1a565b005b610405610e95565b6040516104129190613f2f565b60405180910390f35b610423610eb9565b604051610430919061405f565b60405180910390f35b610441610ebf565b60405161044e9190614445565b60405180910390f35b610471600480360381019061046c919061445e565b610ee3565b60405161047e9190614540565b60405180910390f35b6104a1600480360381019061049c9190614110565b610f76565b005b6104ab611353565b6040516104b8919061405f565b60405180910390f35b6104db60048036038101906104d6919061458a565b61135a565b005b6104e5611579565b6040516104f29190613fe2565b60405180910390f35b610515600480360381019061051091906145da565b61158e565b6040516105229190613f2f565b60405180910390f35b61054560048036038101906105409190614618565b6115b9565b6040516105529190614540565b60405180910390f35b610575600480360381019061057091906145da565b6116fc565b6040516105829190613f2f565b60405180910390f35b6105a560048036038101906105a09190614110565b611727565b6040516105b29190613fe2565b60405180910390f35b6105d560048036038101906105d09190614761565b61178a565b6040516105e29190613f2f565b60405180910390f35b61060560048036038101906106009190614110565b611db7565b005b61060f612394565b60405161061c9190613f2f565b60405180910390f35b61063f600480360381019061063a9190614025565b61239a565b6040516106579c9b9a999897969594939291906148f1565b60405180910390f35b61067a60048036038101906106759190614a05565b6124ec565b6040516106879190613f2f565b60405180910390f35b6106aa60048036038101906106a59190614025565b612a98565b6040516106b79190614540565b60405180910390f35b6106da60048036038101906106d59190614ad8565b612aff565b6040516106e79190613f2f565b60405180910390f35b6106f8613457565b6040516107059190614bd4565b60405180910390f35b61072860048036038101906107239190614bed565b61347b565b005b6107326134e4565b60405161073f9190614c58565b60405180910390f35b610762600480360381019061075d9190614025565b613508565b6040516107759796959493929190614c71565b60405180910390f35b610786613723565b6040516107939190613f2f565b60405180910390f35b6107a4613747565b6040516107b2929190614cf3565b60405180910390f35b6107c3613757565b6040516107d0919061405f565b60405180910390f35b6107f360048036038101906107ee9190614110565b61375d565b6040516108009190613fe2565b60405180910390f35b610823600480360381019061081e9190614110565b6137c2565b005b61083f600480360381019061083a919061445e565b6137e4565b60405161084c9190614540565b60405180910390f35b61086f600480360381019061086a9190614025565b613877565b604051610883989796959493929190614d1a565b60405180910390f35b6108a660048036038101906108a19190614110565b6139f2565b6040516108b39190613fe2565b60405180910390f35b6108d660048036038101906108d19190613eec565b613a57565b6040516108e39190613f2f565b60405180910390f35b600b81815481106108fb575f80fd5b905f5260205f20015f915090505481565b5f7f7965db0b000000000000000000000000000000000000000000000000000000007bffffffffffffffffffffffffffffffffffffffffffffffffffffffff1916827bffffffffffffffffffffffffffffffffffffffffffffffffffffffff1916148061097e575061097d82613a77565b5b9050919050565b5f5f1b61099181613ae0565b610999613af4565b50565b6109a4613b55565b6109ac613b9b565b5f60045f8381526020019081526020015f2090505f5f1b815f0154036109fe576040517fcf897cfb00000000000000000000000000000000000000000000000000000000815260040160405180910390fd5b80600d015f9054906101000a900460ff1615610a46576040517f7ac2585b00000000000000000000000000000000000000000000000000000000815260040160405180910390fd5b7f000000000000000000000000000000000000000000000000000000000000000073ffffffffffffffffffffffffffffffffffffffff166386607cb7836040518263ffffffff1660e01b8152600401610a9f9190613f2f565b5f604051808303815f87803b158015610ab6575f5ffd5b505af1158015610ac8573d5f5f3e3d5ffd5b50505050600181600d015f6101000a81548160ff0219169083151502179055505f60035f836001015481526020019081526020015f209050806009015f815480929190610b1490614dd1565b9190505550827fef2ee3d7c43d3348d6c7a4ea89b775da73e294076d4763f81c6031724b4655478360040154604051610b4d919061405f565b60405180910390a25050610b5f613bdc565b50565b7f9037db4b5f898545654918dae90413d36e46a066a2032ab38fb124ff80ecb3a581565b603281565b5f5f5f8381526020019081526020015f20600101549050919050565b6007602052815f5260405f208181548110610bc0575f80fd5b905f5260205f20015f91509150505481565b610bdb82610b8b565b610be481613ae0565b610bee8383613be5565b50505050565b5f5f60605f5f6060805f5f5f5f60045f8d81526020019081526020015f2090508060010154816002015f9054906101000a900473ffffffffffffffffffffffffffffffffffffffff16826003018360040154846005015f9054906101000a900473ffffffffffffffffffffffffffffffffffffffff168560060186600701876009015488600d015f9054906101000a900460ff1689600a015f9054906101000a900460ff16878054610ca590614e45565b80601f0160208091040260200160405190810160405280929190818152602001828054610cd190614e45565b8015610d1c5780601f10610cf357610100808354040283529160200191610d1c565b820191905f5260205f20905b815481529060010190602001808311610cff57829003601f168201915b5050505050975084805480602002602001604051908101604052809291908181526020018280548015610da157602002820191905f5260205f20905b815f9054906101000a900473ffffffffffffffffffffffffffffffffffffffff1673ffffffffffffffffffffffffffffffffffffffff1681526020019060010190808311610d58575b5050505050945083805480602002602001604051908101604052809291908181526020018280548015610df157602002820191905f5260205f20905b815481526020019060010190808311610ddd575b505050505093509a509a509a509a509a509a509a509a509a509a50509193959799509193959799565b610e22613cce565b73ffffffffffffffffffffffffffffffffffffffff168173ffffffffffffffffffffffffffffffffffffffff1614610e86576040517f6697b23200000000000000000000000000000000000000000000000000000000815260040160405180910390fd5b610e908282613cd5565b505050565b7f18527a1dc729a066c7898d2de2171aeeccaea343b55b31ff93a5dfe39c4c98a281565b60095481565b7f000000000000000000000000000000000000000000000000000000000000000081565b606060055f8373ffffffffffffffffffffffffffffffffffffffff1673ffffffffffffffffffffffffffffffffffffffff1681526020019081526020015f20805480602002602001604051908101604052809291908181526020018280548015610f6a57602002820191905f5260205f20905b815481526020019060010190808311610f56575b50505050509050919050565b610f7e613b55565b610f86613b9b565b5f60035f8481526020019081526020015f2090505f5f1b815f015403610fd8576040517fa5edf99300000000000000000000000000000000000000000000000000000000815260040160405180910390fd5b806005015f3373ffffffffffffffffffffffffffffffffffffffff1673ffffffffffffffffffffffffffffffffffffffff1681526020019081526020015f205f9054906101000a900460ff16158061107f5750806003015f9054906101000a900473ffffffffffffffffffffffffffffffffffffffff1673ffffffffffffffffffffffffffffffffffffffff163373ffffffffffffffffffffffffffffffffffffffff1614155b156110b6576040517f344fd58600000000000000000000000000000000000000000000000000000000815260040160405180910390fd5b806005015f8373ffffffffffffffffffffffffffffffffffffffff1673ffffffffffffffffffffffffffffffffffffffff1681526020019081526020015f205f9054906101000a900460ff1615611139576040517fe015095200000000000000000000000000000000000000000000000000000000815260040160405180910390fd5b603281600401805490501061117a576040517f8d96cb3000000000000000000000000000000000000000000000000000000000815260040160405180910390fd5b8060040182908060018154018082558091505060019003905f5260205f20015f9091909190916101000a81548173ffffffffffffffffffffffffffffffffffffffff021916908373ffffffffffffffffffffffffffffffffffffffff1602179055506001816005015f8473ffffffffffffffffffffffffffffffffffffffff1673ffffffffffffffffffffffffffffffffffffffff1681526020019081526020015f205f6101000a81548160ff0219169083151502179055506001816006015f8473ffffffffffffffffffffffffffffffffffffffff1673ffffffffffffffffffffffffffffffffffffffff1681526020019081526020015f205f6101000a81548160ff02191690831515021790555060055f8373ffffffffffffffffffffffffffffffffffffffff1673ffffffffffffffffffffffffffffffffffffffff1681526020019081526020015f2083908060018154018082558091505060019003905f5260205f20015f90919091909150553373ffffffffffffffffffffffffffffffffffffffff168273ffffffffffffffffffffffffffffffffffffffff16847fc45b06cdba4c6571442bc66a5f531757b478e6a049b3c25a8418919893769f0660405160405180910390a45061134f613bdc565b5050565b62278d0081565b611362613b55565b61136a613b9b565b5f60035f8581526020019081526020015f2090505f5f1b815f0154036113bc576040517fa5edf99300000000000000000000000000000000000000000000000000000000815260040160405180910390fd5b806003015f9054906101000a900473ffffffffffffffffffffffffffffffffffffffff1673ffffffffffffffffffffffffffffffffffffffff163373ffffffffffffffffffffffffffffffffffffffff1614611444576040517f344fd58600000000000000000000000000000000000000000000000000000000815260040160405180910390fd5b806005015f8473ffffffffffffffffffffffffffffffffffffffff1673ffffffffffffffffffffffffffffffffffffffff1681526020019081526020015f205f9054906101000a900460ff166114c6576040517f1fdd7d6300000000000000000000000000000000000000000000000000000000815260040160405180910390fd5b81816006015f8573ffffffffffffffffffffffffffffffffffffffff1673ffffffffffffffffffffffffffffffffffffffff1681526020019081526020015f205f6101000a81548160ff0219169083151502179055508273ffffffffffffffffffffffffffffffffffffffff16847f4eae435b13b9f431bc5601d8d19835b47071b4e9db71c96f2c9525020e4707f2846040516115639190613fe2565b60405180910390a350611574613bdc565b505050565b5f60025f9054906101000a900460ff16905090565b6005602052815f5260405f2081815481106115a7575f80fd5b905f5260205f20015f91509150505481565b6060600a805490508310611617575f67ffffffffffffffff8111156115e1576115e0614e75565b5b60405190808252806020026020018201604052801561160f5781602001602082028036833780820191505090505b5090506116f6565b5f82846116249190614ea2565b9050600a8054905081111561163c57600a8054905090505b83816116489190614ed5565b67ffffffffffffffff81111561166157611660614e75565b5b60405190808252806020026020018201604052801561168f5781602001602082028036833780820191505090505b5091505f8490505b818110156116f357600a81815481106116b3576116b2614f08565b5b905f5260205f2001548386836116c99190614ed5565b815181106116da576116d9614f08565b5b6020026020010181815250508080600101915050611697565b50505b92915050565b6006602052815f5260405f208181548110611715575f80fd5b905f5260205f20015f91509150505481565b5f5f5f8481526020019081526020015f205f015f8373ffffffffffffffffffffffffffffffffffffffff1673ffffffffffffffffffffffffffffffffffffffff1681526020019081526020015f205f9054906101000a900460ff16905092915050565b5f611793613b55565b61179b613b9b565b5f60035f8e81526020019081526020015f2090505f5f1b815f0154036117ed576040517fa5edf99300000000000000000000000000000000000000000000000000000000815260040160405180910390fd5b806005015f3373ffffffffffffffffffffffffffffffffffffffff1673ffffffffffffffffffffffffffffffffffffffff1681526020019081526020015f205f9054906101000a900460ff16158061188e5750806006015f3373ffffffffffffffffffffffffffffffffffffffff1673ffffffffffffffffffffffffffffffffffffffff1681526020019081526020015f205f9054906101000a900460ff16155b156118c5576040517f344fd58600000000000000000000000000000000000000000000000000000000815260040160405180910390fd5b5f8a036118fe576040517f06d22e3300000000000000000000000000000000000000000000000000000000815260040160405180910390fd5b84849050878790501461193d576040517f06d22e3300000000000000000000000000000000000000000000000000000000815260040160405180910390fd5b8c33426009546040516020016119569493929190614fba565b6040516020818303038152906040528051906020012091505f60045f8481526020019081526020015f20905082815f01819055508d816001018190555033816002015f6101000a81548173ffffffffffffffffffffffffffffffffffffffff021916908373ffffffffffffffffffffffffffffffffffffffff1602179055508c8c8260030191826119e89291906151a8565b508a81600401819055505f5f90505b8260040180549050811015611ab25781600601836004018281548110611a2057611a1f614f08565b5b905f5260205f20015f9054906101000a900473ffffffffffffffffffffffffffffffffffffffff16908060018154018082558091505060019003905f5260205f20015f9091909190916101000a81548173ffffffffffffffffffffffffffffffffffffffff021916908373ffffffffffffffffffffffffffffffffffffffff16021790555080806001019150506119f7565b50428160080181905550838160090181905550600181600a015f6101000a81548160ff0219169083151502179055505f5f90505b88889050811015611b5e5781600b01898983818110611b0857611b07614f08565b5b9050602002810190611b1a9190615281565b90918060018154018082558091505060019003905f5260205f20015f909192909192909192909192509182611b509291906151a8565b508080600101915050611ae6565b505f5f90505b88889050811015611bdf57868682818110611b8257611b81614f08565b5b9050602002013582600c018a8a84818110611ba057611b9f614f08565b5b9050602002810190611bb29190615281565b604051611bc092919061531f565b9081526020016040518091039020819055508080600101915050611b64565b507f000000000000000000000000000000000000000000000000000000000000000073ffffffffffffffffffffffffffffffffffffffff1663514654a5848d8d8d8d8d8d8d6040518963ffffffff1660e01b8152600401611c47989796959493929190615523565b5f604051808303815f87803b158015611c5e575f5ffd5b505af1158015611c70573d5f5f3e3d5ffd5b5050505060075f8f81526020019081526020015f2083908060018154018082558091505060019003905f5260205f20015f909190919091505560065f3373ffffffffffffffffffffffffffffffffffffffff1673ffffffffffffffffffffffffffffffffffffffff1681526020019081526020015f2083908060018154018082558091505060019003905f5260205f20015f9091909190915055600b83908060018154018082558091505060019003905f5260205f20015f9091909190915055816008015f815480929190611d4490614dd1565b919050555060095f815480929190611d5b90614dd1565b9190505550827fa977cc4928b1cfe21b5c7a4cb09df5e88b5709ec9f324b19d29fd0868065d89d89898989604051611d96949392919061558f565b60405180910390a25050611da8613bdc565b9b9a5050505050505050505050565b611dbf613b55565b611dc7613b9b565b5f60035f8481526020019081526020015f2090505f5f1b815f015403611e19576040517fa5edf99300000000000000000000000000000000000000000000000000000000815260040160405180910390fd5b806005015f3373ffffffffffffffffffffffffffffffffffffffff1673ffffffffffffffffffffffffffffffffffffffff1681526020019081526020015f205f9054906101000a900460ff161580611ec05750806003015f9054906101000a900473ffffffffffffffffffffffffffffffffffffffff1673ffffffffffffffffffffffffffffffffffffffff163373ffffffffffffffffffffffffffffffffffffffff1614155b15611ef7576040517f344fd58600000000000000000000000000000000000000000000000000000000815260040160405180910390fd5b806005015f8373ffffffffffffffffffffffffffffffffffffffff1673ffffffffffffffffffffffffffffffffffffffff1681526020019081526020015f205f9054906101000a900460ff16611f79576040517f1fdd7d6300000000000000000000000000000000000000000000000000000000815260040160405180910390fd5b806003015f9054906101000a900473ffffffffffffffffffffffffffffffffffffffff1673ffffffffffffffffffffffffffffffffffffffff168273ffffffffffffffffffffffffffffffffffffffff1603612001576040517f344fd58600000000000000000000000000000000000000000000000000000000815260040160405180910390fd5b5f5f90505b8160040180549050811015612189578273ffffffffffffffffffffffffffffffffffffffff1682600401828154811061204257612041614f08565b5b905f5260205f20015f9054906101000a900473ffffffffffffffffffffffffffffffffffffffff1673ffffffffffffffffffffffffffffffffffffffff160361217c57816004016001836004018054905061209d9190614ed5565b815481106120ae576120ad614f08565b5b905f5260205f20015f9054906101000a900473ffffffffffffffffffffffffffffffffffffffff168260040182815481106120ec576120eb614f08565b5b905f5260205f20015f6101000a81548173ffffffffffffffffffffffffffffffffffffffff021916908373ffffffffffffffffffffffffffffffffffffffff16021790555081600401805480612145576121446155c8565b5b600190038181905f5260205f20015f6101000a81549073ffffffffffffffffffffffffffffffffffffffff02191690559055612189565b8080600101915050612006565b505f816005015f8473ffffffffffffffffffffffffffffffffffffffff1673ffffffffffffffffffffffffffffffffffffffff1681526020019081526020015f205f6101000a81548160ff0219169083151502179055505f816006015f8473ffffffffffffffffffffffffffffffffffffffff1673ffffffffffffffffffffffffffffffffffffffff1681526020019081526020015f205f6101000a81548160ff0219169083151502179055505f60055f8473ffffffffffffffffffffffffffffffffffffffff1673ffffffffffffffffffffffffffffffffffffffff1681526020019081526020015f2090505f5f90505b818054905081101561232a578482828154811061229b5761229a614f08565b5b905f5260205f2001540361231d5781600183805490506122bb9190614ed5565b815481106122cc576122cb614f08565b5b905f5260205f2001548282815481106122e8576122e7614f08565b5b905f5260205f20018190555081805480612305576123046155c8565b5b600190038181905f5260205f20015f9055905561232a565b808060010191505061227b565b503373ffffffffffffffffffffffffffffffffffffffff168373ffffffffffffffffffffffffffffffffffffffff16857f74d78161142bc7abfae490cfa7e81d2f77b767ecced099c0817347c43a49d11c60405160405180910390a45050612390613bdc565b5050565b5f5f1b81565b6004602052805f5260405f205f91509050805f015490806001015490806002015f9054906101000a900473ffffffffffffffffffffffffffffffffffffffff16908060030180546123ea90614e45565b80601f016020809104026020016040519081016040528092919081815260200182805461241690614e45565b80156124615780601f1061243857610100808354040283529160200191612461565b820191905f5260205f20905b81548152906001019060200180831161244457829003601f168201915b505050505090806004015490806005015f9054906101000a900473ffffffffffffffffffffffffffffffffffffffff16908060050160149054906101000a900460ff169080600801549080600901549080600a015f9054906101000a900460ff169080600d015f9054906101000a900460ff169080600d0160019054906101000a900460ff1690508c565b5f6124f5613b55565b6124fd613b9b565b603283839050111561253b576040517f8d96cb3000000000000000000000000000000000000000000000000000000000815260040160405180910390fd5b3342600854604051602001612552939291906155f5565b6040516020818303038152906040528051906020012090505f60035f8381526020019081526020015f20905081815f018190555087878260010191826125999291906151a8565b5085858260020191826125ad9291906151a8565b5033816003015f6101000a81548173ffffffffffffffffffffffffffffffffffffffff021916908373ffffffffffffffffffffffffffffffffffffffff160217905550428160070181905550600181600a015f6101000a81548160ff0219169083151502179055508060040133908060018154018082558091505060019003905f5260205f20015f9091909190916101000a81548173ffffffffffffffffffffffffffffffffffffffff021916908373ffffffffffffffffffffffffffffffffffffffff1602179055506001816005015f3373ffffffffffffffffffffffffffffffffffffffff1673ffffffffffffffffffffffffffffffffffffffff1681526020019081526020015f205f6101000a81548160ff0219169083151502179055506001816006015f3373ffffffffffffffffffffffffffffffffffffffff1673ffffffffffffffffffffffffffffffffffffffff1681526020019081526020015f205f6101000a81548160ff0219169083151502179055505f5f90505b8484905081101561296a575f85858381811061274957612748614f08565b5b905060200201602081019061275e919061445e565b90503373ffffffffffffffffffffffffffffffffffffffff168173ffffffffffffffffffffffffffffffffffffffff16141580156127e55750826005015f8273ffffffffffffffffffffffffffffffffffffffff1673ffffffffffffffffffffffffffffffffffffffff1681526020019081526020015f205f9054906101000a900460ff16155b1561295c578260040181908060018154018082558091505060019003905f5260205f20015f9091909190916101000a81548173ffffffffffffffffffffffffffffffffffffffff021916908373ffffffffffffffffffffffffffffffffffffffff1602179055506001836005015f8373ffffffffffffffffffffffffffffffffffffffff1673ffffffffffffffffffffffffffffffffffffffff1681526020019081526020015f205f6101000a81548160ff0219169083151502179055506001836006015f8373ffffffffffffffffffffffffffffffffffffffff1673ffffffffffffffffffffffffffffffffffffffff1681526020019081526020015f205f6101000a81548160ff02191690831515021790555060055f8273ffffffffffffffffffffffffffffffffffffffff1673ffffffffffffffffffffffffffffffffffffffff1681526020019081526020015f2084908060018154018082558091505060019003905f5260205f20015f90919091909150555b50808060010191505061272a565b5060055f3373ffffffffffffffffffffffffffffffffffffffff1673ffffffffffffffffffffffffffffffffffffffff1681526020019081526020015f2082908060018154018082558091505060019003905f5260205f20015f9091909190915055600a82908060018154018082558091505060019003905f5260205f20015f909190919091505560085f815480929190612a0490614dd1565b9190505550612a337f9037db4b5f898545654918dae90413d36e46a066a2032ab38fb124ff80ecb3a533613be5565b503373ffffffffffffffffffffffffffffffffffffffff16827f4776bb5dba13be979db246c94401749a30950726f3bd5afc4259aa667a0aa1b98a8a604051612a7d929190615631565b60405180910390a350612a8e613bdc565b9695505050505050565b606060075f8381526020019081526020015f20805480602002602001604051908101604052809291908181526020018280548015612af357602002820191905f5260205f20905b815481526020019060010190808311612adf575b50505050509050919050565b5f612b08613b55565b612b10613b9b565b5f60035f8c81526020019081526020015f2090505f5f1b815f015403612b62576040517fa5edf99300000000000000000000000000000000000000000000000000000000815260040160405180910390fd5b806005015f3373ffffffffffffffffffffffffffffffffffffffff1673ffffffffffffffffffffffffffffffffffffffff1681526020019081526020015f205f9054906101000a900460ff161580612c035750806006015f3373ffffffffffffffffffffffffffffffffffffffff1673ffffffffffffffffffffffffffffffffffffffff1681526020019081526020015f205f9054906101000a900460ff16155b15612c3a576040517f344fd58600000000000000000000000000000000000000000000000000000000815260040160405180910390fd5b5f8803612c73576040517f06d22e3300000000000000000000000000000000000000000000000000000000815260040160405180910390fd5b4283111580612c8f575062278d0042612c8c9190614ea2565b83115b15612cc6576040517f06d22e3300000000000000000000000000000000000000000000000000000000815260040160405180910390fd5b8a3342600954604051602001612cdf9493929190614fba565b6040516020818303038152906040528051906020012091505f60045f8481526020019081526020015f20905082815f01819055508b816001018190555033816002015f6101000a81548173ffffffffffffffffffffffffffffffffffffffff021916908373ffffffffffffffffffffffffffffffffffffffff1602179055508a8a826003019182612d719291906151a8565b5088816004018190555087816005015f6101000a81548173ffffffffffffffffffffffffffffffffffffffff021916908373ffffffffffffffffffffffffffffffffffffffff160217905550868160050160146101000a81548160ff02191690836002811115612de457612de361487e565b5b02179055505f5f90505b8260040180549050811015612ea95781600601836004018281548110612e1757612e16614f08565b5b905f5260205f20015f9054906101000a900473ffffffffffffffffffffffffffffffffffffffff16908060018154018082558091505060019003905f5260205f20015f9091909190916101000a81548173ffffffffffffffffffffffffffffffffffffffff021916908373ffffffffffffffffffffffffffffffffffffffff1602179055508080600101915050612dee565b504281600801819055508381600901819055505f6002811115612ecf57612ece61487e565b5b876002811115612ee257612ee161487e565b5b03612ff7575f5f7f000000000000000000000000000000000000000000000000000000000000000073ffffffffffffffffffffffffffffffffffffffff1663d37f6b3c8c86600401805490506040518363ffffffff1660e01b8152600401612f4b929190614cf3565b6040805180830381865afa158015612f65573d5f5f3e3d5ffd5b505050506040513d601f19601f82011682018060405250810190612f899190615667565b915091505f5f90505b8460040180549050811015612fef57836007015f8214612fb2575f612fb4565b825b84612fbf9190614ea2565b908060018154018082558091505060019003905f5260205f20015f90919091909150558080600101915050612f92565b505050613278565b8160040180549050868690501461303a576040517f06d22e3300000000000000000000000000000000000000000000000000000000815260040160405180910390fd5b6001600281111561304e5761304d61487e565b5b8760028111156130615761306061487e565b5b036131b2577f000000000000000000000000000000000000000000000000000000000000000073ffffffffffffffffffffffffffffffffffffffff1663be03d19b87876040518363ffffffff1660e01b81526004016130c19291906156a5565b602060405180830381865afa1580156130dc573d5f5f3e3d5ffd5b505050506040513d601f19601f8201168201806040525081019061310091906156db565b613136576040517f06d22e3300000000000000000000000000000000000000000000000000000000815260040160405180910390fd5b5f5f90505b868690508110156131ac57816007016127108888848181106131605761315f614f08565b5b905060200201358c6131729190615706565b61317c9190615774565b908060018154018082558091505060019003905f5260205f20015f9091909190915055808060010191505061313b565b50613277565b5f5f90505f5f90505b8787905081101561323b578787828181106131d9576131d8614f08565b5b90506020020135826131eb9190614ea2565b91508260070188888381811061320457613203614f08565b5b90506020020135908060018154018082558091505060019003905f5260205f20015f909190919091505580806001019150506131bb565b50898114613275576040517f06d22e3300000000000000000000000000000000000000000000000000000000815260040160405180910390fd5b505b5b7f000000000000000000000000000000000000000000000000000000000000000073ffffffffffffffffffffffffffffffffffffffff166365c20660848b8b336040518563ffffffff1660e01b81526004016132d794939291906157a4565b5f604051808303815f87803b1580156132ee575f5ffd5b505af1158015613300573d5f5f3e3d5ffd5b5050505060075f8d81526020019081526020015f2083908060018154018082558091505060019003905f5260205f20015f909190919091505560065f3373ffffffffffffffffffffffffffffffffffffffff1673ffffffffffffffffffffffffffffffffffffffff1681526020019081526020015f2083908060018154018082558091505060019003905f5260205f20015f9091909190915055600b83908060018154018082558091505060019003905f5260205f20015f9091909190915055816008015f8154809291906133d490614dd1565b919050555060095f8154809291906133eb90614dd1565b91905055503373ffffffffffffffffffffffffffffffffffffffff168c847f8444171a92bd45c9d2b09f92091d36451146c32734361f54eadcb57c852fea788c604051613438919061405f565b60405180910390a4505061344a613bdc565b9998505050505050505050565b7f000000000000000000000000000000000000000000000000000000000000000081565b5f5f1b61348781613ae0565b61348f613dbe565b3373ffffffffffffffffffffffffffffffffffffffff167f1563b77cf90dc5239369e59f415971492f0001ebea4f20a7f58d55eb638b550484846040516134d7929190615631565b60405180910390a2505050565b7f000000000000000000000000000000000000000000000000000000000000000081565b6060805f60605f5f5f5f60035f8a81526020019081526020015f2090508060010181600201826003015f9054906101000a900473ffffffffffffffffffffffffffffffffffffffff16836004018460080154856009015486600a015f9054906101000a900460ff1686805461357c90614e45565b80601f01602080910402602001604051908101604052809291908181526020018280546135a890614e45565b80156135f35780601f106135ca576101008083540402835291602001916135f3565b820191905f5260205f20905b8154815290600101906020018083116135d657829003601f168201915b5050505050965085805461360690614e45565b80601f016020809104026020016040519081016040528092919081815260200182805461363290614e45565b801561367d5780601f106136545761010080835404028352916020019161367d565b820191905f5260205f20905b81548152906001019060200180831161366057829003601f168201915b505050505095508380548060200260200160405190810160405280929190818152602001828054801561370257602002820191905f5260205f20905b815f9054906101000a900473ffffffffffffffffffffffffffffffffffffffff1673ffffffffffffffffffffffffffffffffffffffff16815260200190600101908083116136b9575b50505050509350975097509750975097509750975050919395979092949650565b7f7b8bb8356a3f32f5c111ff23f050d97f08988e0883529ea7bff3b918887a6e0e81565b5f5f600854600954915091509091565b60085481565b5f60035f8481526020019081526020015f206005015f8373ffffffffffffffffffffffffffffffffffffffff1673ffffffffffffffffffffffffffffffffffffffff1681526020019081526020015f205f9054906101000a900460ff16905092915050565b6137cb82610b8b565b6137d481613ae0565b6137de8383613cd5565b50505050565b606060065f8373ffffffffffffffffffffffffffffffffffffffff1673ffffffffffffffffffffffffffffffffffffffff1681526020019081526020015f2080548060200260200160405190810160405280929190818152602001828054801561386b57602002820191905f5260205f20905b815481526020019060010190808311613857575b50505050509050919050565b6003602052805f5260405f205f91509050805f01549080600101805461389c90614e45565b80601f01602080910402602001604051908101604052809291908181526020018280546138c890614e45565b80156139135780601f106138ea57610100808354040283529160200191613913565b820191905f5260205f20905b8154815290600101906020018083116138f657829003601f168201915b50505050509080600201805461392890614e45565b80601f016020809104026020016040519081016040528092919081815260200182805461395490614e45565b801561399f5780601f106139765761010080835404028352916020019161399f565b820191905f5260205f20905b81548152906001019060200180831161398257829003601f168201915b505050505090806003015f9054906101000a900473ffffffffffffffffffffffffffffffffffffffff169080600701549080600801549080600901549080600a015f9054906101000a900460ff16905088565b5f60035f8481526020019081526020015f206006015f8373ffffffffffffffffffffffffffffffffffffffff1673ffffffffffffffffffffffffffffffffffffffff1681526020019081526020015f205f9054906101000a900460ff16905092915050565b600a8181548110613a66575f80fd5b905f5260205f20015f915090505481565b5f7f01ffc9a7000000000000000000000000000000000000000000000000000000007bffffffffffffffffffffffffffffffffffffffffffffffffffffffff1916827bffffffffffffffffffffffffffffffffffffffffffffffffffffffff1916149050919050565b613af181613aec613cce565b613e20565b50565b613afc613e71565b5f60025f6101000a81548160ff0219169083151502179055507f5db9ee0a495bf2e6ff9c91a7834c1ba4fdd244a5e8aa4e537bd38aeae4b073aa613b3e613cce565b604051613b4b91906157e7565b60405180910390a1565b600260015403613b91576040517f3ee5aeb500000000000000000000000000000000000000000000000000000000815260040160405180910390fd5b6002600181905550565b613ba3611579565b15613bda576040517fd93c066500000000000000000000000000000000000000000000000000000000815260040160405180910390fd5b565b60018081905550565b5f613bf08383611727565b613cc45760015f5f8581526020019081526020015f205f015f8473ffffffffffffffffffffffffffffffffffffffff1673ffffffffffffffffffffffffffffffffffffffff1681526020019081526020015f205f6101000a81548160ff021916908315150217905550613c61613cce565b73ffffffffffffffffffffffffffffffffffffffff168273ffffffffffffffffffffffffffffffffffffffff16847f2f8788117e7eff1d82e926ec794901d17c78024a50270940304540a733656f0d60405160405180910390a460019050613cc8565b5f90505b92915050565b5f33905090565b5f613ce08383611727565b15613db4575f5f5f8581526020019081526020015f205f015f8473ffffffffffffffffffffffffffffffffffffffff1673ffffffffffffffffffffffffffffffffffffffff1681526020019081526020015f205f6101000a81548160ff021916908315150217905550613d51613cce565b73ffffffffffffffffffffffffffffffffffffffff168273ffffffffffffffffffffffffffffffffffffffff16847ff6391f5c32d9c69d2a47ea670b442974b53935d1edc7fd64eb21e047a839171b60405160405180910390a460019050613db8565b5f90505b92915050565b613dc6613b9b565b600160025f6101000a81548160ff0219169083151502179055507f62e78cea01bee320cd4e420270b5ea74000d11b0c9f74754ebdbfc544b05a258613e09613cce565b604051613e1691906157e7565b60405180910390a1565b613e2a8282611727565b613e6d5780826040517fe2517d3f000000000000000000000000000000000000000000000000000000008152600401613e64929190615800565b60405180910390fd5b5050565b613e79611579565b613eaf576040517f8dfc202b00000000000000000000000000000000000000000000000000000000815260040160405180910390fd5b565b5f5ffd5b5f5ffd5b5f819050919050565b613ecb81613eb9565b8114613ed5575f5ffd5b50565b5f81359050613ee681613ec2565b92915050565b5f60208284031215613f0157613f00613eb1565b5b5f613f0e84828501613ed8565b91505092915050565b5f819050919050565b613f2981613f17565b82525050565b5f602082019050613f425f830184613f20565b92915050565b5f7fffffffff0000000000000000000000000000000000000000000000000000000082169050919050565b613f7c81613f48565b8114613f86575f5ffd5b50565b5f81359050613f9781613f73565b92915050565b5f60208284031215613fb257613fb1613eb1565b5b5f613fbf84828501613f89565b91505092915050565b5f8115159050919050565b613fdc81613fc8565b82525050565b5f602082019050613ff55f830184613fd3565b92915050565b61400481613f17565b811461400e575f5ffd5b50565b5f8135905061401f81613ffb565b92915050565b5f6020828403121561403a57614039613eb1565b5b5f61404784828501614011565b91505092915050565b61405981613eb9565b82525050565b5f6020820190506140725f830184614050565b92915050565b5f5f6040838503121561408e5761408d613eb1565b5b5f61409b85828601614011565b92505060206140ac85828601613ed8565b9150509250929050565b5f73ffffffffffffffffffffffffffffffffffffffff82169050919050565b5f6140df826140b6565b9050919050565b6140ef816140d5565b81146140f9575f5ffd5b50565b5f8135905061410a816140e6565b92915050565b5f5f6040838503121561412657614125613eb1565b5b5f61413385828601614011565b9250506020614144858286016140fc565b9150509250929050565b614157816140d5565b82525050565b5f81519050919050565b5f82825260208201905092915050565b8281835e5f83830152505050565b5f601f19601f8301169050919050565b5f61419f8261415d565b6141a98185614167565b93506141b9818560208601614177565b6141c281614185565b840191505092915050565b5f81519050919050565b5f82825260208201905092915050565b5f819050602082019050919050565b6141ff816140d5565b82525050565b5f61421083836141f6565b60208301905092915050565b5f602082019050919050565b5f614232826141cd565b61423c81856141d7565b9350614247836141e7565b805f5b8381101561427757815161425e8882614205565b97506142698361421c565b92505060018101905061424a565b5085935050505092915050565b5f81519050919050565b5f82825260208201905092915050565b5f819050602082019050919050565b6142b681613eb9565b82525050565b5f6142c783836142ad565b60208301905092915050565b5f602082019050919050565b5f6142e982614284565b6142f3818561428e565b93506142fe8361429e565b805f5b8381101561432e57815161431588826142bc565b9750614320836142d3565b925050600181019050614301565b5085935050505092915050565b5f6101408201905061434f5f83018d613f20565b61435c602083018c61414e565b818103604083015261436e818b614195565b905061437d606083018a614050565b61438a608083018961414e565b81810360a083015261439c8188614228565b905081810360c08301526143b081876142df565b90506143bf60e0830186614050565b6143cd610100830185613fd3565b6143db610120830184613fd3565b9b9a5050505050505050505050565b5f819050919050565b5f61440d614408614403846140b6565b6143ea565b6140b6565b9050919050565b5f61441e826143f3565b9050919050565b5f61442f82614414565b9050919050565b61443f81614425565b82525050565b5f6020820190506144585f830184614436565b92915050565b5f6020828403121561447357614472613eb1565b5b5f614480848285016140fc565b91505092915050565b5f81519050919050565b5f82825260208201905092915050565b5f819050602082019050919050565b6144bb81613f17565b82525050565b5f6144cc83836144b2565b60208301905092915050565b5f602082019050919050565b5f6144ee82614489565b6144f88185614493565b9350614503836144a3565b805f5b8381101561453357815161451a88826144c1565b9750614525836144d8565b925050600181019050614506565b5085935050505092915050565b5f6020820190508181035f83015261455881846144e4565b905092915050565b61456981613fc8565b8114614573575f5ffd5b50565b5f8135905061458481614560565b92915050565b5f5f5f606084860312156145a1576145a0613eb1565b5b5f6145ae86828701614011565b93505060206145bf868287016140fc565b92505060406145d086828701614576565b9150509250925092565b5f5f604083850312156145f0576145ef613eb1565b5b5f6145fd858286016140fc565b925050602061460e85828601613ed8565b9150509250929050565b5f5f6040838503121561462e5761462d613eb1565b5b5f61463b85828601613ed8565b925050602061464c85828601613ed8565b9150509250929050565b5f5ffd5b5f5ffd5b5f5ffd5b5f5f83601f84011261467757614676614656565b5b8235905067ffffffffffffffff8111156146945761469361465a565b5b6020830191508360018202830111156146b0576146af61465e565b5b9250929050565b5f5f83601f8401126146cc576146cb614656565b5b8235905067ffffffffffffffff8111156146e9576146e861465a565b5b6020830191508360208202830111156147055761470461465e565b5b9250929050565b5f5f83601f84011261472157614720614656565b5b8235905067ffffffffffffffff81111561473e5761473d61465a565b5b60208301915083602082028301111561475a5761475961465e565b5b9250929050565b5f5f5f5f5f5f5f5f5f5f5f60e08c8e0312156147805761477f613eb1565b5b5f61478d8e828f01614011565b9b505060208c013567ffffffffffffffff8111156147ae576147ad613eb5565b5b6147ba8e828f01614662565b9a509a505060406147cd8e828f01613ed8565b98505060608c013567ffffffffffffffff8111156147ee576147ed613eb5565b5b6147fa8e828f01614662565b975097505060808c013567ffffffffffffffff81111561481d5761481c613eb5565b5b6148298e828f016146b7565b955095505060a08c013567ffffffffffffffff81111561484c5761484b613eb5565b5b6148588e828f0161470c565b935093505060c061486b8e828f01613ed8565b9150509295989b509295989b9093969950565b7f4e487b71000000000000000000000000000000000000000000000000000000005f52602160045260245ffd5b600381106148bc576148bb61487e565b5b50565b5f8190506148cc826148ab565b919050565b5f6148db826148bf565b9050919050565b6148eb816148d1565b82525050565b5f610180820190506149055f83018f613f20565b614912602083018e613f20565b61491f604083018d61414e565b8181036060830152614931818c614195565b9050614940608083018b614050565b61494d60a083018a61414e565b61495a60c08301896148e2565b61496760e0830188614050565b614975610100830187614050565b614983610120830186613fd3565b614991610140830185613fd3565b61499f610160830184613fd3565b9d9c50505050505050505050505050565b5f5f83601f8401126149c5576149c4614656565b5b8235905067ffffffffffffffff8111156149e2576149e161465a565b5b6020830191508360208202830111156149fe576149fd61465e565b5b9250929050565b5f5f5f5f5f5f60608789031215614a1f57614a1e613eb1565b5b5f87013567ffffffffffffffff811115614a3c57614a3b613eb5565b5b614a4889828a01614662565b9650965050602087013567ffffffffffffffff811115614a6b57614a6a613eb5565b5b614a7789828a01614662565b9450945050604087013567ffffffffffffffff811115614a9a57614a99613eb5565b5b614aa689828a016149b0565b92509250509295509295509295565b60038110614ac1575f5ffd5b50565b5f81359050614ad281614ab5565b92915050565b5f5f5f5f5f5f5f5f5f60e08a8c031215614af557614af4613eb1565b5b5f614b028c828d01614011565b99505060208a013567ffffffffffffffff811115614b2357614b22613eb5565b5b614b2f8c828d01614662565b98509850506040614b428c828d01613ed8565b9650506060614b538c828d016140fc565b9550506080614b648c828d01614ac4565b94505060a08a013567ffffffffffffffff811115614b8557614b84613eb5565b5b614b918c828d0161470c565b935093505060c0614ba48c828d01613ed8565b9150509295985092959850929598565b5f614bbe82614414565b9050919050565b614bce81614bb4565b82525050565b5f602082019050614be75f830184614bc5565b92915050565b5f5f60208385031215614c0357614c02613eb1565b5b5f83013567ffffffffffffffff811115614c2057614c1f613eb5565b5b614c2c85828601614662565b92509250509250929050565b5f614c4282614414565b9050919050565b614c5281614c38565b82525050565b5f602082019050614c6b5f830184614c49565b92915050565b5f60e0820190508181035f830152614c89818a614195565b90508181036020830152614c9d8189614195565b9050614cac604083018861414e565b8181036060830152614cbe8187614228565b9050614ccd6080830186614050565b614cda60a0830185614050565b614ce760c0830184613fd3565b98975050505050505050565b5f604082019050614d065f830185614050565b614d136020830184614050565b9392505050565b5f61010082019050614d2e5f83018b613f20565b8181036020830152614d40818a614195565b90508181036040830152614d548189614195565b9050614d63606083018861414e565b614d706080830187614050565b614d7d60a0830186614050565b614d8a60c0830185614050565b614d9760e0830184613fd3565b9998505050505050505050565b7f4e487b71000000000000000000000000000000000000000000000000000000005f52601160045260245ffd5b5f614ddb82613eb9565b91507fffffffffffffffffffffffffffffffffffffffffffffffffffffffffffffffff8203614e0d57614e0c614da4565b5b600182019050919050565b7f4e487b71000000000000000000000000000000000000000000000000000000005f52602260045260245ffd5b5f6002820490506001821680614e5c57607f821691505b602082108103614e6f57614e6e614e18565b5b50919050565b7f4e487b71000000000000000000000000000000000000000000000000000000005f52604160045260245ffd5b5f614eac82613eb9565b9150614eb783613eb9565b9250828201905080821115614ecf57614ece614da4565b5b92915050565b5f614edf82613eb9565b9150614eea83613eb9565b9250828203905081811115614f0257614f01614da4565b5b92915050565b7f4e487b71000000000000000000000000000000000000000000000000000000005f52603260045260245ffd5b5f819050919050565b614f4f614f4a82613f17565b614f35565b82525050565b5f8160601b9050919050565b5f614f6b82614f55565b9050919050565b5f614f7c82614f61565b9050919050565b614f94614f8f826140d5565b614f72565b82525050565b5f819050919050565b614fb4614faf82613eb9565b614f9a565b82525050565b5f614fc58287614f3e565b602082019150614fd58286614f83565b601482019150614fe58285614fa3565b602082019150614ff58284614fa3565b60208201915081905095945050505050565b5f82905092915050565b5f819050815f5260205f209050919050565b5f6020601f8301049050919050565b5f82821b905092915050565b5f6008830261506d7fffffffffffffffffffffffffffffffffffffffffffffffffffffffffffffffff82615032565b6150778683615032565b95508019841693508086168417925050509392505050565b5f6150a96150a461509f84613eb9565b6143ea565b613eb9565b9050919050565b5f819050919050565b6150c28361508f565b6150d66150ce826150b0565b84845461503e565b825550505050565b5f5f905090565b6150ed6150de565b6150f88184846150b9565b505050565b5b8181101561511b576151105f826150e5565b6001810190506150fe565b5050565b601f8211156151605761513181615011565b61513a84615023565b81016020851015615149578190505b61515d61515585615023565b8301826150fd565b50505b505050565b5f82821c905092915050565b5f6151805f1984600802615165565b1980831691505092915050565b5f6151988383615171565b9150826002028217905092915050565b6151b28383615007565b67ffffffffffffffff8111156151cb576151ca614e75565b5b6151d58254614e45565b6151e082828561511f565b5f601f83116001811461520d575f84156151fb578287013590505b615205858261518d565b86555061526c565b601f19841661521b86615011565b5f5b828110156152425784890135825560018201915060208501945060208101905061521d565b8683101561525f578489013561525b601f891682615171565b8355505b6001600288020188555050505b50505050505050565b5f5ffd5b5f5ffd5b5f5ffd5b5f5f8335600160200384360303811261529d5761529c615275565b5b80840192508235915067ffffffffffffffff8211156152bf576152be615279565b5b6020830192506001820236038313156152db576152da61527d565b5b509250929050565b5f81905092915050565b828183375f83830152505050565b5f61530683856152e3565b93506153138385846152ed565b82840190509392505050565b5f61532b8284866152fb565b91508190509392505050565b5f6153428385614167565b935061534f8385846152ed565b61535883614185565b840190509392505050565b5f82825260208201905092915050565b5f819050919050565b5f82825260208201905092915050565b5f615397838561537c565b93506153a48385846152ed565b6153ad83614185565b840190509392505050565b5f6153c484848461538c565b90509392505050565b5f5ffd5b5f5ffd5b5f5ffd5b5f5f833560016020038436030381126153f5576153f46153d5565b5b83810192508235915060208301925067ffffffffffffffff82111561541d5761541c6153cd565b5b600182023603831315615433576154326153d1565b5b509250929050565b5f602082019050919050565b5f6154528385615363565b93508360208402850161546484615373565b805f5b878110156154a957848403895261547e82846153d9565b6154898682846153b8565b95506154948461543b565b935060208b019a505050600181019050615467565b50829750879450505050509392505050565b5f5ffd5b82818337505050565b5f6154d3838561428e565b93507f07ffffffffffffffffffffffffffffffffffffffffffffffffffffffffffffff831115615506576155056154bb565b5b6020830292506155178385846154bf565b82840190509392505050565b5f60a0820190506155365f83018b613f20565b615543602083018a614050565b818103604083015261555681888a615337565b9050818103606083015261556b818688615447565b905081810360808301526155808184866154c8565b90509998505050505050505050565b5f6040820190508181035f8301526155a8818688615447565b905081810360208301526155bd8184866154c8565b905095945050505050565b7f4e487b71000000000000000000000000000000000000000000000000000000005f52603160045260245ffd5b5f6156008286614f83565b6014820191506156108285614fa3565b6020820191506156208284614fa3565b602082019150819050949350505050565b5f6020820190508181035f83015261564a818486615337565b90509392505050565b5f8151905061566181613ec2565b92915050565b5f5f6040838503121561567d5761567c613eb1565b5b5f61568a85828601615653565b925050602061569b85828601615653565b9150509250929050565b5f6020820190508181035f8301526156be8184866154c8565b90509392505050565b5f815190506156d581614560565b92915050565b5f602082840312156156f0576156ef613eb1565b5b5f6156fd848285016156c7565b91505092915050565b5f61571082613eb9565b915061571b83613eb9565b925082820261572981613eb9565b915082820484148315176157405761573f614da4565b5b5092915050565b7f4e487b71000000000000000000000000000000000000000000000000000000005f52601260045260245ffd5b5f61577e82613eb9565b915061578983613eb9565b92508261579957615798615747565b5b828204905092915050565b5f6080820190506157b75f830187613f20565b6157c46020830186614050565b6157d1604083018561414e565b6157de606083018461414e565b95945050505050565b5f6020820190506157fa5f83018461414e565b92915050565b5f6040820190506158135f83018561414e565b6158206020830184613f20565b939250505056fea26469706673582212207bad91b542eb27d6237d89124749fe3a6831736e3cb1f96cc4fd944cfd37fb8664736f6c634300081d0033","linkReferences":{}},"methodIdentifiers":{"BILL_CREATOR_ROLE()":"3779748f","DEFAULT_ADMIN_ROLE()":"a217fddf","DISPUTE_RESOLVER_ROLE()":"bfe42a37","GROUP_ADMIN_ROLE()":"0cec8e7a","MAX_BILL_DURATION()":"4ca1ab6b","MAX_GROUP_SIZE()":"17754cd5","addMember(bytes32,address)":"4092e2c2","allBills(uint256)":"0049f41a","allGroups(uint256)":"fd16c1d3","bills(bytes32)":"a4497182","canUserCreateBills(bytes32,address)":"f4373e22","createBill(bytes32,string,uint256,address,uint8,uint256[],uint256)":"ae599be7","createCrossChainBill(bytes32,string,uint256,string,string[],uint256[],uint256)":"92bef1af","createGroup(string,string,address[])":"a6bfb1b0","crossChainBridge()":"b3e26566","emergencyStop(string)":"b1e3268b","getAllGroups(uint256,uint256)":"63ca23f0","getBill(bytes32)":"342c196c","getGroup(bytes32)":"b567d4ba","getGroupBills(bytes32)":"a7664899","getRoleAdmin(bytes32)":"248a9ca3","getStats()":"c59d4847","getUserBills(address)":"e65ef7f5","getUserGroups(address)":"3da04e4a","grantRole(bytes32,address)":"2f2ff15d","groupBills(bytes32,uint256)":"25ade5ff","groups(bytes32)":"ef161bcb","hasRole(bytes32,address)":"91d14854","isGroupMember(bytes32,address)":"cb3022ff","merkleVerifier()":"39505737","paused()":"5c975abb","paymentManager()":"aee1fe49","removeMember(bytes32,address)":"9a737486","renounceRole(bytes32,address)":"36568abe","resume()":"046f7da2","revokeRole(bytes32,address)":"d547741f","settleBill(bytes32)":"07cd7f7f","supportsInterface(bytes4)":"01ffc9a7","totalBills()":"381b54af","totalGroups()":"c75f2893","updateMemberPermissions(bytes32,address,bool)":"5c366550","userBills(address,uint256)":"682ab743","userGroups(address,uint256)":"60a9e097"},"id":51}