{"abi":[{"type":"constructor","inputs":[{"name":"_gateway","type":"address","internalType":"address"},{"name":"_gasService","type":"address","internalType":"address"}],"stateMutability":"nonpayable"},{"type":"function","name":"BILL_SYNCHRONIZATION","inputs":[],"outputs":[{"name":"","type":"bytes32","internalType":"bytes32"}],"stateMutability":"view"},{"type":"function","name":"CROSS_CHAIN_PAYMENT","inputs":[],"outputs":[{"name":"","type":"bytes32","internalType":"bytes32"}],"stateMutability":"view"},{"type":"function","name":"SETTLEMENT_CONFIRMATION","inputs":[],"outputs":[{"name":"","type":"bytes32","internalType":"bytes32"}],"stateMutability":"view"},{"type":"function","name":"addSupportedChain","inputs":[{"name":"chainName","type":"string","internalType":"string"}],"outputs":[],"stateMutability":"nonpayable"},{"type":"function","name":"createCrossChainBill","inputs":[{"name":"billId","type":"bytes32","internalType":"bytes32"},{"name":"totalAmount","type":"uint256","internalType":"uint256"},{"name":"symbol","type":"string","internalType":"string"},{"name":"participatingChains","type":"string[]","internalType":"string[]"},{"name":"chainAmounts","type":"uint256[]","internalType":"uint256[]"}],"outputs":[],"stateMutability":"nonpayable"},{"type":"function","name":"crossChainBills","inputs":[{"name":"","type":"bytes32","internalType":"bytes32"}],"outputs":[{"name":"billId","type":"bytes32","internalType":"bytes32"},{"name":"creator","type":"address","internalType":"address"},{"name":"totalAmount","type":"uint256","internalType":"uint256"},{"name":"symbol","type":"string","internalType":"string"},{"name":"fullySettled","type":"bool","internalType":"bool"},{"name":"createdAt","type":"uint256","internalType":"uint256"}],"stateMutability":"view"},{"type":"function","name":"execute","inputs":[{"name":"commandId","type":"bytes32","internalType":"bytes32"},{"name":"sourceChain","type":"string","internalType":"string"},{"name":"sourceAddress","type":"string","internalType":"string"},{"name":"payload","type":"bytes","internalType":"bytes"}],"outputs":[],"stateMutability":"nonpayable"},{"type":"function","name":"executeWithToken","inputs":[{"name":"commandId","type":"bytes32","internalType":"bytes32"},{"name":"sourceChain","type":"string","internalType":"string"},{"name":"sourceAddress","type":"string","internalType":"string"},{"name":"payload","type":"bytes","internalType":"bytes"},{"name":"tokenSymbol","type":"string","internalType":"string"},{"name":"amount","type":"uint256","internalType":"uint256"}],"outputs":[],"stateMutability":"nonpayable"},{"type":"function","name":"gasService","inputs":[],"outputs":[{"name":"","type":"address","internalType":"contract IAxelarGasService"}],"stateMutability":"view"},{"type":"function","name":"gateway","inputs":[],"outputs":[{"name":"","type":"address","internalType":"contract IAxelarGateway"}],"stateMutability":"view"},{"type":"function","name":"getOneInchQuote","inputs":[{"name":"fromToken","type":"address","internalType":"address"},{"name":"toToken","type":"address","internalType":"address"},{"name":"amount","type":"uint256","internalType":"uint256"}],"outputs":[{"name":"estimatedOut","type":"uint256","internalType":"uint256"}],"stateMutability":"view"},{"type":"function","name":"getPendingPayments","inputs":[{"name":"billId","type":"bytes32","internalType":"bytes32"}],"outputs":[{"name":"payments","type":"tuple[]","internalType":"struct CrossChainBridge.PendingPayment[]","components":[{"name":"billId","type":"bytes32","internalType":"bytes32"},{"name":"payer","type":"address","internalType":"address"},{"name":"amount","type":"uint256","internalType":"uint256"},{"name":"symbol","type":"string","internalType":"string"},{"name":"sourceChain","type":"string","internalType":"string"},{"name":"timestamp","type":"uint256","internalType":"uint256"},{"name":"processed","type":"bool","internalType":"bool"}]}],"stateMutability":"view"},{"type":"function","name":"getSupportedChains","inputs":[],"outputs":[{"name":"chains","type":"string[]","internalType":"string[]"}],"stateMutability":"view"},{"type":"function","name":"makeCrossChainPayment","inputs":[{"name":"billId","type":"bytes32","internalType":"bytes32"},{"name":"destinationChain","type":"string","internalType":"string"},{"name":"destinationAddress","type":"address","internalType":"address"},{"name":"amount","type":"uint256","internalType":"uint256"},{"name":"symbol","type":"string","internalType":"string"}],"outputs":[],"stateMutability":"payable"},{"type":"function","name":"oneInchRouters","inputs":[{"name":"","type":"uint256","internalType":"uint256"}],"outputs":[{"name":"","type":"address","internalType":"address"}],"stateMutability":"view"},{"type":"function","name":"owner","inputs":[],"outputs":[{"name":"","type":"address","internalType":"address"}],"stateMutability":"view"},{"type":"function","name":"pause","inputs":[],"outputs":[],"stateMutability":"nonpayable"},{"type":"function","name":"paused","inputs":[],"outputs":[{"name":"","type":"bool","internalType":"bool"}],"stateMutability":"view"},{"type":"function","name":"payBillWithSwap","inputs":[{"name":"billId","type":"bytes32","internalType":"bytes32"},{"name":"paymentToken","type":"address","internalType":"address"},{"name":"paymentAmount","type":"uint256","internalType":"uint256"},{"name":"targetTokenSymbol","type":"string","internalType":"string"},{"name":"destinationChain","type":"string","internalType":"string"},{"name":"destinationAddress","type":"address","internalType":"address"},{"name":"oneInchSwapData","type":"bytes","internalType":"bytes"},{"name":"minTargetAmount","type":"uint256","internalType":"uint256"}],"outputs":[],"stateMutability":"payable"},{"type":"function","name":"pendingPayments","inputs":[{"name":"","type":"bytes32","internalType":"bytes32"},{"name":"","type":"uint256","internalType":"uint256"}],"outputs":[{"name":"billId","type":"bytes32","internalType":"bytes32"},{"name":"payer","type":"address","internalType":"address"},{"name":"amount","type":"uint256","internalType":"uint256"},{"name":"symbol","type":"string","internalType":"string"},{"name":"sourceChain","type":"string","internalType":"string"},{"name":"timestamp","type":"uint256","internalType":"uint256"},{"name":"processed","type":"bool","internalType":"bool"}],"stateMutability":"view"},{"type":"function","name":"renounceOwnership","inputs":[],"outputs":[],"stateMutability":"nonpayable"},{"type":"function","name":"sendTokenCrossChain","inputs":[{"name":"billId","type":"bytes32","internalType":"bytes32"},{"name":"destinationChain","type":"string","internalType":"string"},{"name":"destinationAddress","type":"address","internalType":"address"},{"name":"amount","type":"uint256","internalType":"uint256"},{"name":"symbol","type":"string","internalType":"string"}],"outputs":[],"stateMutability":"payable"},{"type":"function","name":"setTrustedRemote","inputs":[{"name":"chainName","type":"string","internalType":"string"},{"name":"remoteAddress","type":"address","internalType":"address"}],"outputs":[],"stateMutability":"nonpayable"},{"type":"function","name":"supportedChains","inputs":[{"name":"","type":"string","internalType":"string"}],"outputs":[{"name":"","type":"bool","internalType":"bool"}],"stateMutability":"view"},{"type":"function","name":"supportedChainsList","inputs":[{"name":"","type":"uint256","internalType":"uint256"}],"outputs":[{"name":"","type":"string","internalType":"string"}],"stateMutability":"view"},{"type":"function","name":"transferOwnership","inputs":[{"name":"newOwner","type":"address","internalType":"address"}],"outputs":[],"stateMutability":"nonpayable"},{"type":"function","name":"trustedRemotes","inputs":[{"name":"","type":"string","internalType":"string"}],"outputs":[{"name":"","type":"address","internalType":"address"}],"stateMutability":"view"},{"type":"function","name":"unpause","inputs":[],"outputs":[],"stateMutability":"nonpayable"},{"type":"function","name":"updateOneInchRouter","inputs":[{"name":"chainId","type":"uint256","internalType":"uint256"},{"name":"router","type":"address","internalType":"address"}],"outputs":[],"stateMutability":"nonpayable"},{"type":"event","name":"BillSynchronized","inputs":[{"name":"billId","type":"bytes32","indexed":true,"internalType":"bytes32"},{"name":"chains","type":"string[]","indexed":false,"internalType":"string[]"}],"anonymous":false},{"type":"event","name":"CrossChainPaymentInitiated","inputs":[{"name":"billId","type":"bytes32","indexed":true,"internalType":"bytes32"},{"name":"destinationChain","type":"string","indexed":false,"internalType":"string"},{"name":"destinationAddress","type":"address","indexed":false,"internalType":"address"},{"name":"amount","type":"uint256","indexed":false,"internalType":"uint256"},{"name":"symbol","type":"string","indexed":false,"internalType":"string"}],"anonymous":false},{"type":"event","name":"CrossChainPaymentReceived","inputs":[{"name":"billId","type":"bytes32","indexed":true,"internalType":"bytes32"},{"name":"sourceChain","type":"string","indexed":false,"internalType":"string"},{"name":"sender","type":"address","indexed":false,"internalType":"address"},{"name":"amount","type":"uint256","indexed":false,"internalType":"uint256"},{"name":"symbol","type":"string","indexed":false,"internalType":"string"}],"anonymous":false},{"type":"event","name":"CrossChainRefundIssued","inputs":[{"name":"billId","type":"bytes32","indexed":true,"internalType":"bytes32"},{"name":"recipient","type":"address","indexed":false,"internalType":"address"},{"name":"amount","type":"uint256","indexed":false,"internalType":"uint256"}],"anonymous":false},{"type":"event","name":"OwnershipTransferred","inputs":[{"name":"previousOwner","type":"address","indexed":true,"internalType":"address"},{"name":"newOwner","type":"address","indexed":true,"internalType":"address"}],"anonymous":false},{"type":"event","name":"Paused","inputs":[{"name":"account","type":"address","indexed":false,"internalType":"address"}],"anonymous":false},{"type":"event","name":"SwapAndCrossChainSent","inputs":[{"name":"billId","type":"bytes32","indexed":true,"internalType":"bytes32"},{"name":"fromToken","type":"address","indexed":false,"internalType":"address"},{"name":"toTokenSymbol","type":"string","indexed":false,"internalType":"string"},{"name":"amountIn","type":"uint256","indexed":false,"internalType":"uint256"},{"name":"amountOut","type":"uint256","indexed":false,"internalType":"uint256"},{"name":"destinationChain","type":"string","indexed":false,"internalType":"string"}],"anonymous":false},{"type":"event","name":"TokenSwappedForBill","inputs":[{"name":"billId","type":"bytes32","indexed":true,"internalType":"bytes32"},{"name":"fromToken","type":"address","indexed":true,"internalType":"address"},{"name":"toToken","type":"address","indexed":true,"internalType":"address"},{"name":"amountIn","type":"uint256","indexed":false,"internalType":"uint256"},{"name":"amountOut","type":"uint256","indexed":false,"internalType":"uint256"},{"name":"user","type":"address","indexed":false,"internalType":"address"}],"anonymous":false},{"type":"event","name":"Unpaused","inputs":[{"name":"account","type":"address","indexed":false,"internalType":"address"}],"anonymous":false},{"type":"error","name":"BillNotFound","inputs":[]},{"type":"error","name":"CrossChainOperationFailed","inputs":[]},{"type":"error","name":"EnforcedPause","inputs":[]},{"type":"error","name":"ExpectedPause","inputs":[]},{"type":"error","name":"InsufficientGasFee","inputs":[]},{"type":"error","name":"InsufficientSwapOutput","inputs":[]},{"type":"error","name":"InvalidAddress","inputs":[]},{"type":"error","name":"InvalidAmount","inputs":[]},{"type":"error","name":"InvalidBillId","inputs":[]},{"type":"error","name":"InvalidChain","inputs":[]},{"type":"error","name":"NotApprovedByGateway","inputs":[]},{"type":"error","name":"OneInchRouterNotSet","inputs":[]},{"type":"error","name":"OwnableInvalidOwner","inputs":[{"name":"owner","type":"address","internalType":"address"}]},{"type":"error","name":"OwnableUnauthorizedAccount","inputs":[{"name":"account","type":"address","internalType":"address"}]},{"type":"error","name":"ReentrancyGuardReentrantCall","inputs":[]},{"type":"error","name":"SafeERC20FailedOperation","inputs":[{"name":"token","type":"address","internalType":"address"}]},{"type":"error","name":"SwapFailed","inputs":[]},{"type":"error","name":"UnauthorizedSender","inputs":[]}],"bytecode":{"object":"0x60c060405234801561000f575f5ffd5b50604051617454380380617454833981810160405281019061003191906107b7565b81813382805f73ffffffffffffffffffffffffffffffffffffffff168173ffffffffffffffffffffffffffffffffffffffff160361009b576040517fe6c4247b00000000000000000000000000000000000000000000000000000000815260040160405180910390fd5b8073ffffffffffffffffffffffffffffffffffffffff1660808173ffffffffffffffffffffffffffffffffffffffff168152505050505f73ffffffffffffffffffffffffffffffffffffffff168173ffffffffffffffffffffffffffffffffffffffff1603610141575f6040517f1e4fbdf70000000000000000000000000000000000000000000000000000000081526004016101389190610804565b60405180910390fd5b6101508161026f60201b60201c565b50600180819055508073ffffffffffffffffffffffffffffffffffffffff1660a08173ffffffffffffffffffffffffffffffffffffffff16815250506101d06040518060400160405280601081526020017f657468657265756d2d7365706f6c69610000000000000000000000000000000081525061033060201b60201c565b6102146040518060400160405280600e81526020017f706f6c79676f6e2d6d756d62616900000000000000000000000000000000000081525061033060201b60201c565b6102586040518060400160405280600f81526020017f617262697472756d2d676f65726c69000000000000000000000000000000000081525061033060201b60201c565b50506102686103cb60201b60201c565b5050610b87565b5f5f5f9054906101000a900473ffffffffffffffffffffffffffffffffffffffff169050815f5f6101000a81548173ffffffffffffffffffffffffffffffffffffffff021916908373ffffffffffffffffffffffffffffffffffffffff1602179055508173ffffffffffffffffffffffffffffffffffffffff168173ffffffffffffffffffffffffffffffffffffffff167f8be0079c531659141344cd1fd0a4f28419497f9722a3daafe3b4186f6b6457e060405160405180910390a35050565b600581604051610340919061086f565b90815260200160405180910390205f9054906101000a900460ff166103c8576001600582604051610371919061086f565b90815260200160405180910390205f6101000a81548160ff021916908315150217905550600781908060018154018082558091505060019003905f5260205f20015f9091909190915090816103c69190610ab8565b505b50565b73111111125421ca6dc452d289314280a0f8842a6560085f600181526020019081526020015f205f6101000a81548173ffffffffffffffffffffffffffffffffffffffff021916908373ffffffffffffffffffffffffffffffffffffffff16021790555073111111125421ca6dc452d289314280a0f8842a6560085f608981526020019081526020015f205f6101000a81548173ffffffffffffffffffffffffffffffffffffffff021916908373ffffffffffffffffffffffffffffffffffffffff16021790555073111111125421ca6dc452d289314280a0f8842a6560085f61a4b181526020019081526020015f205f6101000a81548173ffffffffffffffffffffffffffffffffffffffff021916908373ffffffffffffffffffffffffffffffffffffffff16021790555073111111125421ca6dc452d289314280a0f8842a6560085f600a81526020019081526020015f205f6101000a81548173ffffffffffffffffffffffffffffffffffffffff021916908373ffffffffffffffffffffffffffffffffffffffff16021790555073111111125421ca6dc452d289314280a0f8842a6560085f603881526020019081526020015f205f6101000a81548173ffffffffffffffffffffffffffffffffffffffff021916908373ffffffffffffffffffffffffffffffffffffffff16021790555073111111125421ca6dc452d289314280a0f8842a6560085f62aa36a781526020019081526020015f205f6101000a81548173ffffffffffffffffffffffffffffffffffffffff021916908373ffffffffffffffffffffffffffffffffffffffff16021790555073111111125421ca6dc452d289314280a0f8842a6560085f6201388181526020019081526020015f205f6101000a81548173ffffffffffffffffffffffffffffffffffffffff021916908373ffffffffffffffffffffffffffffffffffffffff16021790555073111111125421ca6dc452d289314280a0f8842a6560085f62066eed81526020019081526020015f205f6101000a81548173ffffffffffffffffffffffffffffffffffffffff021916908373ffffffffffffffffffffffffffffffffffffffff16021790555073111111125421ca6dc452d289314280a0f8842a6560085f617a6981526020019081526020015f205f6101000a81548173ffffffffffffffffffffffffffffffffffffffff021916908373ffffffffffffffffffffffffffffffffffffffff160217905550565b5f5ffd5b5f73ffffffffffffffffffffffffffffffffffffffff82169050919050565b5f6107868261075d565b9050919050565b6107968161077c565b81146107a0575f5ffd5b50565b5f815190506107b18161078d565b92915050565b5f5f604083850312156107cd576107cc610759565b5b5f6107da858286016107a3565b92505060206107eb858286016107a3565b9150509250929050565b6107fe8161077c565b82525050565b5f6020820190506108175f8301846107f5565b92915050565b5f81519050919050565b5f81905092915050565b8281835e5f83830152505050565b5f6108498261081d565b6108538185610827565b9350610863818560208601610831565b80840191505092915050565b5f61087a828461083f565b915081905092915050565b7f4e487b71000000000000000000000000000000000000000000000000000000005f52604160045260245ffd5b7f4e487b71000000000000000000000000000000000000000000000000000000005f52602260045260245ffd5b5f60028204905060018216806108f657607f821691505b602082108103610909576109086108b2565b5b50919050565b5f819050815f5260205f209050919050565b5f6020601f8301049050919050565b5f82821b905092915050565b5f6008830261096b7fffffffffffffffffffffffffffffffffffffffffffffffffffffffffffffffff82610930565b6109758683610930565b95508019841693508086168417925050509392505050565b5f819050919050565b5f819050919050565b5f6109b96109b46109af8461098d565b610996565b61098d565b9050919050565b5f819050919050565b6109d28361099f565b6109e66109de826109c0565b84845461093c565b825550505050565b5f5f905090565b6109fd6109ee565b610a088184846109c9565b505050565b5b81811015610a2b57610a205f826109f5565b600181019050610a0e565b5050565b601f821115610a7057610a418161090f565b610a4a84610921565b81016020851015610a59578190505b610a6d610a6585610921565b830182610a0d565b50505b505050565b5f82821c905092915050565b5f610a905f1984600802610a75565b1980831691505092915050565b5f610aa88383610a81565b9150826002028217905092915050565b610ac18261081d565b67ffffffffffffffff811115610ada57610ad9610885565b5b610ae482546108df565b610aef828285610a2f565b5f60209050601f831160018114610b20575f8415610b0e578287015190505b610b188582610a9d565b865550610b7f565b601f198416610b2e8661090f565b5f5b82811015610b5557848901518255600182019150602085019450602081019050610b30565b86831015610b725784890151610b6e601f891682610a81565b8355505b6001600288020188555050505b505050505050565b60805160a051616890610bc45f395f8181610e29015281816111850152818161171a015261327b01525f81816106b1015261220001526168905ff3fe6080604052600436106101c1575f3560e01c80638456cb59116100f6578063c336ff8011610094578063ee99f60b11610063578063ee99f60b146105cd578063f2fde38b14610609578063f959c4fd14610631578063fceb814f1461066d576101c1565b8063c336ff8014610543578063c4bffe2b1461055f578063cfacf6d014610589578063e5eb8a89146105a5576101c1565b8063ad914932116100d0578063ad91493214610471578063b2bbf680146104b3578063ba44ea96146104dd578063be0a3dce14610507576101c1565b80638456cb59146104155780638da5cb5b1461042b578063960f92c814610455576101c1565b806349160658116101635780635c975abb1161013d5780635c975abb1461036f5780636a22d8cc146103995780636c30aaa2146103c3578063715018a6146103ff576101c1565b806349160658146102e35780634e90b9c01461030b578063514654a514610347576101c1565b80631a98b2e01161019f5780631a98b2e01461024157806329aa0fed146102695780633f4ba83a146102a5578063405243ba146102bb576101c1565b8063116191b6146101c557806311a2759b146101ef57806319c0f12e14610219575b5f5ffd5b3480156101d0575f5ffd5b506101d96106ae565b6040516101e6919061415b565b60405180910390f35b3480156101fa575f5ffd5b506102036106d5565b604051610210919061418c565b60405180910390f35b348015610224575f5ffd5b5061023f600480360381019061023a9190614252565b6106f9565b005b34801561024c575f5ffd5b5061026760048036038101906102629190614361565b610764565b005b348015610274575f5ffd5b5061028f600480360381019061028a919061446b565b610864565b60405161029c91906144ca565b60405180910390f35b3480156102b0575f5ffd5b506102b9610887565b005b3480156102c6575f5ffd5b506102e160048036038101906102dc91906144e3565b610899565b005b3480156102ee575f5ffd5b5061030960048036038101906103049190614521565b6108f4565b005b348015610316575f5ffd5b50610331600480360381019061032c919061471d565b6109e8565b60405161033e9190614773565b60405180910390f35b348015610352575f5ffd5b5061036d60048036038101906103689190614836565b610a30565b005b34801561037a575f5ffd5b50610383610e12565b6040516103909190614927565b60405180910390f35b3480156103a4575f5ffd5b506103ad610e27565b6040516103ba9190614960565b60405180910390f35b3480156103ce575f5ffd5b506103e960048036038101906103e4919061471d565b610e4b565b6040516103f69190614927565b60405180910390f35b34801561040a575f5ffd5b50610413610e80565b005b348015610420575f5ffd5b50610429610e93565b005b348015610436575f5ffd5b5061043f610ea5565b60405161044c9190614773565b60405180910390f35b61046f600480360381019061046a9190614979565b610ecc565b005b34801561047c575f5ffd5b5061049760048036038101906104929190614a30565b6112fa565b6040516104aa9796959493929190614ace565b60405180910390f35b3480156104be575f5ffd5b506104c7611489565b6040516104d4919061418c565b60405180910390f35b3480156104e8575f5ffd5b506104f16114ad565b6040516104fe919061418c565b60405180910390f35b348015610512575f5ffd5b5061052d60048036038101906105289190614b49565b6114d1565b60405161053a9190614773565b60405180910390f35b61055d60048036038101906105589190614979565b611501565b005b34801561056a575f5ffd5b50610573611900565b6040516105809190614c77565b60405180910390f35b6105a3600480360381019061059e9190614c97565b6119d4565b005b3480156105b0575f5ffd5b506105cb60048036038101906105c69190614da8565b611cf2565b005b3480156105d8575f5ffd5b506105f360048036038101906105ee9190614b49565b611d4a565b6040516106009190614df3565b60405180910390f35b348015610614575f5ffd5b5061062f600480360381019061062a9190614e13565b611df0565b005b34801561063c575f5ffd5b5061065760048036038101906106529190614e3e565b611e74565b6040516106649190615000565b60405180910390f35b348015610678575f5ffd5b50610693600480360381019061068e9190614e3e565b61208d565b6040516106a596959493929190615020565b60405180910390f35b5f7f0000000000000000000000000000000000000000000000000000000000000000905090565b7f989c58dbefc5e303f03b212ac148679fd6dd696bfdb9b046014186e6d66b28cf81565b610701612176565b80600684846040516107149291906150b4565b90815260200160405180910390205f6101000a81548173ffffffffffffffffffffffffffffffffffffffff021916908373ffffffffffffffffffffffffffffffffffffffff160217905550505050565b5f85856040516107759291906150fa565b604051809103902090506107876121fd565b73ffffffffffffffffffffffffffffffffffffffff16631876eed98c8c8c8c8c878b8b8b6040518a63ffffffff1660e01b81526004016107cf9998979695949392919061513e565b6020604051808303815f875af11580156107eb573d5f5f3e3d5ffd5b505050506040513d601f19601f8201168201806040525081019061080f91906151e2565b610845576040517f500c44b400000000000000000000000000000000000000000000000000000000815260040160405180910390fd5b6108578b8b8b8b8b8b8b8b8b8b612224565b5050505050505050505050565b5f6064605f83610874919061523a565b61087e91906152a8565b90509392505050565b61088f612176565b6108976125c2565b565b6108a1612176565b8060085f8481526020019081526020015f205f6101000a81548173ffffffffffffffffffffffffffffffffffffffff021916908373ffffffffffffffffffffffffffffffffffffffff1602179055505050565b5f82826040516109059291906150fa565b604051809103902090506109176106ae565b73ffffffffffffffffffffffffffffffffffffffff16635f6970c38989898989876040518763ffffffff1660e01b8152600401610959969594939291906152d8565b6020604051808303815f875af1158015610975573d5f5f3e3d5ffd5b505050506040513d601f19601f8201168201806040525081019061099991906151e2565b6109cf576040517f500c44b400000000000000000000000000000000000000000000000000000000815260040160405180910390fd5b6109de88888888888888612623565b5050505050505050565b6006818051602081018201805184825260208301602085012081835280955050505050505f915054906101000a900473ffffffffffffffffffffffffffffffffffffffff1681565b610a38612837565b610a4061287d565b5f5f1b8803610a7b576040517f1b2c5e8900000000000000000000000000000000000000000000000000000000815260040160405180910390fd5b5f8703610ab4576040517f2c5211c600000000000000000000000000000000000000000000000000000000815260040160405180910390fd5b818190508484905014610af3576040517f2c5211c600000000000000000000000000000000000000000000000000000000815260040160405180910390fd5b5f5f1b60035f8a81526020019081526020015f205f015414610b41576040517f1b2c5e8900000000000000000000000000000000000000000000000000000000815260040160405180910390fd5b5f5f90505f5f90505b85859050811015610c0f576005868683818110610b6a57610b6961532d565b5b9050602002810190610b7c9190615366565b604051610b8a9291906150b4565b90815260200160405180910390205f9054906101000a900460ff16610bdb576040517fafe7f4e000000000000000000000000000000000000000000000000000000000815260040160405180910390fd5b838382818110610bee57610bed61532d565b5b9050602002013582610c0091906153c8565b91508080600101915050610b4a565b50878114610c49576040517f2c5211c600000000000000000000000000000000000000000000000000000000815260040160405180910390fd5b5f60035f8b81526020019081526020015f20905089815f018190555033816001015f6101000a81548173ffffffffffffffffffffffffffffffffffffffff021916908373ffffffffffffffffffffffffffffffffffffffff1602179055508881600201819055508787826003019182610cc39291906155f9565b504281600801819055505f5f90505b86869050811015610dad5781600401878783818110610cf457610cf361532d565b5b9050602002810190610d069190615366565b90918060018154018082558091505060019003905f5260205f20015f909192909192909192909192509182610d3c9291906155f9565b50848482818110610d5057610d4f61532d565b5b9050602002013582600501888884818110610d6e57610d6d61532d565b5b9050602002810190610d809190615366565b604051610d8e9291906150b4565b9081526020016040518091039020819055508080600101915050610cd2565b50610dc48a878790610dbf9190615777565b6128be565b897fe08651d2890c3635cbeb2afe2228e5f18f25b345b079e7d583e32a61e0d4da798787604051610df69291906158c3565b60405180910390a25050610e08612b77565b5050505050505050565b5f60025f9054906101000a900460ff16905090565b7f000000000000000000000000000000000000000000000000000000000000000081565b6005818051602081018201805184825260208301602085012081835280955050505050505f915054906101000a900460ff1681565b610e88612176565b610e915f612b80565b565b610e9b612176565b610ea3612c41565b565b5f5f5f9054906101000a900473ffffffffffffffffffffffffffffffffffffffff16905090565b610ed4612837565b610edc61287d565b5f5f1b8703610f17576040517f1b2c5e8900000000000000000000000000000000000000000000000000000000815260040160405180910390fd5b60058686604051610f299291906150b4565b90815260200160405180910390205f9054906101000a900460ff16610f7a576040517fafe7f4e000000000000000000000000000000000000000000000000000000000815260040160405180910390fd5b5f8303610fb3576040517f2c5211c600000000000000000000000000000000000000000000000000000000815260040160405180910390fd5b5f610fbc6121fd565b73ffffffffffffffffffffffffffffffffffffffff1663935b13f684846040518363ffffffff1660e01b8152600401610ff69291906158e5565b602060405180830381865afa158015611011573d5f5f3e3d5ffd5b505050506040513d601f19601f82011682018060405250810190611035919061591b565b90505f73ffffffffffffffffffffffffffffffffffffffff168173ffffffffffffffffffffffffffffffffffffffff160361109c576040517f2c5211c600000000000000000000000000000000000000000000000000000000815260040160405180910390fd5b6110c93330868473ffffffffffffffffffffffffffffffffffffffff16612ca3909392919063ffffffff16565b6110fb6110d46121fd565b858373ffffffffffffffffffffffffffffffffffffffff16612d259092919063ffffffff16565b5f7f989c58dbefc5e303f03b212ac148679fd6dd696bfdb9b046014186e6d66b28cf89338742604051602001611135959493929190615946565b60405160208183030381529060405290505f3490505f8103611183576040517fe6b6589300000000000000000000000000000000000000000000000000000000815260040160405180910390fd5b7f000000000000000000000000000000000000000000000000000000000000000073ffffffffffffffffffffffffffffffffffffffff1663c62c200282308c8c6111cc8d612e32565b888c8c8f336040518b63ffffffff1660e01b81526004016111f5999897969594939291906159e9565b5f604051808303818588803b15801561120c575f5ffd5b505af115801561121e573d5f5f3e3d5ffd5b505050505061122b6121fd565b73ffffffffffffffffffffffffffffffffffffffff1663b54170848a8a6112518b612e32565b868a8a8d6040518863ffffffff1660e01b81526004016112779796959493929190615a76565b5f604051808303815f87803b15801561128e575f5ffd5b505af11580156112a0573d5f5f3e3d5ffd5b50505050897f037316700ad34ce89fd368e365354186ee196d3e4cf3a3cc85d7edfefdd199108a8a8a8a8a8a6040516112de96959493929190615ae7565b60405180910390a25050506112f1612b77565b50505050505050565b6004602052815f5260405f208181548110611313575f80fd5b905f5260205f2090600702015f9150915050805f015490806001015f9054906101000a900473ffffffffffffffffffffffffffffffffffffffff169080600201549080600301805461136490615432565b80601f016020809104026020016040519081016040528092919081815260200182805461139090615432565b80156113db5780601f106113b2576101008083540402835291602001916113db565b820191905f5260205f20905b8154815290600101906020018083116113be57829003601f168201915b5050505050908060040180546113f090615432565b80601f016020809104026020016040519081016040528092919081815260200182805461141c90615432565b80156114675780601f1061143e57610100808354040283529160200191611467565b820191905f5260205f20905b81548152906001019060200180831161144a57829003601f168201915b505050505090806005015490806006015f9054906101000a900460ff16905087565b7ff2164d99f31b78be1c93671bdae14ed336609188e192fb6552fec937f19b279181565b7f8cf46e850170a4746b73dece894b18a2b4ebad3e0b8bbc624cd6e3712fa9500e81565b6008602052805f5260405f205f915054906101000a900473ffffffffffffffffffffffffffffffffffffffff1681565b611509612837565b61151161287d565b5f5f1b870361154c576040517f1b2c5e8900000000000000000000000000000000000000000000000000000000815260040160405180910390fd5b6005868660405161155e9291906150b4565b90815260200160405180910390205f9054906101000a900460ff166115af576040517fafe7f4e000000000000000000000000000000000000000000000000000000000815260040160405180910390fd5b5f83036115e8576040517f2c5211c600000000000000000000000000000000000000000000000000000000815260040160405180910390fd5b5f73ffffffffffffffffffffffffffffffffffffffff16600687876040516116119291906150b4565b90815260200160405180910390205f9054906101000a900473ffffffffffffffffffffffffffffffffffffffff1673ffffffffffffffffffffffffffffffffffffffff160361168c576040517fafe7f4e000000000000000000000000000000000000000000000000000000000815260040160405180910390fd5b5f7f989c58dbefc5e303f03b212ac148679fd6dd696bfdb9b046014186e6d66b28cf8833868686426040516020016116ca9796959493929190615b3c565b60405160208183030381529060405290505f3490505f8103611718576040517fe6b6589300000000000000000000000000000000000000000000000000000000815260040160405180910390fd5b7f000000000000000000000000000000000000000000000000000000000000000073ffffffffffffffffffffffffffffffffffffffff16630c93e3bb82308b8b6117a060068f8f60405161176d9291906150b4565b90815260200160405180910390205f9054906101000a900473ffffffffffffffffffffffffffffffffffffffff16612e32565b88336040518863ffffffff1660e01b81526004016117c396959493929190615ba4565b5f604051808303818588803b1580156117da575f5ffd5b505af11580156117ec573d5f5f3e3d5ffd5b50505050506117f96106ae565b73ffffffffffffffffffffffffffffffffffffffff16631c92115f898961185e60068d8d60405161182b9291906150b4565b90815260200160405180910390205f9054906101000a900473ffffffffffffffffffffffffffffffffffffffff16612e32565b866040518563ffffffff1660e01b815260040161187e9493929190615c0c565b5f604051808303815f87803b158015611895575f5ffd5b505af11580156118a7573d5f5f3e3d5ffd5b50505050887f037316700ad34ce89fd368e365354186ee196d3e4cf3a3cc85d7edfefdd199108989898989896040516118e596959493929190615ae7565b60405180910390a250506118f7612b77565b50505050505050565b60606007805480602002602001604051908101604052809291908181526020015f905b828210156119cb578382905f5260205f2001805461194090615432565b80601f016020809104026020016040519081016040528092919081815260200182805461196c90615432565b80156119b75780601f1061198e576101008083540402835291602001916119b7565b820191905f5260205f20905b81548152906001019060200180831161199a57829003601f168201915b505050505081526020019060010190611923565b50505050905090565b6119dc612837565b6119e461287d565b5f5f1b8b03611a1f576040517f1b2c5e8900000000000000000000000000000000000000000000000000000000815260040160405180910390fd5b60058686604051611a319291906150b4565b90815260200160405180910390205f9054906101000a900460ff16611a82576040517fafe7f4e000000000000000000000000000000000000000000000000000000000815260040160405180910390fd5b5f8903611abb576040517f2c5211c600000000000000000000000000000000000000000000000000000000815260040160405180910390fd5b5f611ac46121fd565b73ffffffffffffffffffffffffffffffffffffffff1663935b13f68a8a6040518363ffffffff1660e01b8152600401611afe9291906158e5565b602060405180830381865afa158015611b19573d5f5f3e3d5ffd5b505050506040513d601f19601f82011682018060405250810190611b3d919061591b565b90505f73ffffffffffffffffffffffffffffffffffffffff168173ffffffffffffffffffffffffffffffffffffffff1603611ba4576040517f2c5211c600000000000000000000000000000000000000000000000000000000815260040160405180910390fd5b5f8173ffffffffffffffffffffffffffffffffffffffff168c73ffffffffffffffffffffffffffffffffffffffff1603611c0d57611c0533308d8f73ffffffffffffffffffffffffffffffffffffffff16612ca3909392919063ffffffff16565b8a9050611c88565b611c1b8c838d888888612e5c565b90508173ffffffffffffffffffffffffffffffffffffffff168c73ffffffffffffffffffffffffffffffffffffffff168e7f1ce02a32fa4fc8940ac1d0da5b34ad940d87458ad8a0f377e999d0a0ce0513008e8533604051611c7f93929190615c58565b60405180910390a45b611c978d898989858f8f61313b565b8c7fdcbb93d9c1e7ef5b3a93b7799fdaa1affac2f1d17936e2b14c4d784c880f66918d8c8c8f868e8e604051611cd39796959493929190615c8d565b60405180910390a25050611ce5612b77565b5050505050505050505050565b611cfa612176565b611d4682828080601f0160208091040260200160405190810160405280939291908181526020018383808284375f81840152601f19601f820116905080830192505050505050506133e8565b5050565b60078181548110611d59575f80fd5b905f5260205f20015f915090508054611d7190615432565b80601f0160208091040260200160405190810160405280929190818152602001828054611d9d90615432565b8015611de85780601f10611dbf57610100808354040283529160200191611de8565b820191905f5260205f20905b815481529060010190602001808311611dcb57829003601f168201915b505050505081565b611df8612176565b5f73ffffffffffffffffffffffffffffffffffffffff168173ffffffffffffffffffffffffffffffffffffffff1603611e68575f6040517f1e4fbdf7000000000000000000000000000000000000000000000000000000008152600401611e5f9190614773565b60405180910390fd5b611e7181612b80565b50565b606060045f8381526020019081526020015f20805480602002602001604051908101604052809291908181526020015f905b82821015612082578382905f5260205f2090600702016040518060e00160405290815f8201548152602001600182015f9054906101000a900473ffffffffffffffffffffffffffffffffffffffff1673ffffffffffffffffffffffffffffffffffffffff1673ffffffffffffffffffffffffffffffffffffffff16815260200160028201548152602001600382018054611f3f90615432565b80601f0160208091040260200160405190810160405280929190818152602001828054611f6b90615432565b8015611fb65780601f10611f8d57610100808354040283529160200191611fb6565b820191905f5260205f20905b815481529060010190602001808311611f9957829003601f168201915b50505050508152602001600482018054611fcf90615432565b80601f0160208091040260200160405190810160405280929190818152602001828054611ffb90615432565b80156120465780601f1061201d57610100808354040283529160200191612046565b820191905f5260205f20905b81548152906001019060200180831161202957829003601f168201915b5050505050815260200160058201548152602001600682015f9054906101000a900460ff16151515158152505081526020019060010190611ea6565b505050509050919050565b6003602052805f5260405f205f91509050805f015490806001015f9054906101000a900473ffffffffffffffffffffffffffffffffffffffff16908060020154908060030180546120dd90615432565b80601f016020809104026020016040519081016040528092919081815260200182805461210990615432565b80156121545780601f1061212b57610100808354040283529160200191612154565b820191905f5260205f20905b81548152906001019060200180831161213757829003601f168201915b505050505090806007015f9054906101000a900460ff16908060080154905086565b61217e613483565b73ffffffffffffffffffffffffffffffffffffffff1661219c610ea5565b73ffffffffffffffffffffffffffffffffffffffff16146121fb576121bf613483565b6040517f118cdaa70000000000000000000000000000000000000000000000000000000081526004016121f29190614773565b60405180910390fd5b565b5f7f0000000000000000000000000000000000000000000000000000000000000000905090565b600589896040516122369291906150b4565b90815260200160405180910390205f9054906101000a900460ff16612287576040517fafe7f4e000000000000000000000000000000000000000000000000000000000815260040160405180910390fd5b6122d387878080601f0160208091040260200160405190810160405280939291908181526020018383808284375f81840152601f19601f8201169050808301925050505050505061348a565b73ffffffffffffffffffffffffffffffffffffffff1660068a8a6040516122fb9291906150b4565b90815260200160405180910390205f9054906101000a900473ffffffffffffffffffffffffffffffffffffffff1673ffffffffffffffffffffffffffffffffffffffff1614612376576040517f0809490800000000000000000000000000000000000000000000000000000000815260040160405180910390fd5b5f5f5f5f88888101906123899190615d2b565b93509350935093507f989c58dbefc5e303f03b212ac148679fd6dd696bfdb9b046014186e6d66b28cf84036125b25760045f8481526020019081526020015f206040518060e001604052808581526020018473ffffffffffffffffffffffffffffffffffffffff16815260200187815260200189898080601f0160208091040260200160405190810160405280939291908181526020018383808284375f81840152601f19601f8201169050808301925050505050505081526020018f8f8080601f0160208091040260200160405190810160405280939291908181526020018383808284375f81840152601f19601f8201169050808301925050505050505081526020018381526020015f1515815250908060018154018082558091505060019003905f5260205f2090600702015f909190919091505f820151815f01556020820151816001015f6101000a81548173ffffffffffffffffffffffffffffffffffffffff021916908373ffffffffffffffffffffffffffffffffffffffff16021790555060408201518160020155606082015181600301908161252d9190615d8f565b5060808201518160040190816125439190615d8f565b5060a0820151816005015560c0820151816006015f6101000a81548160ff0219169083151502179055505050827f57456db22eca97ed41d53c285c88c2aa1e9b6623c5bf95b9e8288c6566e01b138e8e85898c8c6040516125a996959493929190615ae7565b60405180910390a25b5050505050505050505050505050565b6125ca613632565b5f60025f6101000a81548160ff0219169083151502179055507f5db9ee0a495bf2e6ff9c91a7834c1ba4fdd244a5e8aa4e537bd38aeae4b073aa61260c613483565b6040516126199190614773565b60405180910390a1565b600586866040516126359291906150b4565b90815260200160405180910390205f9054906101000a900460ff16612686576040517fafe7f4e000000000000000000000000000000000000000000000000000000000815260040160405180910390fd5b6126d284848080601f0160208091040260200160405190810160405280939291908181526020018383808284375f81840152601f19601f8201169050808301925050505050505061348a565b73ffffffffffffffffffffffffffffffffffffffff16600687876040516126fa9291906150b4565b90815260200160405180910390205f9054906101000a900473ffffffffffffffffffffffffffffffffffffffff1673ffffffffffffffffffffffffffffffffffffffff1614612775576040517f0809490800000000000000000000000000000000000000000000000000000000815260040160405180910390fd5b5f82828101906127859190614e3e565b90507f989c58dbefc5e303f03b212ac148679fd6dd696bfdb9b046014186e6d66b28cf81036127bf576127ba87878585613672565b61282d565b7ff2164d99f31b78be1c93671bdae14ed336609188e192fb6552fec937f19b279181036127f7576127f287878585613850565b61282c565b7f8cf46e850170a4746b73dece894b18a2b4ebad3e0b8bbc624cd6e3712fa9500e810361282b5761282a8787858561399c565b5b5b5b5050505050505050565b600260015403612873576040517f3ee5aeb500000000000000000000000000000000000000000000000000000000815260040160405180910390fd5b6002600181905550565b612885610e12565b156128bc576040517fd93c066500000000000000000000000000000000000000000000000000000000815260040160405180910390fd5b565b5f60035f8481526020019081526020015f2090505f825167ffffffffffffffff8111156128ee576128ed6145f9565b5b60405190808252806020026020018201604052801561291c5781602001602082028036833780820191505090505b5090505f5f90505b835181101561299457826005018482815181106129445761294361532d565b5b60200260200101516040516129599190615e8e565b90815260200160405180910390205482828151811061297b5761297a61532d565b5b6020026020010181815250508080600101915050612924565b505f7ff2164d99f31b78be1c93671bdae14ed336609188e192fb6552fec937f19b279185846001015f9054906101000a900473ffffffffffffffffffffffffffffffffffffffff1685600201548660030188876040516020016129fd9796959493929190615fcd565b60405160208183030381529060405290505f5f90505b8451811015612b6f575f858281518110612a3057612a2f61532d565b5b602002602001015190505f73ffffffffffffffffffffffffffffffffffffffff16600682604051612a619190615e8e565b90815260200160405180910390205f9054906101000a900473ffffffffffffffffffffffffffffffffffffffff1673ffffffffffffffffffffffffffffffffffffffff1614612b6157612ab26106ae565b73ffffffffffffffffffffffffffffffffffffffff16631c92115f82612b14600685604051612ae19190615e8e565b90815260200160405180910390205f9054906101000a900473ffffffffffffffffffffffffffffffffffffffff16612e32565b866040518463ffffffff1660e01b8152600401612b339392919061604f565b5f604051808303815f87803b158015612b4a575f5ffd5b505af1158015612b5c573d5f5f3e3d5ffd5b505050505b508080600101915050612a13565b505050505050565b60018081905550565b5f5f5f9054906101000a900473ffffffffffffffffffffffffffffffffffffffff169050815f5f6101000a81548173ffffffffffffffffffffffffffffffffffffffff021916908373ffffffffffffffffffffffffffffffffffffffff1602179055508173ffffffffffffffffffffffffffffffffffffffff168173ffffffffffffffffffffffffffffffffffffffff167f8be0079c531659141344cd1fd0a4f28419497f9722a3daafe3b4186f6b6457e060405160405180910390a35050565b612c4961287d565b600160025f6101000a81548160ff0219169083151502179055507f62e78cea01bee320cd4e420270b5ea74000d11b0c9f74754ebdbfc544b05a258612c8c613483565b604051612c999190614773565b60405180910390a1565b612d1f848573ffffffffffffffffffffffffffffffffffffffff166323b872dd868686604051602401612cd893929190616099565b604051602081830303815290604052915060e01b6020820180517bffffffffffffffffffffffffffffffffffffffffffffffffffffffff8381831617835250505050613ab6565b50505050565b5f8373ffffffffffffffffffffffffffffffffffffffff1663095ea7b38484604051602401612d559291906160ce565b604051602081830303815290604052915060e01b6020820180517bffffffffffffffffffffffffffffffffffffffffffffffffffffffff83818316178352505050509050612da38482613b51565b612e2c57612e21848573ffffffffffffffffffffffffffffffffffffffff1663095ea7b3865f604051602401612dda92919061612e565b604051602081830303815290604052915060e01b6020820180517bffffffffffffffffffffffffffffffffffffffffffffffffffffffff8381831617835250505050613ab6565b612e2b8482613ab6565b5b50505050565b6060612e558273ffffffffffffffffffffffffffffffffffffffff166014613baa565b9050919050565b5f5f60085f4681526020019081526020015f205f9054906101000a900473ffffffffffffffffffffffffffffffffffffffff1690505f73ffffffffffffffffffffffffffffffffffffffff168173ffffffffffffffffffffffffffffffffffffffff1603612ef6576040517fd69ef09300000000000000000000000000000000000000000000000000000000815260040160405180910390fd5b612f233330888b73ffffffffffffffffffffffffffffffffffffffff16612ca3909392919063ffffffff16565b5f8773ffffffffffffffffffffffffffffffffffffffff166370a08231306040518263ffffffff1660e01b8152600401612f5d9190614773565b602060405180830381865afa158015612f78573d5f5f3e3d5ffd5b505050506040513d601f19601f82011682018060405250810190612f9c9190616169565b9050612fc982888b73ffffffffffffffffffffffffffffffffffffffff16612d259092919063ffffffff16565b5f8273ffffffffffffffffffffffffffffffffffffffff168787604051612ff19291906150fa565b5f604051808303815f865af19150503d805f811461302a576040519150601f19603f3d011682016040523d82523d5f602084013e61302f565b606091505b505090508061306a576040517f81ceff3000000000000000000000000000000000000000000000000000000000815260040160405180910390fd5b5f8973ffffffffffffffffffffffffffffffffffffffff166370a08231306040518263ffffffff1660e01b81526004016130a49190614773565b602060405180830381865afa1580156130bf573d5f5f3e3d5ffd5b505050506040513d601f19601f820116820180604052508101906130e39190616169565b905082816130f19190616194565b94508585101561312d576040517f7716b74300000000000000000000000000000000000000000000000000000000815260040160405180910390fd5b505050509695505050505050565b5f6131446121fd565b73ffffffffffffffffffffffffffffffffffffffff1663935b13f684846040518363ffffffff1660e01b815260040161317e9291906158e5565b602060405180830381865afa158015613199573d5f5f3e3d5ffd5b505050506040513d601f19601f820116820180604052508101906131bd919061591b565b90506131f16131ca6121fd565b858373ffffffffffffffffffffffffffffffffffffffff16612d259092919063ffffffff16565b5f7f989c58dbefc5e303f03b212ac148679fd6dd696bfdb9b046014186e6d66b28cf8933874260405160200161322b959493929190615946565b60405160208183030381529060405290505f3490505f8103613279576040517fe6b6589300000000000000000000000000000000000000000000000000000000815260040160405180910390fd5b7f000000000000000000000000000000000000000000000000000000000000000073ffffffffffffffffffffffffffffffffffffffff1663c62c200282308c8c6132c28d612e32565b888c8c8f336040518b63ffffffff1660e01b81526004016132eb999897969594939291906159e9565b5f604051808303818588803b158015613302575f5ffd5b505af1158015613314573d5f5f3e3d5ffd5b50505050506133216121fd565b73ffffffffffffffffffffffffffffffffffffffff1663b54170848a8a6133478b612e32565b868a8a8d6040518863ffffffff1660e01b815260040161336d9796959493929190615a76565b5f604051808303815f87803b158015613384575f5ffd5b505af1158015613396573d5f5f3e3d5ffd5b50505050897f037316700ad34ce89fd368e365354186ee196d3e4cf3a3cc85d7edfefdd199108a8a8a8a8a8a6040516133d496959493929190615ae7565b60405180910390a250505050505050505050565b6005816040516133f89190615e8e565b90815260200160405180910390205f9054906101000a900460ff166134805760016005826040516134299190615e8e565b90815260200160405180910390205f6101000a81548160ff021916908315150217905550600781908060018154018082558091505060019003905f5260205f20015f90919091909150908161347e9190615d8f565b505b50565b5f33905090565b5f5f829050602a8151146134d3576040517f08c379a00000000000000000000000000000000000000000000000000000000081526004016134ca90616211565b60405180910390fd5b5f601467ffffffffffffffff8111156134ef576134ee6145f9565b5b6040519080825280601f01601f1916602001820160405280156135215781602001600182028036833780820191505090505b5090505f5f90505b601481101561361b5761357383600283613543919061523a565b600361354f91906153c8565b815181106135605761355f61532d565b5b602001015160f81c60f81b60f81c613ddf565b60106135b685600285613586919061523a565b600261359291906153c8565b815181106135a3576135a261532d565b5b602001015160f81c60f81b60f81c613ddf565b6135c0919061623b565b6135ca9190616277565b60f81b8282815181106135e0576135df61532d565b5b60200101907effffffffffffffffffffffffffffffffffffffffffffffffffffffffffffff191690815f1a9053508080600101915050613529565b5080613626906162f9565b60601c92505050919050565b61363a610e12565b613670576040517f8dfc202b00000000000000000000000000000000000000000000000000000000815260040160405180910390fd5b565b5f5f5f5f5f8686810190613686919061635f565b955095509550955095505060045f8681526020019081526020015f206040518060e001604052808781526020018673ffffffffffffffffffffffffffffffffffffffff1681526020018581526020018481526020018b8b8080601f0160208091040260200160405190810160405280939291908181526020018383808284375f81840152601f19601f8201169050808301925050505050505081526020018381526020015f1515815250908060018154018082558091505060019003905f5260205f2090600702015f909190919091505f820151815f01556020820151816001015f6101000a81548173ffffffffffffffffffffffffffffffffffffffff021916908373ffffffffffffffffffffffffffffffffffffffff1602179055506040820151816002015560608201518160030190816137c39190615d8f565b5060808201518160040190816137d99190615d8f565b5060a0820151816005015560c0820151816006015f6101000a81548160ff0219169083151502179055505050847f57456db22eca97ed41d53c285c88c2aa1e9b6623c5bf95b9e8288c6566e01b138a8a87878760405161383d959493929190616404565b60405180910390a2505050505050505050565b5f5f5f5f5f5f87878101906138659190616544565b965096509650965096509650505f60035f8881526020019081526020015f2090505f5f1b815f01540361398f5786815f018190555085816001015f6101000a81548173ffffffffffffffffffffffffffffffffffffffff021916908373ffffffffffffffffffffffffffffffffffffffff160217905550848160020181905550838160030190816138f69190615d8f565b508281600401908051906020019061390f92919061400f565b504281600801819055505f5f90505b835181101561398d5782818151811061393a5761393961532d565b5b6020026020010151826005018583815181106139595761395861532d565b5b602002602001015160405161396e9190615e8e565b908152602001604051809103902081905550808060010191505061391e565b505b5050505050505050505050565b5f5f83838101906139ad9190616649565b92509250505f60035f8481526020019081526020015f2090505f5f1b815f015414613aad57818160060188886040516139e79291906150b4565b90815260200160405180910390205f6101000a81548160ff0219169083151502179055505f600190505f5f90505b8260040180549050811015613a875782600601836004018281548110613a3e57613a3d61532d565b5b905f5260205f2001604051613a539190616719565b90815260200160405180910390205f9054906101000a900460ff16613a7a575f9150613a87565b8080600101915050613a15565b508015613aab576001826007015f6101000a81548160ff0219169083151502179055505b505b50505050505050565b5f5f60205f8451602086015f885af180613ad5576040513d5f823e3d81fd5b3d92505f519150505f8214613aee576001811415613b09565b5f8473ffffffffffffffffffffffffffffffffffffffff163b145b15613b4b57836040517f5274afe7000000000000000000000000000000000000000000000000000000008152600401613b429190614773565b60405180910390fd5b50505050565b5f5f5f5f60205f8651602088015f8a5af192503d91505f519050828015613b9f57505f8214613b835760018114613b9e565b5f8673ffffffffffffffffffffffffffffffffffffffff163b115b5b935050505092915050565b60605f6002836002613bbc919061523a565b613bc691906153c8565b67ffffffffffffffff811115613bdf57613bde6145f9565b5b6040519080825280601f01601f191660200182016040528015613c115781602001600182028036833780820191505090505b5090507f3000000000000000000000000000000000000000000000000000000000000000815f81518110613c4857613c4761532d565b5b60200101907effffffffffffffffffffffffffffffffffffffffffffffffffffffffffffff191690815f1a9053507f780000000000000000000000000000000000000000000000000000000000000081600181518110613cab57613caa61532d565b5b60200101907effffffffffffffffffffffffffffffffffffffffffffffffffffffffffffff191690815f1a9053505f6001846002613ce9919061523a565b613cf391906153c8565b90505b6001811115613d92577f3031323334353637383961626364656600000000000000000000000000000000600f861660108110613d3557613d3461532d565b5b1a60f81b828281518110613d4c57613d4b61532d565b5b60200101907effffffffffffffffffffffffffffffffffffffffffffffffffffffffffffff191690815f1a905350600485901c945080613d8b9061672f565b9050613cf6565b505f8414613dd5576040517f08c379a0000000000000000000000000000000000000000000000000000000008152600401613dcc906167a0565b60405180910390fd5b8091505092915050565b5f7f300000000000000000000000000000000000000000000000000000000000000060f81c60ff168260ff1610158015613e4257507f390000000000000000000000000000000000000000000000000000000000000060f81c60ff168260ff1611155b15613e7d577f300000000000000000000000000000000000000000000000000000000000000060f81c82613e7691906167be565b905061400a565b7f610000000000000000000000000000000000000000000000000000000000000060f81c60ff168260ff1610158015613edf57507f660000000000000000000000000000000000000000000000000000000000000060f81c60ff168260ff1611155b15613f26577f610000000000000000000000000000000000000000000000000000000000000060f81c82600a613f159190616277565b613f1f91906167be565b905061400a565b7f410000000000000000000000000000000000000000000000000000000000000060f81c60ff168260ff1610158015613f8857507f460000000000000000000000000000000000000000000000000000000000000060f81c60ff168260ff1611155b15613fcf577f410000000000000000000000000000000000000000000000000000000000000060f81c82600a613fbe9190616277565b613fc891906167be565b905061400a565b6040517f08c379a00000000000000000000000000000000000000000000000000000000081526004016140019061683c565b60405180910390fd5b919050565b828054828255905f5260205f20908101928215614055579160200282015b828111156140545782518290816140449190615d8f565b509160200191906001019061402d565b5b5090506140629190614066565b5090565b5b80821115614085575f818161407c9190614089565b50600101614067565b5090565b50805461409590615432565b5f825580601f106140a657506140c3565b601f0160209004905f5260205f20908101906140c291906140c6565b5b50565b5b808211156140dd575f815f9055506001016140c7565b5090565b5f73ffffffffffffffffffffffffffffffffffffffff82169050919050565b5f819050919050565b5f61412361411e614119846140e1565b614100565b6140e1565b9050919050565b5f61413482614109565b9050919050565b5f6141458261412a565b9050919050565b6141558161413b565b82525050565b5f60208201905061416e5f83018461414c565b92915050565b5f819050919050565b61418681614174565b82525050565b5f60208201905061419f5f83018461417d565b92915050565b5f604051905090565b5f5ffd5b5f5ffd5b5f5ffd5b5f5ffd5b5f5ffd5b5f5f83601f8401126141d7576141d66141b6565b5b8235905067ffffffffffffffff8111156141f4576141f36141ba565b5b6020830191508360018202830111156142105761420f6141be565b5b9250929050565b5f614221826140e1565b9050919050565b61423181614217565b811461423b575f5ffd5b50565b5f8135905061424c81614228565b92915050565b5f5f5f60408486031215614269576142686141ae565b5b5f84013567ffffffffffffffff811115614286576142856141b2565b5b614292868287016141c2565b935093505060206142a58682870161423e565b9150509250925092565b6142b881614174565b81146142c2575f5ffd5b50565b5f813590506142d3816142af565b92915050565b5f5f83601f8401126142ee576142ed6141b6565b5b8235905067ffffffffffffffff81111561430b5761430a6141ba565b5b602083019150836001820283011115614327576143266141be565b5b9250929050565b5f819050919050565b6143408161432e565b811461434a575f5ffd5b50565b5f8135905061435b81614337565b92915050565b5f5f5f5f5f5f5f5f5f5f60c08b8d03121561437f5761437e6141ae565b5b5f61438c8d828e016142c5565b9a505060208b013567ffffffffffffffff8111156143ad576143ac6141b2565b5b6143b98d828e016141c2565b995099505060408b013567ffffffffffffffff8111156143dc576143db6141b2565b5b6143e88d828e016141c2565b975097505060608b013567ffffffffffffffff81111561440b5761440a6141b2565b5b6144178d828e016142d9565b955095505060808b013567ffffffffffffffff81111561443a576144396141b2565b5b6144468d828e016141c2565b935093505060a06144598d828e0161434d565b9150509295989b9194979a5092959850565b5f5f5f60608486031215614482576144816141ae565b5b5f61448f8682870161423e565b93505060206144a08682870161423e565b92505060406144b18682870161434d565b9150509250925092565b6144c48161432e565b82525050565b5f6020820190506144dd5f8301846144bb565b92915050565b5f5f604083850312156144f9576144f86141ae565b5b5f6145068582860161434d565b92505060206145178582860161423e565b9150509250929050565b5f5f5f5f5f5f5f6080888a03121561453c5761453b6141ae565b5b5f6145498a828b016142c5565b975050602088013567ffffffffffffffff81111561456a576145696141b2565b5b6145768a828b016141c2565b9650965050604088013567ffffffffffffffff811115614599576145986141b2565b5b6145a58a828b016141c2565b9450945050606088013567ffffffffffffffff8111156145c8576145c76141b2565b5b6145d48a828b016142d9565b925092505092959891949750929550565b5f5ffd5b5f601f19601f8301169050919050565b7f4e487b71000000000000000000000000000000000000000000000000000000005f52604160045260245ffd5b61462f826145e9565b810181811067ffffffffffffffff8211171561464e5761464d6145f9565b5b80604052505050565b5f6146606141a5565b905061466c8282614626565b919050565b5f67ffffffffffffffff82111561468b5761468a6145f9565b5b614694826145e9565b9050602081019050919050565b828183375f83830152505050565b5f6146c16146bc84614671565b614657565b9050828152602081018484840111156146dd576146dc6145e5565b5b6146e88482856146a1565b509392505050565b5f82601f830112614704576147036141b6565b5b81356147148482602086016146af565b91505092915050565b5f60208284031215614732576147316141ae565b5b5f82013567ffffffffffffffff81111561474f5761474e6141b2565b5b61475b848285016146f0565b91505092915050565b61476d81614217565b82525050565b5f6020820190506147865f830184614764565b92915050565b5f5f83601f8401126147a1576147a06141b6565b5b8235905067ffffffffffffffff8111156147be576147bd6141ba565b5b6020830191508360208202830111156147da576147d96141be565b5b9250929050565b5f5f83601f8401126147f6576147f56141b6565b5b8235905067ffffffffffffffff811115614813576148126141ba565b5b60208301915083602082028301111561482f5761482e6141be565b5b9250929050565b5f5f5f5f5f5f5f5f60a0898b031215614852576148516141ae565b5b5f61485f8b828c016142c5565b98505060206148708b828c0161434d565b975050604089013567ffffffffffffffff811115614891576148906141b2565b5b61489d8b828c016141c2565b9650965050606089013567ffffffffffffffff8111156148c0576148bf6141b2565b5b6148cc8b828c0161478c565b9450945050608089013567ffffffffffffffff8111156148ef576148ee6141b2565b5b6148fb8b828c016147e1565b92509250509295985092959890939650565b5f8115159050919050565b6149218161490d565b82525050565b5f60208201905061493a5f830184614918565b92915050565b5f61494a8261412a565b9050919050565b61495a81614940565b82525050565b5f6020820190506149735f830184614951565b92915050565b5f5f5f5f5f5f5f60a0888a031215614994576149936141ae565b5b5f6149a18a828b016142c5565b975050602088013567ffffffffffffffff8111156149c2576149c16141b2565b5b6149ce8a828b016141c2565b965096505060406149e18a828b0161423e565b94505060606149f28a828b0161434d565b935050608088013567ffffffffffffffff811115614a1357614a126141b2565b5b614a1f8a828b016141c2565b925092505092959891949750929550565b5f5f60408385031215614a4657614a456141ae565b5b5f614a53858286016142c5565b9250506020614a648582860161434d565b9150509250929050565b5f81519050919050565b5f82825260208201905092915050565b8281835e5f83830152505050565b5f614aa082614a6e565b614aaa8185614a78565b9350614aba818560208601614a88565b614ac3816145e9565b840191505092915050565b5f60e082019050614ae15f83018a61417d565b614aee6020830189614764565b614afb60408301886144bb565b8181036060830152614b0d8187614a96565b90508181036080830152614b218186614a96565b9050614b3060a08301856144bb565b614b3d60c0830184614918565b98975050505050505050565b5f60208284031215614b5e57614b5d6141ae565b5b5f614b6b8482850161434d565b91505092915050565b5f81519050919050565b5f82825260208201905092915050565b5f819050602082019050919050565b5f82825260208201905092915050565b5f614bb782614a6e565b614bc18185614b9d565b9350614bd1818560208601614a88565b614bda816145e9565b840191505092915050565b5f614bf08383614bad565b905092915050565b5f602082019050919050565b5f614c0e82614b74565b614c188185614b7e565b935083602082028501614c2a85614b8e565b805f5b85811015614c655784840389528151614c468582614be5565b9450614c5183614bf8565b925060208a01995050600181019050614c2d565b50829750879550505050505092915050565b5f6020820190508181035f830152614c8f8184614c04565b905092915050565b5f5f5f5f5f5f5f5f5f5f5f6101008c8e031215614cb757614cb66141ae565b5b5f614cc48e828f016142c5565b9b50506020614cd58e828f0161423e565b9a50506040614ce68e828f0161434d565b99505060608c013567ffffffffffffffff811115614d0757614d066141b2565b5b614d138e828f016141c2565b985098505060808c013567ffffffffffffffff811115614d3657614d356141b2565b5b614d428e828f016141c2565b965096505060a0614d558e828f0161423e565b94505060c08c013567ffffffffffffffff811115614d7657614d756141b2565b5b614d828e828f016142d9565b935093505060e0614d958e828f0161434d565b9150509295989b509295989b9093969950565b5f5f60208385031215614dbe57614dbd6141ae565b5b5f83013567ffffffffffffffff811115614ddb57614dda6141b2565b5b614de7858286016141c2565b92509250509250929050565b5f6020820190508181035f830152614e0b8184614a96565b905092915050565b5f60208284031215614e2857614e276141ae565b5b5f614e358482850161423e565b91505092915050565b5f60208284031215614e5357614e526141ae565b5b5f614e60848285016142c5565b91505092915050565b5f81519050919050565b5f82825260208201905092915050565b5f819050602082019050919050565b614e9b81614174565b82525050565b614eaa81614217565b82525050565b614eb98161432e565b82525050565b614ec88161490d565b82525050565b5f60e083015f830151614ee35f860182614e92565b506020830151614ef66020860182614ea1565b506040830151614f096040860182614eb0565b5060608301518482036060860152614f218282614bad565b91505060808301518482036080860152614f3b8282614bad565b91505060a0830151614f5060a0860182614eb0565b5060c0830151614f6360c0860182614ebf565b508091505092915050565b5f614f798383614ece565b905092915050565b5f602082019050919050565b5f614f9782614e69565b614fa18185614e73565b935083602082028501614fb385614e83565b805f5b85811015614fee5784840389528151614fcf8582614f6e565b9450614fda83614f81565b925060208a01995050600181019050614fb6565b50829750879550505050505092915050565b5f6020820190508181035f8301526150188184614f8d565b905092915050565b5f60c0820190506150335f83018961417d565b6150406020830188614764565b61504d60408301876144bb565b818103606083015261505f8186614a96565b905061506e6080830185614918565b61507b60a08301846144bb565b979650505050505050565b5f81905092915050565b5f61509b8385615086565b93506150a88385846146a1565b82840190509392505050565b5f6150c0828486615090565b91508190509392505050565b5f81905092915050565b5f6150e183856150cc565b93506150ee8385846146a1565b82840190509392505050565b5f6151068284866150d6565b91508190509392505050565b5f61511d8385614a78565b935061512a8385846146a1565b615133836145e9565b840190509392505050565b5f60c0820190506151515f83018c61417d565b8181036020830152615164818a8c615112565b9050818103604083015261517981888a615112565b9050615188606083018761417d565b818103608083015261519b818587615112565b90506151aa60a08301846144bb565b9a9950505050505050505050565b6151c18161490d565b81146151cb575f5ffd5b50565b5f815190506151dc816151b8565b92915050565b5f602082840312156151f7576151f66141ae565b5b5f615204848285016151ce565b91505092915050565b7f4e487b71000000000000000000000000000000000000000000000000000000005f52601160045260245ffd5b5f6152448261432e565b915061524f8361432e565b925082820261525d8161432e565b915082820484148315176152745761527361520d565b5b5092915050565b7f4e487b71000000000000000000000000000000000000000000000000000000005f52601260045260245ffd5b5f6152b28261432e565b91506152bd8361432e565b9250826152cd576152cc61527b565b5b828204905092915050565b5f6080820190506152eb5f83018961417d565b81810360208301526152fe818789615112565b90508181036040830152615313818587615112565b9050615322606083018461417d565b979650505050505050565b7f4e487b71000000000000000000000000000000000000000000000000000000005f52603260045260245ffd5b5f5ffd5b5f5ffd5b5f5ffd5b5f5f833560016020038436030381126153825761538161535a565b5b80840192508235915067ffffffffffffffff8211156153a4576153a361535e565b5b6020830192506001820236038313156153c0576153bf615362565b5b509250929050565b5f6153d28261432e565b91506153dd8361432e565b92508282019050808211156153f5576153f461520d565b5b92915050565b5f82905092915050565b7f4e487b71000000000000000000000000000000000000000000000000000000005f52602260045260245ffd5b5f600282049050600182168061544957607f821691505b60208210810361545c5761545b615405565b5b50919050565b5f819050815f5260205f209050919050565b5f6020601f8301049050919050565b5f82821b905092915050565b5f600883026154be7fffffffffffffffffffffffffffffffffffffffffffffffffffffffffffffffff82615483565b6154c88683615483565b95508019841693508086168417925050509392505050565b5f6154fa6154f56154f08461432e565b614100565b61432e565b9050919050565b5f819050919050565b615513836154e0565b61552761551f82615501565b84845461548f565b825550505050565b5f5f905090565b61553e61552f565b61554981848461550a565b505050565b5b8181101561556c576155615f82615536565b60018101905061554f565b5050565b601f8211156155b15761558281615462565b61558b84615474565b8101602085101561559a578190505b6155ae6155a685615474565b83018261554e565b50505b505050565b5f82821c905092915050565b5f6155d15f19846008026155b6565b1980831691505092915050565b5f6155e983836155c2565b9150826002028217905092915050565b61560383836153fb565b67ffffffffffffffff81111561561c5761561b6145f9565b5b6156268254615432565b615631828285615570565b5f601f83116001811461565e575f841561564c578287013590505b61565685826155de565b8655506156bd565b601f19841661566c86615462565b5f5b828110156156935784890135825560018201915060208501945060208101905061566e565b868310156156b057848901356156ac601f8916826155c2565b8355505b6001600288020188555050505b50505050505050565b5f67ffffffffffffffff8211156156e0576156df6145f9565b5b602082029050602081019050919050565b5f6157036156fe846156c6565b614657565b90508083825260208201905060208402830185811115615726576157256141be565b5b835b8181101561576d57803567ffffffffffffffff81111561574b5761574a6141b6565b5b80860161575889826146f0565b85526020850194505050602081019050615728565b5050509392505050565b5f6157833684846156f1565b905092915050565b5f819050919050565b5f61579f8385614b9d565b93506157ac8385846146a1565b6157b5836145e9565b840190509392505050565b5f6157cc848484615794565b90509392505050565b5f5ffd5b5f5ffd5b5f5ffd5b5f5f833560016020038436030381126157fd576157fc6157dd565b5b83810192508235915060208301925067ffffffffffffffff821115615825576158246157d5565b5b60018202360383131561583b5761583a6157d9565b5b509250929050565b5f602082019050919050565b5f61585a8385614b7e565b93508360208402850161586c8461578b565b805f5b878110156158b157848403895261588682846157e1565b6158918682846157c0565b955061589c84615843565b935060208b019a50505060018101905061586f565b50829750879450505050509392505050565b5f6020820190508181035f8301526158dc81848661584f565b90509392505050565b5f6020820190508181035f8301526158fe818486615112565b90509392505050565b5f8151905061591581614228565b92915050565b5f602082840312156159305761592f6141ae565b5b5f61593d84828501615907565b91505092915050565b5f60a0820190506159595f83018861417d565b615966602083018761417d565b6159736040830186614764565b61598060608301856144bb565b61598d60808301846144bb565b9695505050505050565b5f81519050919050565b5f82825260208201905092915050565b5f6159bb82615997565b6159c581856159a1565b93506159d5818560208601614a88565b6159de816145e9565b840191505092915050565b5f60e0820190506159fc5f83018c614764565b8181036020830152615a0f818a8c615112565b90508181036040830152615a238189614a96565b90508181036060830152615a3781886159b1565b90508181036080830152615a4c818688615112565b9050615a5b60a08301856144bb565b615a6860c0830184614764565b9a9950505050505050505050565b5f60a0820190508181035f830152615a8f81898b615112565b90508181036020830152615aa38188614a96565b90508181036040830152615ab781876159b1565b90508181036060830152615acc818587615112565b9050615adb60808301846144bb565b98975050505050505050565b5f6080820190508181035f830152615b0081888a615112565b9050615b0f6020830187614764565b615b1c60408301866144bb565b8181036060830152615b2f818486615112565b9050979650505050505050565b5f60c082019050615b4f5f83018a61417d565b615b5c602083018961417d565b615b696040830188614764565b615b7660608301876144bb565b8181036080830152615b89818587615112565b9050615b9860a08301846144bb565b98975050505050505050565b5f60a082019050615bb75f830189614764565b8181036020830152615bca818789615112565b90508181036040830152615bde8186614a96565b90508181036060830152615bf281856159b1565b9050615c016080830184614764565b979650505050505050565b5f6060820190508181035f830152615c25818688615112565b90508181036020830152615c398185614a96565b90508181036040830152615c4d81846159b1565b905095945050505050565b5f606082019050615c6b5f8301866144bb565b615c7860208301856144bb565b615c856040830184614764565b949350505050565b5f60a082019050615ca05f83018a614764565b8181036020830152615cb381888a615112565b9050615cc260408301876144bb565b615ccf60608301866144bb565b8181036080830152615ce2818486615112565b905098975050505050505050565b5f615cfa826140e1565b9050919050565b615d0a81615cf0565b8114615d14575f5ffd5b50565b5f81359050615d2581615d01565b92915050565b5f5f5f5f60808587031215615d4357615d426141ae565b5b5f615d50878288016142c5565b9450506020615d61878288016142c5565b9350506040615d7287828801615d17565b9250506060615d838782880161434d565b91505092959194509250565b615d9882614a6e565b67ffffffffffffffff811115615db157615db06145f9565b5b615dbb8254615432565b615dc6828285615570565b5f60209050601f831160018114615df7575f8415615de5578287015190505b615def85826155de565b865550615e56565b601f198416615e0586615462565b5f5b82811015615e2c57848901518255600182019150602085019450602081019050615e07565b86831015615e495784890151615e45601f8916826155c2565b8355505b6001600288020188555050505b505050505050565b5f615e6882614a6e565b615e728185615086565b9350615e82818560208601614a88565b80840191505092915050565b5f615e998284615e5e565b915081905092915050565b5f8154615eb081615432565b615eba8186614a78565b9450600182165f8114615ed45760018114615eea57615f1c565b60ff198316865281151560200286019350615f1c565b615ef385615462565b5f5b83811015615f1457815481890152600182019150602081019050615ef5565b808801955050505b50505092915050565b5f81519050919050565b5f82825260208201905092915050565b5f819050602082019050919050565b5f615f598383614eb0565b60208301905092915050565b5f602082019050919050565b5f615f7b82615f25565b615f858185615f2f565b9350615f9083615f3f565b805f5b83811015615fc0578151615fa78882615f4e565b9750615fb283615f65565b925050600181019050615f93565b5085935050505092915050565b5f60e082019050615fe05f83018a61417d565b615fed602083018961417d565b615ffa6040830188614764565b61600760608301876144bb565b81810360808301526160198186615ea4565b905081810360a083015261602d8185614c04565b905081810360c08301526160418184615f71565b905098975050505050505050565b5f6060820190508181035f8301526160678186614a96565b9050818103602083015261607b8185614a96565b9050818103604083015261608f81846159b1565b9050949350505050565b5f6060820190506160ac5f830186614764565b6160b96020830185614764565b6160c660408301846144bb565b949350505050565b5f6040820190506160e15f830185614764565b6160ee60208301846144bb565b9392505050565b5f819050919050565b5f61611861611361610e846160f5565b614100565b61432e565b9050919050565b616128816160fe565b82525050565b5f6040820190506161415f830185614764565b61614e602083018461611f565b9392505050565b5f8151905061616381614337565b92915050565b5f6020828403121561617e5761617d6141ae565b5b5f61618b84828501616155565b91505092915050565b5f61619e8261432e565b91506161a98361432e565b92508282039050818111156161c1576161c061520d565b5b92915050565b7f496e76616c6964206164647265737320737472696e67000000000000000000005f82015250565b5f6161fb601683614a78565b9150616206826161c7565b602082019050919050565b5f6020820190508181035f830152616228816161ef565b9050919050565b5f60ff82169050919050565b5f6162458261622f565b91506162508361622f565b925082820261625e8161622f565b91508082146162705761626f61520d565b5b5092915050565b5f6162818261622f565b915061628c8361622f565b9250828201905060ff8111156162a5576162a461520d565b5b92915050565b5f819050602082019050919050565b5f7fffffffffffffffffffffffffffffffffffffffff00000000000000000000000082169050919050565b5f6162f082516162ba565b80915050919050565b5f61630382615997565b8261630d846162ab565b9050616318816162e5565b92506014821015616358576163537fffffffffffffffffffffffffffffffffffffffff00000000000000000000000083601403600802615483565b831692505b5050919050565b5f5f5f5f5f5f60c08789031215616379576163786141ae565b5b5f61638689828a016142c5565b965050602061639789828a016142c5565b95505060406163a889828a01615d17565b94505060606163b989828a0161434d565b935050608087013567ffffffffffffffff8111156163da576163d96141b2565b5b6163e689828a016146f0565b92505060a06163f789828a0161434d565b9150509295509295509295565b5f6080820190508181035f83015261641d818789615112565b905061642c6020830186614764565b61643960408301856144bb565b818103606083015261644b8184614a96565b90509695505050505050565b5f82601f83011261646b5761646a6141b6565b5b813561647b8482602086016156f1565b91505092915050565b5f67ffffffffffffffff82111561649e5761649d6145f9565b5b602082029050602081019050919050565b5f6164c16164bc84616484565b614657565b905080838252602082019050602084028301858111156164e4576164e36141be565b5b835b8181101561650d57806164f9888261434d565b8452602084019350506020810190506164e6565b5050509392505050565b5f82601f83011261652b5761652a6141b6565b5b813561653b8482602086016164af565b91505092915050565b5f5f5f5f5f5f5f60e0888a03121561655f5761655e6141ae565b5b5f61656c8a828b016142c5565b975050602061657d8a828b016142c5565b965050604061658e8a828b01615d17565b955050606061659f8a828b0161434d565b945050608088013567ffffffffffffffff8111156165c0576165bf6141b2565b5b6165cc8a828b016146f0565b93505060a088013567ffffffffffffffff8111156165ed576165ec6141b2565b5b6165f98a828b01616457565b92505060c088013567ffffffffffffffff81111561661a576166196141b2565b5b6166268a828b01616517565b91505092959891949750929550565b5f81359050616643816151b8565b92915050565b5f5f5f606084860312156166605761665f6141ae565b5b5f61666d868287016142c5565b935050602061667e868287016142c5565b925050604061668f86828701616635565b9150509250925092565b5f81546166a581615432565b6166af8186615086565b9450600182165f81146166c957600181146166de57616710565b60ff1983168652811515820286019350616710565b6166e785615462565b5f5b83811015616708578154818901526001820191506020810190506166e9565b838801955050505b50505092915050565b5f6167248284616699565b915081905092915050565b5f6167398261432e565b91505f820361674b5761674a61520d565b5b600182039050919050565b7f537472696e67733a20686578206c656e67746820696e73756666696369656e745f82015250565b5f61678a602083614a78565b915061679582616756565b602082019050919050565b5f6020820190508181035f8301526167b78161677e565b9050919050565b5f6167c88261622f565b91506167d38361622f565b9250828203905060ff8111156167ec576167eb61520d565b5b92915050565b7f496e76616c6964206865782063686172616374657200000000000000000000005f82015250565b5f616826601583614a78565b9150616831826167f2565b602082019050919050565b5f6020820190508181035f8301526168538161681a565b905091905056fea264697066735822122080c369f40b91c4771ee70d2bfb25ed6845a822e308204915737ad6a8dd19f08f64736f6c634300081d0033","linkReferences":{}},"methodIdentifiers":{"BILL_SYNCHRONIZATION()":"b2bbf680","CROSS_CHAIN_PAYMENT()":"11a2759b","SETTLEMENT_CONFIRMATION()":"ba44ea96","addSupportedChain(string)":"e5eb8a89","createCrossChainBill(bytes32,uint256,string,string[],uint256[])":"514654a5","crossChainBills(bytes32)":"fceb814f","execute(bytes32,string,string,bytes)":"49160658","executeWithToken(bytes32,string,string,bytes,string,uint256)":"1a98b2e0","gasService()":"6a22d8cc","gateway()":"116191b6","getOneInchQuote(address,address,uint256)":"29aa0fed","getPendingPayments(bytes32)":"f959c4fd","getSupportedChains()":"c4bffe2b","makeCrossChainPayment(bytes32,string,address,uint256,string)":"c336ff80","oneInchRouters(uint256)":"be0a3dce","owner()":"8da5cb5b","pause()":"8456cb59","paused()":"5c975abb","payBillWithSwap(bytes32,address,uint256,string,string,address,bytes,uint256)":"cfacf6d0","pendingPayments(bytes32,uint256)":"ad914932","renounceOwnership()":"715018a6","sendTokenCrossChain(bytes32,string,address,uint256,string)":"960f92c8","setTrustedRemote(string,address)":"19c0f12e","supportedChains(string)":"6c30aaa2","supportedChainsList(uint256)":"ee99f60b","transferOwnership(address)":"f2fde38b","trustedRemotes(string)":"4e90b9c0","unpause()":"3f4ba83a","updateOneInchRouter(uint256,address)":"405243ba"},"id":54}