{"abi":[{"type":"constructor","inputs":[],"stateMutability":"nonpayable"},{"type":"function","name":"MAX_BATCH_SIZE","inputs":[],"outputs":[{"name":"","type":"uint256","internalType":"uint256"}],"stateMutability":"view"},{"type":"function","name":"MAX_GROUP_SIZE","inputs":[],"outputs":[{"name":"","type":"uint256","internalType":"uint256"}],"stateMutability":"view"},{"type":"function","name":"batchVerifyBills","inputs":[{"name":"proofs","type":"bytes32[][]","internalType":"bytes32[][]"},{"name":"roots","type":"bytes32[]","internalType":"bytes32[]"},{"name":"billDataArray","type":"bytes[]","internalType":"bytes[]"}],"outputs":[{"name":"verifiedCount","type":"uint256","internalType":"uint256"}],"stateMutability":"nonpayable"},{"type":"function","name":"billStructures","inputs":[{"name":"","type":"bytes32","internalType":"bytes32"}],"outputs":[{"name":"totalAmount","type":"uint256","internalType":"uint256"},{"name":"splitType","type":"uint8","internalType":"enum MerkleVerifier.SplitType"},{"name":"timestamp","type":"uint256","internalType":"uint256"},{"name":"billId","type":"bytes32","internalType":"bytes32"}],"stateMutability":"view"},{"type":"function","name":"calculateEqualSplit","inputs":[{"name":"totalAmount","type":"uint256","internalType":"uint256"},{"name":"memberCount","type":"uint256","internalType":"uint256"}],"outputs":[{"name":"splitAmount","type":"uint256","internalType":"uint256"},{"name":"remainder","type":"uint256","internalType":"uint256"}],"stateMutability":"pure"},{"type":"function","name":"generateBillLeaf","inputs":[{"name":"bill","type":"tuple","internalType":"struct MerkleVerifier.BillStructure","components":[{"name":"totalAmount","type":"uint256","internalType":"uint256"},{"name":"splitType","type":"uint8","internalType":"enum MerkleVerifier.SplitType"},{"name":"members","type":"address[]","internalType":"address[]"},{"name":"amounts","type":"uint256[]","internalType":"uint256[]"},{"name":"timestamp","type":"uint256","internalType":"uint256"},{"name":"billId","type":"bytes32","internalType":"bytes32"}]}],"outputs":[{"name":"leaf","type":"bytes32","internalType":"bytes32"}],"stateMutability":"pure"},{"type":"function","name":"getBillStructure","inputs":[{"name":"root","type":"bytes32","internalType":"bytes32"}],"outputs":[{"name":"bill","type":"tuple","internalType":"struct MerkleVerifier.BillStructure","components":[{"name":"totalAmount","type":"uint256","internalType":"uint256"},{"name":"splitType","type":"uint8","internalType":"enum MerkleVerifier.SplitType"},{"name":"members","type":"address[]","internalType":"address[]"},{"name":"amounts","type":"uint256[]","internalType":"uint256[]"},{"name":"timestamp","type":"uint256","internalType":"uint256"},{"name":"billId","type":"bytes32","internalType":"bytes32"}]}],"stateMutability":"view"},{"type":"function","name":"invalidateBill","inputs":[{"name":"root","type":"bytes32","internalType":"bytes32"}],"outputs":[],"stateMutability":"nonpayable"},{"type":"function","name":"isBillVerified","inputs":[{"name":"root","type":"bytes32","internalType":"bytes32"}],"outputs":[{"name":"verified","type":"bool","internalType":"bool"}],"stateMutability":"view"},{"type":"function","name":"owner","inputs":[],"outputs":[{"name":"","type":"address","internalType":"address"}],"stateMutability":"view"},{"type":"function","name":"renounceOwnership","inputs":[],"outputs":[],"stateMutability":"nonpayable"},{"type":"function","name":"transferOwnership","inputs":[{"name":"newOwner","type":"address","internalType":"address"}],"outputs":[],"stateMutability":"nonpayable"},{"type":"function","name":"validatePercentageSplit","inputs":[{"name":"percentages","type":"uint256[]","internalType":"uint256[]"}],"outputs":[{"name":"valid","type":"bool","internalType":"bool"}],"stateMutability":"pure"},{"type":"function","name":"verifiedBills","inputs":[{"name":"","type":"bytes32","internalType":"bytes32"}],"outputs":[{"name":"","type":"bool","internalType":"bool"}],"stateMutability":"view"},{"type":"function","name":"verifyBillStructure","inputs":[{"name":"proof","type":"bytes32[]","internalType":"bytes32[]"},{"name":"root","type":"bytes32","internalType":"bytes32"},{"name":"billData","type":"bytes","internalType":"bytes"}],"outputs":[{"name":"verified","type":"bool","internalType":"bool"}],"stateMutability":"nonpayable"},{"type":"event","name":"BatchVerificationCompleted","inputs":[{"name":"roots","type":"bytes32[]","indexed":true,"internalType":"bytes32[]"},{"name":"verifiedCount","type":"uint256","indexed":false,"internalType":"uint256"}],"anonymous":false},{"type":"event","name":"BillStructureVerified","inputs":[{"name":"merkleRoot","type":"bytes32","indexed":true,"internalType":"bytes32"},{"name":"verifier","type":"address","indexed":true,"internalType":"address"}],"anonymous":false},{"type":"event","name":"OwnershipTransferred","inputs":[{"name":"previousOwner","type":"address","indexed":true,"internalType":"address"},{"name":"newOwner","type":"address","indexed":true,"internalType":"address"}],"anonymous":false},{"type":"error","name":"BatchSizeTooLarge","inputs":[]},{"type":"error","name":"InvalidBillStructure","inputs":[]},{"type":"error","name":"InvalidMerkleRoot","inputs":[]},{"type":"error","name":"InvalidProof","inputs":[]},{"type":"error","name":"OwnableInvalidOwner","inputs":[{"name":"owner","type":"address","internalType":"address"}]},{"type":"error","name":"OwnableUnauthorizedAccount","inputs":[{"name":"account","type":"address","internalType":"address"}]},{"type":"error","name":"ReentrancyGuardReentrantCall","inputs":[]}],"bytecode":{"object":"0x608060405234801561000f575f5ffd5b50335f73ffffffffffffffffffffffffffffffffffffffff168173ffffffffffffffffffffffffffffffffffffffff1603610081575f6040517f1e4fbdf7000000000000000000000000000000000000000000000000000000008152600401610078919061019d565b60405180910390fd5b6100908161009d60201b60201c565b50600180819055506101b6565b5f5f5f9054906101000a900473ffffffffffffffffffffffffffffffffffffffff169050815f5f6101000a81548173ffffffffffffffffffffffffffffffffffffffff021916908373ffffffffffffffffffffffffffffffffffffffff1602179055508173ffffffffffffffffffffffffffffffffffffffff168173ffffffffffffffffffffffffffffffffffffffff167f8be0079c531659141344cd1fd0a4f28419497f9722a3daafe3b4186f6b6457e060405160405180910390a35050565b5f73ffffffffffffffffffffffffffffffffffffffff82169050919050565b5f6101878261015e565b9050919050565b6101978161017d565b82525050565b5f6020820190506101b05f83018461018e565b92915050565b612551806101c35f395ff3fe608060405234801561000f575f5ffd5b50600436106100f3575f3560e01c80639abfad8f11610095578063d37f6b3c11610064578063d37f6b3c146102ae578063dc28c16f146102df578063dd00aed41461030f578063f2fde38b1461032b576100f3565b80639abfad8f14610200578063be03d19b14610230578063cfdbf25414610260578063d10f57e21461027e576100f3565b8063715018a6116100d1578063715018a614610175578063784297f71461017f5780638da5cb5b146101b257806392c72089146101d0576100f3565b806302c2e56a146100f757806317754cd5146101275780634e24e8ac14610145575b5f5ffd5b610111600480360381019061010c91906112d0565b610347565b60405161011e919061137b565b60405180910390f35b61012f61055f565b60405161013c91906113ac565b60405180910390f35b61015f600480360381019061015a91906113e7565b610564565b60405161016c919061143d565b60405180910390f35b61017d610593565b005b61019960048036038101906101949190611456565b6105a6565b6040516101a994939291906114f4565b60405180910390f35b6101ba6105de565b6040516101c79190611576565b60405180910390f35b6101ea60048036038101906101e59190611456565b610605565b6040516101f791906117a8565b60405180910390f35b61021a60048036038101906102159190611872565b610768565b60405161022791906113ac565b60405180910390f35b61024a60048036038101906102459190611977565b61096c565b604051610257919061137b565b60405180910390f35b6102686109c4565b60405161027591906113ac565b60405180910390f35b61029860048036038101906102939190611456565b6109c9565b6040516102a5919061137b565b60405180910390f35b6102c860048036038101906102c391906119ec565b6109ef565b6040516102d6929190611a2a565b60405180910390f35b6102f960048036038101906102f49190611456565b610a27565b604051610306919061137b565b60405180910390f35b61032960048036038101906103249190611456565b610a44565b005b61034560048036038101906103409190611a7b565b610ad0565b005b5f610350610b54565b5f5f1b840361038b576040517f9dd854d300000000000000000000000000000000000000000000000000000000815260040160405180910390fd5b5f838360405161039c929190611ae2565b604051809103902090506103f18787808060200260200160405190810160405280939291908181526020018383602002808284375f81840152601f19601f820116905080830192505050505050508683610b9a565b91508161042a576040517f09bde33900000000000000000000000000000000000000000000000000000000815260040160405180910390fd5b5f848481019061043a9190611e02565b905061044581610bb0565b600160025f8881526020019081526020015f205f6101000a81548160ff0219169083151502179055508060035f8881526020019081526020015f205f820151815f01556020820151816001015f6101000a81548160ff021916908360028111156104b2576104b1611481565b5b021790555060408201518160020190805190602001906104d3929190611069565b5060608201518160030190805190602001906104f09291906110f0565b506080820151816004015560a082015181600501559050503373ffffffffffffffffffffffffffffffffffffffff16867f68102bbae9bed20572fc713a19a777ea321e825abb4ff290718b6a704ca82def60405160405180910390a35050610556610e82565b95945050505050565b606481565b5f81604051602001610576919061210a565b604051602081830303815290604052805190602001209050919050565b61059b610e8b565b6105a45f610f12565b565b6003602052805f5260405f205f91509050805f015490806001015f9054906101000a900460ff16908060040154908060050154905084565b5f5f5f9054906101000a900473ffffffffffffffffffffffffffffffffffffffff16905090565b61060d61113b565b60035f8381526020019081526020015f206040518060c00160405290815f8201548152602001600182015f9054906101000a900460ff16600281111561065657610655611481565b5b600281111561066857610667611481565b5b8152602001600282018054806020026020016040519081016040528092919081815260200182805480156106ee57602002820191905f5260205f20905b815f9054906101000a900473ffffffffffffffffffffffffffffffffffffffff1673ffffffffffffffffffffffffffffffffffffffff16815260200190600101908083116106a5575b505050505081526020016003820180548060200260200160405190810160405280929190818152602001828054801561074457602002820191905f5260205f20905b815481526020019060010190808311610730575b50505050508152602001600482015481526020016005820154815250509050919050565b5f610771610b54565b5f85859050905060328111156107b3576040517f7a01d65400000000000000000000000000000000000000000000000000000000815260040160405180910390fd5b87879050811415806107c85750838390508114155b156107ff576040517f6b2c461600000000000000000000000000000000000000000000000000000000815260040160405180910390fd5b5f5f90505b81811015610909573073ffffffffffffffffffffffffffffffffffffffff166302c2e56a8a8a8481811061083b5761083a61212a565b5b905060200281019061084d9190612163565b8a8a868181106108605761085f61212a565b5b9050602002013589898781811061087a5761087961212a565b5b905060200281019061088c91906121c5565b6040518663ffffffff1660e01b81526004016108ac9594939291906122ce565b6020604051808303815f875af19250505080156108e757506040513d601f19601f820116820180604052508101906108e4919061233f565b60015b156108fc575082806108f890612397565b9350505b8080600101915050610804565b50858560405161091a929190612443565b60405180910390207f7d504af1302877cea05b2ab3f8f4ce29e948ec2361cd82d5755ee2f1986557d68360405161095191906113ac565b60405180910390a250610962610e82565b9695505050505050565b5f5f5f90505f5f90505b848490508110156109b5578484828181106109945761099361212a565b5b90506020020135826109a6919061245b565b91508080600101915050610976565b50612710811491505092915050565b603281565b5f60025f8381526020019081526020015f205f9054906101000a900460ff169050919050565b5f5f5f8303610a03575f8491509150610a20565b8284610a0f91906124bb565b91508284610a1d91906124eb565b90505b9250929050565b6002602052805f5260405f205f915054906101000a900460ff1681565b610a4c610e8b565b5f60025f8381526020019081526020015f205f6101000a81548160ff02191690831515021790555060035f8281526020019081526020015f205f5f82015f9055600182015f6101000a81549060ff0219169055600282015f610aae919061117f565b600382015f610abd919061119d565b600482015f9055600582015f9055505050565b610ad8610e8b565b5f73ffffffffffffffffffffffffffffffffffffffff168173ffffffffffffffffffffffffffffffffffffffff1603610b48575f6040517f1e4fbdf7000000000000000000000000000000000000000000000000000000008152600401610b3f9190611576565b60405180910390fd5b610b5181610f12565b50565b600260015403610b90576040517f3ee5aeb500000000000000000000000000000000000000000000000000000000815260040160405180910390fd5b6002600181905550565b5f82610ba68584610fd3565b1490509392505050565b5f815f015103610bec576040517f6b2c461600000000000000000000000000000000000000000000000000000000815260040160405180910390fd5b5f8160400151511480610c0457506064816040015151115b15610c3b576040517f6b2c461600000000000000000000000000000000000000000000000000000000815260040160405180910390fd5b5f5f1b8160a0015103610c7a576040517f6b2c461600000000000000000000000000000000000000000000000000000000815260040160405180910390fd5b60016002811115610c8e57610c8d611481565b5b81602001516002811115610ca557610ca4611481565b5b03610d7e5780604001515181606001515114610ced576040517f6b2c461600000000000000000000000000000000000000000000000000000000815260040160405180910390fd5b5f5f90505f5f90505b826060015151811015610d3c5782606001518181518110610d1a57610d1961212a565b5b602002602001015182610d2d919061245b565b91508080600101915050610cf6565b506127108114610d78576040517f6b2c461600000000000000000000000000000000000000000000000000000000815260040160405180910390fd5b50610e7f565b600280811115610d9157610d90611481565b5b81602001516002811115610da857610da7611481565b5b03610e7e5780604001515181606001515114610df0576040517f6b2c461600000000000000000000000000000000000000000000000000000000815260040160405180910390fd5b5f5f90505f5f90505b826060015151811015610e3f5782606001518181518110610e1d57610e1c61212a565b5b602002602001015182610e30919061245b565b91508080600101915050610df9565b50815f01518114610e7c576040517f6b2c461600000000000000000000000000000000000000000000000000000000815260040160405180910390fd5b505b5b50565b60018081905550565b610e93611024565b73ffffffffffffffffffffffffffffffffffffffff16610eb16105de565b73ffffffffffffffffffffffffffffffffffffffff1614610f1057610ed4611024565b6040517f118cdaa7000000000000000000000000000000000000000000000000000000008152600401610f079190611576565b60405180910390fd5b565b5f5f5f9054906101000a900473ffffffffffffffffffffffffffffffffffffffff169050815f5f6101000a81548173ffffffffffffffffffffffffffffffffffffffff021916908373ffffffffffffffffffffffffffffffffffffffff1602179055508173ffffffffffffffffffffffffffffffffffffffff168173ffffffffffffffffffffffffffffffffffffffff167f8be0079c531659141344cd1fd0a4f28419497f9722a3daafe3b4186f6b6457e060405160405180910390a35050565b5f5f8290505f5f90505b84518110156110195761100a82868381518110610ffd57610ffc61212a565b5b602002602001015161102b565b91508080600101915050610fdd565b508091505092915050565b5f33905090565b5f8183106110425761103d8284611055565b61104d565b61104c8383611055565b5b905092915050565b5f825f528160205260405f20905092915050565b828054828255905f5260205f209081019282156110df579160200282015b828111156110de578251825f6101000a81548173ffffffffffffffffffffffffffffffffffffffff021916908373ffffffffffffffffffffffffffffffffffffffff16021790555091602001919060010190611087565b5b5090506110ec91906111bb565b5090565b828054828255905f5260205f2090810192821561112a579160200282015b8281111561112957825182559160200191906001019061110e565b5b50905061113791906111bb565b5090565b6040518060c001604052805f81526020015f600281111561115f5761115e611481565b5b815260200160608152602001606081526020015f81526020015f81525090565b5080545f8255905f5260205f209081019061119a91906111bb565b50565b5080545f8255905f5260205f20908101906111b891906111bb565b50565b5b808211156111d2575f815f9055506001016111bc565b5090565b5f604051905090565b5f5ffd5b5f5ffd5b5f5ffd5b5f5ffd5b5f5ffd5b5f5f83601f840112611208576112076111e7565b5b8235905067ffffffffffffffff811115611225576112246111eb565b5b602083019150836020820283011115611241576112406111ef565b5b9250929050565b5f819050919050565b61125a81611248565b8114611264575f5ffd5b50565b5f8135905061127581611251565b92915050565b5f5f83601f8401126112905761128f6111e7565b5b8235905067ffffffffffffffff8111156112ad576112ac6111eb565b5b6020830191508360018202830111156112c9576112c86111ef565b5b9250929050565b5f5f5f5f5f606086880312156112e9576112e86111df565b5b5f86013567ffffffffffffffff811115611306576113056111e3565b5b611312888289016111f3565b9550955050602061132588828901611267565b935050604086013567ffffffffffffffff811115611346576113456111e3565b5b6113528882890161127b565b92509250509295509295909350565b5f8115159050919050565b61137581611361565b82525050565b5f60208201905061138e5f83018461136c565b92915050565b5f819050919050565b6113a681611394565b82525050565b5f6020820190506113bf5f83018461139d565b92915050565b5f5ffd5b5f60c082840312156113de576113dd6113c5565b5b81905092915050565b5f602082840312156113fc576113fb6111df565b5b5f82013567ffffffffffffffff811115611419576114186111e3565b5b611425848285016113c9565b91505092915050565b61143781611248565b82525050565b5f6020820190506114505f83018461142e565b92915050565b5f6020828403121561146b5761146a6111df565b5b5f61147884828501611267565b91505092915050565b7f4e487b71000000000000000000000000000000000000000000000000000000005f52602160045260245ffd5b600381106114bf576114be611481565b5b50565b5f8190506114cf826114ae565b919050565b5f6114de826114c2565b9050919050565b6114ee816114d4565b82525050565b5f6080820190506115075f83018761139d565b61151460208301866114e5565b611521604083018561139d565b61152e606083018461142e565b95945050505050565b5f73ffffffffffffffffffffffffffffffffffffffff82169050919050565b5f61156082611537565b9050919050565b61157081611556565b82525050565b5f6020820190506115895f830184611567565b92915050565b61159881611394565b82525050565b6115a7816114d4565b82525050565b5f81519050919050565b5f82825260208201905092915050565b5f819050602082019050919050565b6115df81611556565b82525050565b5f6115f083836115d6565b60208301905092915050565b5f602082019050919050565b5f611612826115ad565b61161c81856115b7565b9350611627836115c7565b805f5b8381101561165757815161163e88826115e5565b9750611649836115fc565b92505060018101905061162a565b5085935050505092915050565b5f81519050919050565b5f82825260208201905092915050565b5f819050602082019050919050565b5f611698838361158f565b60208301905092915050565b5f602082019050919050565b5f6116ba82611664565b6116c4818561166e565b93506116cf8361167e565b805f5b838110156116ff5781516116e6888261168d565b97506116f1836116a4565b9250506001810190506116d2565b5085935050505092915050565b61171581611248565b82525050565b5f60c083015f8301516117305f86018261158f565b506020830151611743602086018261159e565b506040830151848203604086015261175b8282611608565b9150506060830151848203606086015261177582826116b0565b915050608083015161178a608086018261158f565b5060a083015161179d60a086018261170c565b508091505092915050565b5f6020820190508181035f8301526117c0818461171b565b905092915050565b5f5f83601f8401126117dd576117dc6111e7565b5b8235905067ffffffffffffffff8111156117fa576117f96111eb565b5b602083019150836020820283011115611816576118156111ef565b5b9250929050565b5f5f83601f840112611832576118316111e7565b5b8235905067ffffffffffffffff81111561184f5761184e6111eb565b5b60208301915083602082028301111561186b5761186a6111ef565b5b9250929050565b5f5f5f5f5f5f6060878903121561188c5761188b6111df565b5b5f87013567ffffffffffffffff8111156118a9576118a86111e3565b5b6118b589828a016117c8565b9650965050602087013567ffffffffffffffff8111156118d8576118d76111e3565b5b6118e489828a016111f3565b9450945050604087013567ffffffffffffffff811115611907576119066111e3565b5b61191389828a0161181d565b92509250509295509295509295565b5f5f83601f840112611937576119366111e7565b5b8235905067ffffffffffffffff811115611954576119536111eb565b5b6020830191508360208202830111156119705761196f6111ef565b5b9250929050565b5f5f6020838503121561198d5761198c6111df565b5b5f83013567ffffffffffffffff8111156119aa576119a96111e3565b5b6119b685828601611922565b92509250509250929050565b6119cb81611394565b81146119d5575f5ffd5b50565b5f813590506119e6816119c2565b92915050565b5f5f60408385031215611a0257611a016111df565b5b5f611a0f858286016119d8565b9250506020611a20858286016119d8565b9150509250929050565b5f604082019050611a3d5f83018561139d565b611a4a602083018461139d565b9392505050565b611a5a81611556565b8114611a64575f5ffd5b50565b5f81359050611a7581611a51565b92915050565b5f60208284031215611a9057611a8f6111df565b5b5f611a9d84828501611a67565b91505092915050565b5f81905092915050565b828183375f83830152505050565b5f611ac98385611aa6565b9350611ad6838584611ab0565b82840190509392505050565b5f611aee828486611abe565b91508190509392505050565b5f5ffd5b5f601f19601f8301169050919050565b7f4e487b71000000000000000000000000000000000000000000000000000000005f52604160045260245ffd5b611b4482611afe565b810181811067ffffffffffffffff82111715611b6357611b62611b0e565b5b80604052505050565b5f611b756111d6565b9050611b818282611b3b565b919050565b5f5ffd5b60038110611b96575f5ffd5b50565b5f81359050611ba781611b8a565b92915050565b5f67ffffffffffffffff821115611bc757611bc6611b0e565b5b602082029050602081019050919050565b5f611bea611be584611bad565b611b6c565b90508083825260208201905060208402830185811115611c0d57611c0c6111ef565b5b835b81811015611c365780611c228882611a67565b845260208401935050602081019050611c0f565b5050509392505050565b5f82601f830112611c5457611c536111e7565b5b8135611c64848260208601611bd8565b91505092915050565b5f67ffffffffffffffff821115611c8757611c86611b0e565b5b602082029050602081019050919050565b5f611caa611ca584611c6d565b611b6c565b90508083825260208201905060208402830185811115611ccd57611ccc6111ef565b5b835b81811015611cf65780611ce288826119d8565b845260208401935050602081019050611ccf565b5050509392505050565b5f82601f830112611d1457611d136111e7565b5b8135611d24848260208601611c98565b91505092915050565b5f60c08284031215611d4257611d41611afa565b5b611d4c60c0611b6c565b90505f611d5b848285016119d8565b5f830152506020611d6e84828501611b99565b602083015250604082013567ffffffffffffffff811115611d9257611d91611b86565b5b611d9e84828501611c40565b604083015250606082013567ffffffffffffffff811115611dc257611dc1611b86565b5b611dce84828501611d00565b6060830152506080611de2848285016119d8565b60808301525060a0611df684828501611267565b60a08301525092915050565b5f60208284031215611e1757611e166111df565b5b5f82013567ffffffffffffffff811115611e3457611e336111e3565b5b611e4084828501611d2d565b91505092915050565b5f611e5760208401846119d8565b905092915050565b5f611e6d6020840184611b99565b905092915050565b5f5ffd5b5f5ffd5b5f5ffd5b5f5f83356001602003843603038112611e9d57611e9c611e7d565b5b83810192508235915060208301925067ffffffffffffffff821115611ec557611ec4611e75565b5b602082023603831315611edb57611eda611e79565b5b509250929050565b5f819050919050565b5f611efa6020840184611a67565b905092915050565b5f602082019050919050565b5f611f1983856115b7565b9350611f2482611ee3565b805f5b85811015611f5c57611f398284611eec565b611f4388826115e5565b9750611f4e83611f02565b925050600181019050611f27565b5085925050509392505050565b5f5f83356001602003843603038112611f8557611f84611e7d565b5b83810192508235915060208301925067ffffffffffffffff821115611fad57611fac611e75565b5b602082023603831315611fc357611fc2611e79565b5b509250929050565b5f5ffd5b82818337505050565b5f611fe3838561166e565b93507f07ffffffffffffffffffffffffffffffffffffffffffffffffffffffffffffff83111561201657612015611fcb565b5b602083029250612027838584611fcf565b82840190509392505050565b5f6120416020840184611267565b905092915050565b5f60c0830161205a5f840184611e49565b6120665f86018261158f565b506120746020840184611e5f565b612081602086018261159e565b5061208f6040840184611e81565b85830360408701526120a2838284611f0e565b925050506120b36060840184611f69565b85830360608701526120c6838284611fd8565b925050506120d76080840184611e49565b6120e4608086018261158f565b506120f260a0840184612033565b6120ff60a086018261170c565b508091505092915050565b5f6020820190508181035f8301526121228184612049565b905092915050565b7f4e487b71000000000000000000000000000000000000000000000000000000005f52603260045260245ffd5b5f5ffd5b5f5ffd5b5f5ffd5b5f5f8335600160200384360303811261217f5761217e612157565b5b80840192508235915067ffffffffffffffff8211156121a1576121a061215b565b5b6020830192506020820236038313156121bd576121bc61215f565b5b509250929050565b5f5f833560016020038436030381126121e1576121e0612157565b5b80840192508235915067ffffffffffffffff8211156122035761220261215b565b5b60208301925060018202360383131561221f5761221e61215f565b5b509250929050565b5f82825260208201905092915050565b5f6122428385612227565b93507f07ffffffffffffffffffffffffffffffffffffffffffffffffffffffffffffff83111561227557612274611fcb565b5b602083029250612286838584611fcf565b82840190509392505050565b5f82825260208201905092915050565b5f6122ad8385612292565b93506122ba838584611ab0565b6122c383611afe565b840190509392505050565b5f6060820190508181035f8301526122e7818789612237565b90506122f6602083018661142e565b81810360408301526123098184866122a2565b90509695505050505050565b61231e81611361565b8114612328575f5ffd5b50565b5f8151905061233981612315565b92915050565b5f60208284031215612354576123536111df565b5b5f6123618482850161232b565b91505092915050565b7f4e487b71000000000000000000000000000000000000000000000000000000005f52601160045260245ffd5b5f6123a182611394565b91507fffffffffffffffffffffffffffffffffffffffffffffffffffffffffffffffff82036123d3576123d261236a565b5b600182019050919050565b5f81905092915050565b5f6123f383856123de565b93507f07ffffffffffffffffffffffffffffffffffffffffffffffffffffffffffffff83111561242657612425611fcb565b5b602083029250612437838584611fcf565b82840190509392505050565b5f61244f8284866123e8565b91508190509392505050565b5f61246582611394565b915061247083611394565b92508282019050808211156124885761248761236a565b5b92915050565b7f4e487b71000000000000000000000000000000000000000000000000000000005f52601260045260245ffd5b5f6124c582611394565b91506124d083611394565b9250826124e0576124df61248e565b5b828204905092915050565b5f6124f582611394565b915061250083611394565b9250826125105761250f61248e565b5b82820690509291505056fea26469706673582212205c47312e40985544c81a06310d325ed205229ec8dc974f11e740023c0ada299464736f6c634300081e0033","linkReferences":{}},"methodIdentifiers":{"MAX_BATCH_SIZE()":"cfdbf254","MAX_GROUP_SIZE()":"17754cd5","batchVerifyBills(bytes32[][],bytes32[],bytes[])":"9abfad8f","billStructures(bytes32)":"784297f7","calculateEqualSplit(uint256,uint256)":"d37f6b3c","generateBillLeaf((uint256,uint8,address[],uint256[],uint256,bytes32))":"4e24e8ac","getBillStructure(bytes32)":"92c72089","invalidateBill(bytes32)":"dd00aed4","isBillVerified(bytes32)":"d10f57e2","owner()":"8da5cb5b","renounceOwnership()":"715018a6","transferOwnership(address)":"f2fde38b","validatePercentageSplit(uint256[])":"be03d19b","verifiedBills(bytes32)":"dc28c16f","verifyBillStructure(bytes32[],bytes32,bytes)":"02c2e56a"},"id":46}