{"abi":[{"type":"constructor","inputs":[],"stateMutability":"nonpayable"},{"type":"function","name":"getSwapQuote","inputs":[{"name":"fromToken","type":"address","internalType":"address"},{"name":"toToken","type":"address","internalType":"address"},{"name":"amount","type":"uint256","internalType":"uint256"}],"outputs":[{"name":"estimatedAmountOut","type":"uint256","internalType":"uint256"}],"stateMutability":"view"},{"type":"function","name":"oneInchRouters","inputs":[{"name":"","type":"uint256","internalType":"uint256"}],"outputs":[{"name":"","type":"address","internalType":"address"}],"stateMutability":"view"},{"type":"function","name":"updateOneInchRouter","inputs":[{"name":"chainId","type":"uint256","internalType":"uint256"},{"name":"router","type":"address","internalType":"address"}],"outputs":[],"stateMutability":"nonpayable"},{"type":"event","name":"TokenSwapped","inputs":[{"name":"fromToken","type":"address","indexed":true,"internalType":"address"},{"name":"toToken","type":"address","indexed":true,"internalType":"address"},{"name":"amountIn","type":"uint256","indexed":false,"internalType":"uint256"},{"name":"amountOut","type":"uint256","indexed":false,"internalType":"uint256"},{"name":"user","type":"address","indexed":true,"internalType":"address"}],"anonymous":false},{"type":"error","name":"InvalidRouter","inputs":[]},{"type":"error","name":"InvalidSwapData","inputs":[]},{"type":"error","name":"SwapFailed","inputs":[]}],"bytecode":{"object":"0x608060405234801561000f575f5ffd5b5061001e61002360201b60201c565b610344565b73111111125421ca6dc452d289314280a0f8842a655f5f600181526020019081526020015f205f6101000a81548173ffffffffffffffffffffffffffffffffffffffff021916908373ffffffffffffffffffffffffffffffffffffffff16021790555073111111125421ca6dc452d289314280a0f8842a655f5f608981526020019081526020015f205f6101000a81548173ffffffffffffffffffffffffffffffffffffffff021916908373ffffffffffffffffffffffffffffffffffffffff16021790555073111111125421ca6dc452d289314280a0f8842a655f5f61a4b181526020019081526020015f205f6101000a81548173ffffffffffffffffffffffffffffffffffffffff021916908373ffffffffffffffffffffffffffffffffffffffff16021790555073111111125421ca6dc452d289314280a0f8842a655f5f603881526020019081526020015f205f6101000a81548173ffffffffffffffffffffffffffffffffffffffff021916908373ffffffffffffffffffffffffffffffffffffffff16021790555073111111125421ca6dc452d289314280a0f8842a655f5f600a81526020019081526020015f205f6101000a81548173ffffffffffffffffffffffffffffffffffffffff021916908373ffffffffffffffffffffffffffffffffffffffff16021790555073111111125421ca6dc452d289314280a0f8842a655f5f62aa36a781526020019081526020015f205f6101000a81548173ffffffffffffffffffffffffffffffffffffffff021916908373ffffffffffffffffffffffffffffffffffffffff16021790555073111111125421ca6dc452d289314280a0f8842a655f5f6201388181526020019081526020015f205f6101000a81548173ffffffffffffffffffffffffffffffffffffffff021916908373ffffffffffffffffffffffffffffffffffffffff16021790555073111111125421ca6dc452d289314280a0f8842a655f5f62066eed81526020019081526020015f205f6101000a81548173ffffffffffffffffffffffffffffffffffffffff021916908373ffffffffffffffffffffffffffffffffffffffff160217905550565b61031b806103515f395ff3fe608060405234801561000f575f5ffd5b506004361061003f575f3560e01c8063405243ba14610043578063426067711461005f578063be0a3dce1461008f575b5f5ffd5b61005d600480360381019061005891906101dc565b6100bf565b005b6100796004803603810190610074919061021a565b610111565b6040516100869190610279565b60405180910390f35b6100a960048036038101906100a49190610292565b61011c565b6040516100b691906102cc565b60405180910390f35b805f5f8481526020019081526020015f205f6101000a81548173ffffffffffffffffffffffffffffffffffffffff021916908373ffffffffffffffffffffffffffffffffffffffff1602179055505050565b5f8190509392505050565b5f602052805f5260405f205f915054906101000a900473ffffffffffffffffffffffffffffffffffffffff1681565b5f5ffd5b5f819050919050565b6101618161014f565b811461016b575f5ffd5b50565b5f8135905061017c81610158565b92915050565b5f73ffffffffffffffffffffffffffffffffffffffff82169050919050565b5f6101ab82610182565b9050919050565b6101bb816101a1565b81146101c5575f5ffd5b50565b5f813590506101d6816101b2565b92915050565b5f5f604083850312156101f2576101f161014b565b5b5f6101ff8582860161016e565b9250506020610210858286016101c8565b9150509250929050565b5f5f5f606084860312156102315761023061014b565b5b5f61023e868287016101c8565b935050602061024f868287016101c8565b92505060406102608682870161016e565b9150509250925092565b6102738161014f565b82525050565b5f60208201905061028c5f83018461026a565b92915050565b5f602082840312156102a7576102a661014b565b5b5f6102b48482850161016e565b91505092915050565b6102c6816101a1565b82525050565b5f6020820190506102df5f8301846102bd565b9291505056fea2646970667358221220453132ac864db242a5067c21af8a0ac3691918f5c188ec6a8f320f927775b5c764736f6c634300081d0033","linkReferences":{}},"methodIdentifiers":{"getSwapQuote(address,address,uint256)":"42606771","oneInchRouters(uint256)":"be0a3dce","updateOneInchRouter(uint256,address)":"405243ba"},"id":60}