{"abi":[{"type":"fallback","stateMutability":"nonpayable"},{"type":"function","name":"exchangeRates","inputs":[{"name":"","type":"address","internalType":"address"},{"name":"","type":"address","internalType":"address"}],"outputs":[{"name":"","type":"uint256","internalType":"uint256"}],"stateMutability":"view"},{"type":"function","name":"generateSwapData","inputs":[{"name":"fromToken","type":"address","internalType":"address"},{"name":"toToken","type":"address","internalType":"address"},{"name":"amount","type":"uint256","internalType":"uint256"}],"outputs":[{"name":"swapData","type":"bytes","internalType":"bytes"}],"stateMutability":"pure"},{"type":"function","name":"getExpectedOutput","inputs":[{"name":"fromToken","type":"address","internalType":"address"},{"name":"toToken","type":"address","internalType":"address"},{"name":"amount","type":"uint256","internalType":"uint256"}],"outputs":[{"name":"amountOut","type":"uint256","internalType":"uint256"}],"stateMutability":"view"},{"type":"function","name":"mockSwap","inputs":[{"name":"fromToken","type":"address","internalType":"address"},{"name":"toToken","type":"address","internalType":"address"},{"name":"amount","type":"uint256","internalType":"uint256"},{"name":"recipient","type":"address","internalType":"address"}],"outputs":[{"name":"returnAmount","type":"uint256","internalType":"uint256"}],"stateMutability":"nonpayable"},{"type":"function","name":"setExchangeRate","inputs":[{"name":"fromToken","type":"address","internalType":"address"},{"name":"toToken","type":"address","internalType":"address"},{"name":"rate","type":"uint256","internalType":"uint256"}],"outputs":[],"stateMutability":"nonpayable"},{"type":"function","name":"swap","inputs":[{"name":"","type":"address","internalType":"address"},{"name":"swapData","type":"bytes","internalType":"bytes"}],"outputs":[{"name":"returnAmount","type":"uint256","internalType":"uint256"}],"stateMutability":"nonpayable"},{"type":"event","name":"MockSwap","inputs":[{"name":"fromToken","type":"address","indexed":true,"internalType":"address"},{"name":"toToken","type":"address","indexed":true,"internalType":"address"},{"name":"amountIn","type":"uint256","indexed":false,"internalType":"uint256"},{"name":"amountOut","type":"uint256","indexed":false,"internalType":"uint256"},{"name":"recipient","type":"address","indexed":true,"internalType":"address"}],"anonymous":false},{"type":"error","name":"InsufficientLiquidity","inputs":[]},{"type":"error","name":"InvalidSwapData","inputs":[]},{"type":"error","name":"SafeERC20FailedOperation","inputs":[{"name":"token","type":"address","internalType":"address"}]},{"type":"error","name":"SwapFailed","inputs":[]}],"bytecode":{"object":"0x6080604052348015600e575f5ffd5b506111758061001c5f395ff3fe608060405234801561000f575f5ffd5b5060043610610064575f3560e01c80634d9f7abd1461015e578063503fa44f1461018e578063782aaeea146101be57806379b4b6de146101da578063a2ab28c11461020a578063e35473351461023a57610065565b5b5f5f365f90600492610079939291906108eb565b906100849190610966565b905060045f3690501061012c5760445f3690501061012b575f5f3660049080926100b0939291906108eb565b8080601f0160208091040260200160405190810160405280939291908181526020018383808284375f81840152601f19601f8201169050808301925050505050505090505f5f5f8380602001905181019061010b9190610a59565b9250925092505f61011e8484843361026a565b9050604051818152602081f35b5b6040517f81ceff3000000000000000000000000000000000000000000000000000000000815260040160405180910390fd5b61017860048036038101906101739190610af8565b6104e6565b6040516101859190610b57565b60405180910390f35b6101a860048036038101906101a39190610b70565b6105ad565b6040516101b59190610b57565b60405180910390f35b6101d860048036038101906101d39190610af8565b6105cc565b005b6101f460048036038101906101ef9190610bae565b61064d565b6040516102019190610b57565b60405180910390f35b610224600480360381019061021f9190610af8565b610664565b6040516102319190610c82565b60405180910390f35b610254600480360381019061024f9190610d03565b610693565b6040516102619190610b57565b60405180910390f35b5f5f5f5f8773ffffffffffffffffffffffffffffffffffffffff1673ffffffffffffffffffffffffffffffffffffffff1681526020019081526020015f205f8673ffffffffffffffffffffffffffffffffffffffff1673ffffffffffffffffffffffffffffffffffffffff1681526020019081526020015f205490505f810361031f576040517fbb55fd2700000000000000000000000000000000000000000000000000000000815260040160405180910390fd5b5f610329876106c4565b905080600a6103389190610ebc565b82866103449190610f06565b61034e9190610f74565b92505f8673ffffffffffffffffffffffffffffffffffffffff166370a08231306040518263ffffffff1660e01b815260040161038a9190610fb3565b602060405180830381865afa1580156103a5573d5f5f3e3d5ffd5b505050506040513d601f19601f820116820180604052508101906103c99190610fcc565b905083811015610405576040517fbb55fd2700000000000000000000000000000000000000000000000000000000815260040160405180910390fd5b6104328530888b73ffffffffffffffffffffffffffffffffffffffff16610747909392919063ffffffff16565b61045d85858973ffffffffffffffffffffffffffffffffffffffff166107c99092919063ffffffff16565b8473ffffffffffffffffffffffffffffffffffffffff168773ffffffffffffffffffffffffffffffffffffffff168973ffffffffffffffffffffffffffffffffffffffff167f2edc0c1443773ed2198257cb49fb145d769befc5840c620aebe1408483d7573889886040516104d3929190610ff7565b60405180910390a4505050949350505050565b5f5f5f5f8673ffffffffffffffffffffffffffffffffffffffff1673ffffffffffffffffffffffffffffffffffffffff1681526020019081526020015f205f8573ffffffffffffffffffffffffffffffffffffffff1673ffffffffffffffffffffffffffffffffffffffff1681526020019081526020015f205490505f8103610572575f9150506105a6565b5f61057c866106c4565b905080600a61058b9190610ebc565b82856105979190610f06565b6105a19190610f74565b925050505b9392505050565b5f602052815f5260405f20602052805f5260405f205f91509150505481565b805f5f8573ffffffffffffffffffffffffffffffffffffffff1673ffffffffffffffffffffffffffffffffffffffff1681526020019081526020015f205f8473ffffffffffffffffffffffffffffffffffffffff1673ffffffffffffffffffffffffffffffffffffffff1681526020019081526020015f2081905550505050565b5f61065a8585858561026a565b9050949350505050565b606083838360405160200161067b9392919061101e565b60405160208183030381529060405290509392505050565b5f5f5f5f85858101906106a69190611067565b9250925092506106b88383833361026a565b93505050509392505050565b5f8173ffffffffffffffffffffffffffffffffffffffff1663313ce5676040518163ffffffff1660e01b8152600401602060405180830381865afa92505050801561072d57506040513d601f19601f8201168201806040525081019061072a91906110ed565b60015b61073a5760129050610742565b8060ff169150505b919050565b6107c3848573ffffffffffffffffffffffffffffffffffffffff166323b872dd86868660405160240161077c9392919061101e565b604051602081830303815290604052915060e01b6020820180517bffffffffffffffffffffffffffffffffffffffffffffffffffffffff8381831617835250505050610848565b50505050565b610843838473ffffffffffffffffffffffffffffffffffffffff1663a9059cbb85856040516024016107fc929190611118565b604051602081830303815290604052915060e01b6020820180517bffffffffffffffffffffffffffffffffffffffffffffffffffffffff8381831617835250505050610848565b505050565b5f5f60205f8451602086015f885af180610867576040513d5f823e3d81fd5b3d92505f519150505f821461088057600181141561089b565b5f8473ffffffffffffffffffffffffffffffffffffffff163b145b156108dd57836040517f5274afe70000000000000000000000000000000000000000000000000000000081526004016108d49190610fb3565b60405180910390fd5b50505050565b5f5ffd5b5f5ffd5b5f5f858511156108fe576108fd6108e3565b5b8386111561090f5761090e6108e7565b5b6001850283019150848603905094509492505050565b5f82905092915050565b5f7fffffffff0000000000000000000000000000000000000000000000000000000082169050919050565b5f82821b905092915050565b5f6109718383610925565b8261097c813561092f565b925060048210156109bc576109b77fffffffff000000000000000000000000000000000000000000000000000000008360040360080261095a565b831692505b505092915050565b5f5ffd5b5f5ffd5b5f73ffffffffffffffffffffffffffffffffffffffff82169050919050565b5f6109f5826109cc565b9050919050565b610a05816109eb565b8114610a0f575f5ffd5b50565b5f81519050610a20816109fc565b92915050565b5f819050919050565b610a3881610a26565b8114610a42575f5ffd5b50565b5f81519050610a5381610a2f565b92915050565b5f5f5f60608486031215610a7057610a6f6109c4565b5b5f610a7d86828701610a12565b9350506020610a8e86828701610a12565b9250506040610a9f86828701610a45565b9150509250925092565b5f610ab3826109cc565b9050919050565b610ac381610aa9565b8114610acd575f5ffd5b50565b5f81359050610ade81610aba565b92915050565b5f81359050610af281610a2f565b92915050565b5f5f5f60608486031215610b0f57610b0e6109c4565b5b5f610b1c86828701610ad0565b9350506020610b2d86828701610ad0565b9250506040610b3e86828701610ae4565b9150509250925092565b610b5181610a26565b82525050565b5f602082019050610b6a5f830184610b48565b92915050565b5f5f60408385031215610b8657610b856109c4565b5b5f610b9385828601610ad0565b9250506020610ba485828601610ad0565b9150509250929050565b5f5f5f5f60808587031215610bc657610bc56109c4565b5b5f610bd387828801610ad0565b9450506020610be487828801610ad0565b9350506040610bf587828801610ae4565b9250506060610c0687828801610ad0565b91505092959194509250565b5f81519050919050565b5f82825260208201905092915050565b8281835e5f83830152505050565b5f601f19601f8301169050919050565b5f610c5482610c12565b610c5e8185610c1c565b9350610c6e818560208601610c2c565b610c7781610c3a565b840191505092915050565b5f6020820190508181035f830152610c9a8184610c4a565b905092915050565b5f5ffd5b5f5ffd5b5f5ffd5b5f5f83601f840112610cc357610cc2610ca2565b5b8235905067ffffffffffffffff811115610ce057610cdf610ca6565b5b602083019150836001820283011115610cfc57610cfb610caa565b5b9250929050565b5f5f5f60408486031215610d1a57610d196109c4565b5b5f610d2786828701610ad0565b935050602084013567ffffffffffffffff811115610d4857610d476109c8565b5b610d5486828701610cae565b92509250509250925092565b7f4e487b71000000000000000000000000000000000000000000000000000000005f52601160045260245ffd5b5f8160011c9050919050565b5f5f8291508390505b6001851115610de257808604811115610dbe57610dbd610d60565b5b6001851615610dcd5780820291505b8081029050610ddb85610d8d565b9450610da2565b94509492505050565b5f82610dfa5760019050610eb5565b81610e07575f9050610eb5565b8160018114610e1d5760028114610e2757610e56565b6001915050610eb5565b60ff841115610e3957610e38610d60565b5b8360020a915084821115610e5057610e4f610d60565b5b50610eb5565b5060208310610133831016604e8410600b8410161715610e8b5782820a905083811115610e8657610e85610d60565b5b610eb5565b610e988484846001610d99565b92509050818404811115610eaf57610eae610d60565b5b81810290505b9392505050565b5f610ec682610a26565b9150610ed183610a26565b9250610efe7fffffffffffffffffffffffffffffffffffffffffffffffffffffffffffffffff8484610deb565b905092915050565b5f610f1082610a26565b9150610f1b83610a26565b9250828202610f2981610a26565b91508282048414831517610f4057610f3f610d60565b5b5092915050565b7f4e487b71000000000000000000000000000000000000000000000000000000005f52601260045260245ffd5b5f610f7e82610a26565b9150610f8983610a26565b925082610f9957610f98610f47565b5b828204905092915050565b610fad81610aa9565b82525050565b5f602082019050610fc65f830184610fa4565b92915050565b5f60208284031215610fe157610fe06109c4565b5b5f610fee84828501610a45565b91505092915050565b5f60408201905061100a5f830185610b48565b6110176020830184610b48565b9392505050565b5f6060820190506110315f830186610fa4565b61103e6020830185610fa4565b61104b6040830184610b48565b949350505050565b5f81359050611061816109fc565b92915050565b5f5f5f6060848603121561107e5761107d6109c4565b5b5f61108b86828701611053565b935050602061109c86828701611053565b92505060406110ad86828701610ae4565b9150509250925092565b5f60ff82169050919050565b6110cc816110b7565b81146110d6575f5ffd5b50565b5f815190506110e7816110c3565b92915050565b5f60208284031215611102576111016109c4565b5b5f61110f848285016110d9565b91505092915050565b5f60408201905061112b5f830185610fa4565b6111386020830184610b48565b939250505056fea2646970667358221220a89d0ec7ded0890f283cbf7c4dd477d7a69c233d6d778f1d8fc4d57daabb898964736f6c634300081d0033","linkReferences":{}},"methodIdentifiers":{"exchangeRates(address,address)":"503fa44f","generateSwapData(address,address,uint256)":"a2ab28c1","getExpectedOutput(address,address,uint256)":"4d9f7abd","mockSwap(address,address,uint256,address)":"79b4b6de","setExchangeRate(address,address,uint256)":"782aaeea","swap(address,bytes)":"e3547335"},"id":59}