{"abi":[{"type":"function","name":"examplePayBillWithSwap","inputs":[{"name":"billId","type":"bytes32","internalType":"bytes32"},{"name":"paymentToken","type":"address","internalType":"address"},{"name":"paymentAmount","type":"uint256","internalType":"uint256"},{"name":"targetTokenSymbol","type":"string","internalType":"string"},{"name":"destinationChain","type":"string","internalType":"string"},{"name":"destinationAddress","type":"address","internalType":"address"},{"name":"oneInchSwapData","type":"bytes","internalType":"bytes"},{"name":"minTargetAmount","type":"uint256","internalType":"uint256"}],"outputs":[],"stateMutability":"payable"},{"type":"event","name":"ExampleSwapAndSend","inputs":[{"name":"user","type":"address","indexed":true,"internalType":"address"},{"name":"fromToken","type":"address","indexed":false,"internalType":"address"},{"name":"toToken","type":"address","indexed":false,"internalType":"address"},{"name":"amountIn","type":"uint256","indexed":false,"internalType":"uint256"},{"name":"amountOut","type":"uint256","indexed":false,"internalType":"uint256"},{"name":"destinationChain","type":"string","indexed":false,"internalType":"string"}],"anonymous":false}],"bytecode":{"object":"0x6080604052348015600e575f5ffd5b506104398061001c5f395ff3fe60806040526004361061001d575f3560e01c8063a955946914610021575b5f5ffd5b61003b60048036038101906100369190610220565b61003d565b005b3373ffffffffffffffffffffffffffffffffffffffff167ff9c0a8f0de8e30b8a0ab8c5ed0d363ed49d6354051d0bb063813fa1d76f96a888b5f8c858b8b60405161008d969594939291906103a9565b60405180910390a25050505050505050505050565b5f5ffd5b5f5ffd5b5f819050919050565b6100bc816100aa565b81146100c6575f5ffd5b50565b5f813590506100d7816100b3565b92915050565b5f73ffffffffffffffffffffffffffffffffffffffff82169050919050565b5f610106826100dd565b9050919050565b610116816100fc565b8114610120575f5ffd5b50565b5f813590506101318161010d565b92915050565b5f819050919050565b61014981610137565b8114610153575f5ffd5b50565b5f8135905061016481610140565b92915050565b5f5ffd5b5f5ffd5b5f5ffd5b5f5f83601f84011261018b5761018a61016a565b5b8235905067ffffffffffffffff8111156101a8576101a761016e565b5b6020830191508360018202830111156101c4576101c3610172565b5b9250929050565b5f5f83601f8401126101e0576101df61016a565b5b8235905067ffffffffffffffff8111156101fd576101fc61016e565b5b60208301915083600182028301111561021957610218610172565b5b9250929050565b5f5f5f5f5f5f5f5f5f5f5f6101008c8e0312156102405761023f6100a2565b5b5f61024d8e828f016100c9565b9b5050602061025e8e828f01610123565b9a5050604061026f8e828f01610156565b99505060608c013567ffffffffffffffff8111156102905761028f6100a6565b5b61029c8e828f01610176565b985098505060808c013567ffffffffffffffff8111156102bf576102be6100a6565b5b6102cb8e828f01610176565b965096505060a06102de8e828f01610123565b94505060c08c013567ffffffffffffffff8111156102ff576102fe6100a6565b5b61030b8e828f016101cb565b935093505060e061031e8e828f01610156565b9150509295989b509295989b9093969950565b61033a816100fc565b82525050565b61034981610137565b82525050565b5f82825260208201905092915050565b828183375f83830152505050565b5f601f19601f8301169050919050565b5f610388838561034f565b935061039583858461035f565b61039e8361036d565b840190509392505050565b5f60a0820190506103bc5f830189610331565b6103c96020830188610331565b6103d66040830187610340565b6103e36060830186610340565b81810360808301526103f681848661037d565b905097965050505050505056fea2646970667358221220abc586f0e6c79054c7e6fd5b8bc0d4960cbd85a045db50f9815ded691f6627c664736f6c634300081d0033","linkReferences":{}},"methodIdentifiers":{"examplePayBillWithSwap(bytes32,address,uint256,string,string,address,bytes,uint256)":"a9559469"},"id":60}